{"abi":[{"type":"constructor","inputs":[{"name":"_buzzkillAddressProvider","type":"address","internalType":"address"}],"stateMutability":"nonpayable"},{"type":"function","name":"BASE_DENOMINATOR","inputs":[],"outputs":[{"name":"","type":"uint256","internalType":"uint256"}],"stateMutability":"view"},{"type":"function","name":"addHabitat","inputs":[{"name":"nectar","type":"uint256","internalType":"uint256"},{"name":"pollen","type":"uint256","internalType":"uint256"},{"name":"sap","type":"uint256","internalType":"uint256"},{"name":"_energyDeductionAfterForage","type":"uint256","internalType":"uint256"},{"name":"_incentiveEarnAfterForage","type":"uint256","internalType":"uint256"}],"outputs":[],"stateMutability":"nonpayable"},{"type":"function","name":"buzzkillAddressProvider","inputs":[],"outputs":[{"name":"","type":"address","internalType":"contract IBuzzkillAddressProvider"}],"stateMutability":"view"},{"type":"function","name":"currentHabitatId","inputs":[],"outputs":[{"name":"","type":"uint256","internalType":"uint256"}],"stateMutability":"view"},{"type":"function","name":"forage","inputs":[{"name":"_beeId","type":"uint256","internalType":"uint256"},{"name":"_habitatId","type":"uint256","internalType":"uint256"}],"outputs":[{"name":"nectarGathered","type":"uint256","internalType":"uint256"},{"name":"pollenGathered","type":"uint256","internalType":"uint256"},{"name":"sapGathered","type":"uint256","internalType":"uint256"}],"stateMutability":"nonpayable"},{"type":"function","name":"getAmountEnergyDeductionAfterForage","inputs":[{"name":"_habitatId","type":"uint256","internalType":"uint256"}],"outputs":[{"name":"","type":"uint256","internalType":"uint256"}],"stateMutability":"view"},{"type":"function","name":"getAmountIncentiveEarnAfterForage","inputs":[{"name":"_habitatId","type":"uint256","internalType":"uint256"}],"outputs":[{"name":"","type":"uint256","internalType":"uint256"}],"stateMutability":"view"},{"type":"function","name":"getHabitatResources","inputs":[{"name":"_habitatId","type":"uint256","internalType":"uint256"}],"outputs":[{"name":"","type":"uint256","internalType":"uint256"},{"name":"","type":"uint256","internalType":"uint256"},{"name":"","type":"uint256","internalType":"uint256"}],"stateMutability":"view"},{"type":"function","name":"getInitialHabitatResources","inputs":[{"name":"_habitatId","type":"uint256","internalType":"uint256"}],"outputs":[{"name":"","type":"uint256","internalType":"uint256"},{"name":"","type":"uint256","internalType":"uint256"},{"name":"","type":"uint256","internalType":"uint256"}],"stateMutability":"view"},{"type":"function","name":"habitatsInfo","inputs":[{"name":"","type":"uint256","internalType":"uint256"}],"outputs":[{"name":"lastRefreshTime","type":"uint256","internalType":"uint256"},{"name":"energyDeductionAfterForage","type":"uint256","internalType":"uint256"},{"name":"incentiveEarnAfterForage","type":"uint256","internalType":"uint256"}],"stateMutability":"view"},{"type":"function","name":"habitatsResources","inputs":[{"name":"","type":"uint256","internalType":"uint256"}],"outputs":[{"name":"nectar","type":"uint256","internalType":"uint256"},{"name":"pollen","type":"uint256","internalType":"uint256"},{"name":"sap","type":"uint256","internalType":"uint256"}],"stateMutability":"view"},{"type":"function","name":"initialHabitatResources","inputs":[{"name":"","type":"uint256","internalType":"uint256"}],"outputs":[{"name":"nectar","type":"uint256","internalType":"uint256"},{"name":"pollen","type":"uint256","internalType":"uint256"},{"name":"sap","type":"uint256","internalType":"uint256"}],"stateMutability":"view"},{"type":"function","name":"owner","inputs":[],"outputs":[{"name":"","type":"address","internalType":"address"}],"stateMutability":"view"},{"type":"function","name":"renounceOwnership","inputs":[],"outputs":[],"stateMutability":"nonpayable"},{"type":"function","name":"resourcesDecreasePercentage","inputs":[],"outputs":[{"name":"","type":"uint256","internalType":"uint256"}],"stateMutability":"view"},{"type":"function","name":"transferOwnership","inputs":[{"name":"newOwner","type":"address","internalType":"address"}],"outputs":[],"stateMutability":"nonpayable"},{"type":"event","name":"HabitatAdded","inputs":[{"name":"habitatId","type":"uint256","indexed":false,"internalType":"uint256"},{"name":"nectar","type":"uint256","indexed":false,"internalType":"uint256"},{"name":"pollen","type":"uint256","indexed":false,"internalType":"uint256"},{"name":"sap","type":"uint256","indexed":false,"internalType":"uint256"},{"name":"energyDeductionAfterForage","type":"uint256","indexed":false,"internalType":"uint256"},{"name":"incentiveEarnAfterForage","type":"uint256","indexed":false,"internalType":"uint256"}],"anonymous":false},{"type":"event","name":"OwnershipTransferred","inputs":[{"name":"previousOwner","type":"address","indexed":true,"internalType":"address"},{"name":"newOwner","type":"address","indexed":true,"internalType":"address"}],"anonymous":false},{"type":"error","name":"HabitatNotExists","inputs":[]},{"type":"error","name":"HiveOnly","inputs":[]},{"type":"error","name":"InvalidHealthDeductionValue","inputs":[]},{"type":"error","name":"InvalidNectarValue","inputs":[]},{"type":"error","name":"InvalidPollenValue","inputs":[]},{"type":"error","name":"InvalidSapValue","inputs":[]},{"type":"error","name":"NotEnoughResources","inputs":[]},{"type":"error","name":"OwnableInvalidOwner","inputs":[{"name":"owner","type":"address","internalType":"address"}]},{"type":"error","name":"OwnableUnauthorizedAccount","inputs":[{"name":"account","type":"address","internalType":"address"}]}],"bytecode":{"object":"0x60806040526101f460025534801561001657600080fd5b50604051611283380380611283833981016040819052610035916100da565b338061005b57604051631e4fbdf760e01b81526000600482015260240160405180910390fd5b6100648161008a565b50600680546001600160a01b0319166001600160a01b039290921691909117905561010a565b600080546001600160a01b038381166001600160a01b0319831681178455604051919092169283917f8be0079c531659141344cd1fd0a4f28419497f9722a3daafe3b4186f6b6457e09190a35050565b6000602082840312156100ec57600080fd5b81516001600160a01b038116811461010357600080fd5b9392505050565b61116a806101196000396000f3fe608060405234801561001057600080fd5b50600436106101005760003560e01c80638da5cb5b11610097578063e79cd7ec11610066578063e79cd7ec14610294578063eec584ef146102b7578063f023f4f6146102c0578063f2fde38b146102e357600080fd5b80638da5cb5b14610224578063921ca4b114610249578063bd8595841461025c578063cf9d276f1461026557600080fd5b80633ab6202b116100d35780633ab6202b146101c5578063706d6ef4146101da578063715018a6146101ed5780637a03437d146101f557600080fd5b806305665811146101055780631d9d868f1461015457806320839e3e1461018157806339dcc7a7146101ae575b600080fd5b610134610113366004610ec8565b60036020526000908152604090208054600182015460029092015490919083565b604080519384526020840192909252908201526060015b60405180910390f35b610134610162366004610ec8565b6000908152600560205260409020805460018201546002909201549092565b61013461018f366004610ec8565b6000908152600460205260409020805460018201546002909201549092565b6101b760025481565b60405190815260200161014b565b6101d86101d3366004610ee1565b6102f6565b005b6101346101e8366004610f1c565b6105ca565b6101d8610c1b565b610134610203366004610ec8565b60046020526000908152604090208054600182015460029092015490919083565b6000546001600160a01b03165b6040516001600160a01b03909116815260200161014b565b600654610231906001600160a01b031681565b6101b761271081565b610134610273366004610ec8565b60056020526000908152604090208054600182015460029092015490919083565b6101b76102a2366004610ec8565b60009081526003602052604090206001015490565b6101b760015481565b6101b76102ce366004610ec8565b60009081526003602052604090206002015490565b6101d86102f1366004610f53565b610c2f565b6102fe610c6d565b60065460408051636cfe8a9f60e01b815290516000926001600160a01b031691636cfe8a9f9160048083019260209291908290030181865afa158015610348573d6000803e3d6000fd5b505050506040513d601f19601f8201168201806040525081019061036c9190610f77565b90506000816001600160a01b031663f8ac28436040518163ffffffff1660e01b8152600401602060405180830381865afa1580156103ae573d6000803e3d6000fd5b505050506040513d601f19601f820116820180604052508101906103d29190610f94565b90506000826001600160a01b0316633cf4766b6040518163ffffffff1660e01b8152600401602060405180830381865afa158015610414573d6000803e3d6000fd5b505050506040513d601f19601f820116820180604052508101906104389190610f94565b90508188108061044757508088115b156104655760405163401cb65560e11b815260040160405180910390fd5b8187108061047257508087115b1561049057604051631ffb106760e21b815260040160405180910390fd5b8186108061049d57508086115b156104bb576040516305a2abd160e21b815260040160405180910390fd5b6001805460408051606080820183528c825260208083018d81528385018d81526000878152600484528681209551865591518589015551600294850155845180840186528f81528083018f81528187018f815288845260058552878420925183559051828a01555190850155845192830185524283528282018c81528386018c815287835260039093529481209251835593518287015551910155825491929061056483610fc3565b909155505060408051828152602081018b9052908101899052606081018890526080810187905260a081018690527ffa33e270dc1dce18f42a7efa3d7fc919f6a0273079972c8ffcb16487867cf08b9060c00160405180910390a1505050505050505050565b6000806000600660009054906101000a90046001600160a01b03166001600160a01b03166318b5c9546040518163ffffffff1660e01b8152600401602060405180830381865afa158015610622573d6000803e3d6000fd5b505050506040513d601f19601f820116820180604052508101906106469190610f77565b6001600160a01b0316336001600160a01b031614610677576040516329e101a960e01b815260040160405180910390fd5b600654604080516320d399e760e21b815290516000926001600160a01b03169163834e679c9160048083019260209291908290030181865afa1580156106c1573d6000803e3d6000fd5b505050506040513d601f19601f820116820180604052508101906106e59190610f77565b60405163f3c86ff560e01b8152600481018890529091506000906001600160a01b0383169063f3c86ff59060240161018060405180830381865afa158015610731573d6000803e3d6000fd5b505050506040513d601f19601f820116820180604052508101906107559190611014565b6080810151909150806107ba5760405162461bcd60e51b815260206004820152602260248201527f426565206d7573742068617665206120666f726167696e6720736b696c6c2073604482015261195d60f21b60648201526084015b60405180910390fd5b6107c387610c9a565b60008781526004602081815260408084208054600182015460028301546006548551636cfe8a9f60e01b81529551949893979296919593946001600160a01b0390911693636cfe8a9f938181019392918290030181865afa15801561082c573d6000803e3d6000fd5b505050506040513d601f19601f820116820180604052508101906108509190610f77565b90506000816001600160a01b031663f8ac28436040518163ffffffff1660e01b8152600401602060405180830381865afa158015610892573d6000803e3d6000fd5b505050506040513d601f19601f820116820180604052508101906108b69190610f94565b905080851080156108c657508084105b80156108d157508083105b156108ef57604051630cd7666960e21b815260040160405180910390fd5b60006108f9610e07565b90508186106109fc5761090e612710806110b3565b836001600160a01b031663e35ef3b46040518163ffffffff1660e01b8152600401602060405180830381865afa15801561094c573d6000803e3d6000fd5b505050506040513d601f19601f820116820180604052508101906109709190610f94565b8261097b898c6110b3565b61098591906110b3565b61098f91906110b3565b61099991906110e6565b9c50612710600254876109ac91906110b3565b6109b691906110e6565b875411156109f757612710600254876109cf91906110b3565b6109d991906110e6565b8760000160008282546109ec91906110fa565b909155506109fc9050565b600087555b818510610b0357610a0f612710806110b3565b836001600160a01b031663ba7f38786040518163ffffffff1660e01b8152600401602060405180830381865afa158015610a4d573d6000803e3d6000fd5b505050506040513d601f19601f82011682018060405250810190610a719190610f94565b82610a7c888c6110b3565b610a8691906110b3565b610a9091906110b3565b610a9a91906110e6565b9b5061271060025486610aad91906110b3565b610ab791906110e6565b87600101541115610afb5761271060025486610ad391906110b3565b610add91906110e6565b876001016000828254610af091906110fa565b90915550610b039050565b600060018801555b818410610c0a57610b16612710806110b3565b836001600160a01b031663b6f9cf6a6040518163ffffffff1660e01b8152600401602060405180830381865afa158015610b54573d6000803e3d6000fd5b505050506040513d601f19601f82011682018060405250810190610b789190610f94565b82610b83878c6110b3565b610b8d91906110b3565b610b9791906110b3565b610ba191906110e6565b9a5061271060025485610bb491906110b3565b610bbe91906110e6565b87600201541115610c025761271060025485610bda91906110b3565b610be491906110e6565b876002016000828254610bf791906110fa565b90915550610c0a9050565b600060028801555b505050505050505050509250925092565b610c23610c6d565b610c2d6000610e78565b565b610c37610c6d565b6001600160a01b038116610c6157604051631e4fbdf760e01b8152600060048201526024016107b1565b610c6a81610e78565b50565b6000546001600160a01b03163314610c2d5760405163118cdaa760e01b81523360048201526024016107b1565b60065460408051636cfe8a9f60e01b815290516000926001600160a01b031691636cfe8a9f9160048083019260209291908290030181865afa158015610ce4573d6000803e3d6000fd5b505050506040513d601f19601f82011682018060405250810190610d089190610f77565b600083815260036020526040812054919250610d2482426110fa565b90506000836001600160a01b0316630c52bbbc6040518163ffffffff1660e01b8152600401602060405180830381865afa158015610d66573d6000803e3d6000fd5b505050506040513d601f19601f82011682018060405250810190610d8a9190610f94565b9050808210610e00576000610d9f82846110e6565b9050610dab82826110b3565b60008781526003602052604081208054909190610dc990849061110d565b9091555050506000858152600560209081526040808320600490925290912081548155600180830154908201556002918201549101555b5050505050565b6000610fa1444233604051602001610e4493929190928352602083019190915260601b6bffffffffffffffffffffffff1916604082015260540190565b6040516020818303038152906040528051906020012060001c610e679190611120565b610e7390611f4061110d565b905090565b600080546001600160a01b038381166001600160a01b0319831681178455604051919092169283917f8be0079c531659141344cd1fd0a4f28419497f9722a3daafe3b4186f6b6457e09190a35050565b600060208284031215610eda57600080fd5b5035919050565b600080600080600060a08688031215610ef957600080fd5b505083359560208501359550604085013594606081013594506080013592509050565b60008060408385031215610f2f57600080fd5b50508035926020909101359150565b6001600160a01b0381168114610c6a57600080fd5b600060208284031215610f6557600080fd5b8135610f7081610f3e565b9392505050565b600060208284031215610f8957600080fd5b8151610f7081610f3e565b600060208284031215610fa657600080fd5b5051919050565b634e487b7160e01b600052601160045260246000fd5b600060018201610fd557610fd5610fad565b5060010190565b604051610180810167ffffffffffffffff8111828210171561100e57634e487b7160e01b600052604160045260246000fd5b60405290565b6000610180828403121561102757600080fd5b61102f610fdc565b825181526020830151602082015260408301516040820152606083015160608201526080830151608082015260a083015160a082015260c083015160c082015260e083015160e08201526101008084015181830152506101208084015181830152506101408084015181830152506101608084015181830152508091505092915050565b80820281158282048414176110ca576110ca610fad565b92915050565b634e487b7160e01b600052601260045260246000fd5b6000826110f5576110f56110d0565b500490565b818103818111156110ca576110ca610fad565b808201808211156110ca576110ca610fad565b60008261112f5761112f6110d0565b50069056fea264697066735822122011d780f7fa0205dc6daa97a513ec3df1725c23e3d339a82e55b38c1903cf2b0864736f6c63430008190033","linkReferences":{}},"methodIdentifiers":{"BASE_DENOMINATOR()":"bd859584","addHabitat(uint256,uint256,uint256,uint256,uint256)":"3ab6202b","buzzkillAddressProvider()":"921ca4b1","currentHabitatId()":"eec584ef","forage(uint256,uint256)":"706d6ef4","getAmountEnergyDeductionAfterForage(uint256)":"e79cd7ec","getAmountIncentiveEarnAfterForage(uint256)":"f023f4f6","getHabitatResources(uint256)":"20839e3e","getInitialHabitatResources(uint256)":"1d9d868f","habitatsInfo(uint256)":"05665811","habitatsResources(uint256)":"7a03437d","initialHabitatResources(uint256)":"cf9d276f","owner()":"8da5cb5b","renounceOwnership()":"715018a6","resourcesDecreasePercentage()":"39dcc7a7","transferOwnership(address)":"f2fde38b"},"id":3}