{"abi":[{"type":"function","name":"BASE_DENOMINATOR","inputs":[],"outputs":[{"name":"","type":"uint256","internalType":"uint256"}],"stateMutability":"view"},{"type":"function","name":"ONE_EPOCH","inputs":[],"outputs":[{"name":"","type":"uint256","internalType":"uint256"}],"stateMutability":"view"},{"type":"function","name":"beeStatus","inputs":[{"name":"","type":"uint256","internalType":"uint256"},{"name":"","type":"uint256","internalType":"uint256"}],"outputs":[{"name":"owner","type":"address","internalType":"address"},{"name":"beeId","type":"uint256","internalType":"uint256"},{"name":"beeProductivity","type":"uint256","internalType":"uint256"},{"name":"beeWorkIncentive","type":"uint256","internalType":"uint256"},{"name":"beeDefense","type":"uint256","internalType":"uint256"},{"name":"lastClaimedBlock","type":"uint256","internalType":"uint256"}],"stateMutability":"view"},{"type":"function","name":"buzzkillAddressProvider","inputs":[],"outputs":[{"name":"","type":"address","internalType":"contract IBuzzkillAddressProvider"}],"stateMutability":"view"},{"type":"function","name":"collectHoney","inputs":[{"name":"_hiveId","type":"uint256","internalType":"uint256"},{"name":"_tokenId","type":"uint256","internalType":"uint256"}],"outputs":[],"stateMutability":"nonpayable"},{"type":"function","name":"createHive","inputs":[{"name":"habitatId","type":"uint256","internalType":"uint256"}],"outputs":[],"stateMutability":"nonpayable"},{"type":"function","name":"forage","inputs":[{"name":"_hiveId","type":"uint256","internalType":"uint256"},{"name":"_tokenId","type":"uint256","internalType":"uint256"},{"name":"_habitatId","type":"uint256","internalType":"uint256"}],"outputs":[],"stateMutability":"nonpayable"},{"type":"function","name":"getAvailableHoneyInHive","inputs":[{"name":"_hiveId","type":"uint256","internalType":"uint256"}],"outputs":[{"name":"","type":"uint256","internalType":"uint256"}],"stateMutability":"view"},{"type":"function","name":"getHivePoolMultiplier","inputs":[{"name":"_hiveId","type":"uint256","internalType":"uint256"}],"outputs":[{"name":"","type":"uint256","internalType":"uint256"}],"stateMutability":"view"},{"type":"function","name":"getHiveResources","inputs":[{"name":"_hiveId","type":"uint256","internalType":"uint256"}],"outputs":[{"name":"","type":"uint256","internalType":"uint256"},{"name":"","type":"uint256","internalType":"uint256"},{"name":"","type":"uint256","internalType":"uint256"}],"stateMutability":"view"},{"type":"function","name":"getUserClaimableHoney","inputs":[{"name":"_hiveId","type":"uint256","internalType":"uint256"},{"name":"_tokenId","type":"uint256","internalType":"uint256"}],"outputs":[{"name":"","type":"uint256","internalType":"uint256"}],"stateMutability":"view"},{"type":"function","name":"hives","inputs":[{"name":"","type":"uint256","internalType":"uint256"}],"outputs":[{"name":"habitatId","type":"uint256","internalType":"uint256"},{"name":"numQueens","type":"uint256","internalType":"uint256"},{"name":"numWorkers","type":"uint256","internalType":"uint256"},{"name":"nectar","type":"uint256","internalType":"uint256"},{"name":"pollen","type":"uint256","internalType":"uint256"},{"name":"sap","type":"uint256","internalType":"uint256"},{"name":"hiveProductivity","type":"uint256","internalType":"uint256"},{"name":"hiveDefense","type":"uint256","internalType":"uint256"},{"name":"availableHoneyInHive","type":"uint256","internalType":"uint256"},{"name":"lastAvailableHoneyUpdateBlock","type":"uint256","internalType":"uint256"},{"name":"hiveTotalIncentive","type":"uint256","internalType":"uint256"},{"name":"lastBaseIncentiveUpdateBlock","type":"uint256","internalType":"uint256"}],"stateMutability":"view"},{"type":"function","name":"initialize","inputs":[{"name":"_buzzkillAddressProvider","type":"address","internalType":"address"}],"outputs":[],"stateMutability":"nonpayable"},{"type":"function","name":"isBeeInAction","inputs":[{"name":"","type":"uint256","internalType":"uint256"},{"name":"","type":"uint256","internalType":"uint256"}],"outputs":[{"name":"","type":"bool","internalType":"bool"}],"stateMutability":"view"},{"type":"function","name":"onERC721Received","inputs":[{"name":"","type":"address","internalType":"address"},{"name":"","type":"address","internalType":"address"},{"name":"","type":"uint256","internalType":"uint256"},{"name":"","type":"bytes","internalType":"bytes"}],"outputs":[{"name":"","type":"bytes4","internalType":"bytes4"}],"stateMutability":"pure"},{"type":"function","name":"stakeBee","inputs":[{"name":"_hiveId","type":"uint256","internalType":"uint256"},{"name":"_tokenId","type":"uint256","internalType":"uint256"}],"outputs":[],"stateMutability":"nonpayable"},{"type":"function","name":"startRaid","inputs":[{"name":"_hiveId","type":"uint256","internalType":"uint256"},{"name":"_tokenId","type":"uint256","internalType":"uint256"},{"name":"_raidedHiveId","type":"uint256","internalType":"uint256"}],"outputs":[],"stateMutability":"nonpayable"},{"type":"function","name":"totalHives","inputs":[],"outputs":[{"name":"","type":"uint256","internalType":"uint256"}],"stateMutability":"view"},{"type":"function","name":"unstakeBee","inputs":[{"name":"_hiveId","type":"uint256","internalType":"uint256"},{"name":"_tokenId","type":"uint256","internalType":"uint256"}],"outputs":[],"stateMutability":"nonpayable"},{"type":"function","name":"updateHiveDefense","inputs":[{"name":"_hiveId","type":"uint256","internalType":"uint256"},{"name":"_tokenId","type":"uint256","internalType":"uint256"}],"outputs":[],"stateMutability":"nonpayable"},{"type":"function","name":"updateHiveProductivity","inputs":[{"name":"_hiveId","type":"uint256","internalType":"uint256"},{"name":"_tokenId","type":"uint256","internalType":"uint256"}],"outputs":[],"stateMutability":"nonpayable"},{"type":"function","name":"updradeBeeSkills","inputs":[{"name":"_hiveId","type":"uint256","internalType":"uint256"},{"name":"_tokenId","type":"uint256","internalType":"uint256"},{"name":"_beeSkill","type":"uint8","internalType":"enum HiveManager.BeeSkills"},{"name":"amount","type":"uint256","internalType":"uint256"}],"outputs":[],"stateMutability":"nonpayable"},{"type":"event","name":"CollectHoney","inputs":[{"name":"tokenId","type":"uint256","indexed":false,"internalType":"uint256"},{"name":"hiveId","type":"uint256","indexed":false,"internalType":"uint256"},{"name":"honey","type":"uint256","indexed":false,"internalType":"uint256"}],"anonymous":false},{"type":"event","name":"ForageFinished","inputs":[{"name":"tokenId","type":"uint256","indexed":false,"internalType":"uint256"},{"name":"hiveId","type":"uint256","indexed":false,"internalType":"uint256"},{"name":"productivityEarned","type":"uint256","indexed":false,"internalType":"uint256"},{"name":"experienceEarned","type":"uint256","indexed":false,"internalType":"uint256"}],"anonymous":false},{"type":"event","name":"HiveCreated","inputs":[{"name":"hiveId","type":"uint256","indexed":false,"internalType":"uint256"},{"name":"habitatId","type":"uint256","indexed":false,"internalType":"uint256"}],"anonymous":false},{"type":"event","name":"Initialized","inputs":[{"name":"version","type":"uint64","indexed":false,"internalType":"uint64"}],"anonymous":false},{"type":"event","name":"NFTStaked","inputs":[{"name":"tokenId","type":"uint256","indexed":false,"internalType":"uint256"}],"anonymous":false},{"type":"event","name":"NFTUnstaked","inputs":[{"name":"tokenId","type":"uint256","indexed":false,"internalType":"uint256"}],"anonymous":false},{"type":"event","name":"RaidFinished","inputs":[{"name":"tokenId","type":"uint256","indexed":false,"internalType":"uint256"},{"name":"hiveId","type":"uint256","indexed":false,"internalType":"uint256"},{"name":"honey","type":"uint256","indexed":false,"internalType":"uint256"},{"name":"productivityEarned","type":"uint256","indexed":false,"internalType":"uint256"},{"name":"experienceEarned","type":"uint256","indexed":false,"internalType":"uint256"}],"anonymous":false},{"type":"event","name":"ResourcesCollected","inputs":[{"name":"tokenId","type":"uint256","indexed":false,"internalType":"uint256"},{"name":"hiveId","type":"uint256","indexed":false,"internalType":"uint256"},{"name":"nectarGathered","type":"uint256","indexed":false,"internalType":"uint256"},{"name":"pollenGathered","type":"uint256","indexed":false,"internalType":"uint256"},{"name":"sapGathered","type":"uint256","indexed":false,"internalType":"uint256"},{"name":"sharedNectar","type":"uint256","indexed":false,"internalType":"uint256"},{"name":"sharedPollen","type":"uint256","indexed":false,"internalType":"uint256"},{"name":"sharedSap","type":"uint256","indexed":false,"internalType":"uint256"}],"anonymous":false},{"type":"event","name":"UpgradeBeeSkillSucceed","inputs":[{"name":"hiveId","type":"uint256","indexed":false,"internalType":"uint256"},{"name":"tokenId","type":"uint256","indexed":false,"internalType":"uint256"},{"name":"beeSkills","type":"uint8","indexed":false,"internalType":"enum HiveManager.BeeSkills"}],"anonymous":false},{"type":"error","name":"BeeAlreadyInAction","inputs":[]},{"type":"error","name":"BeeAlreadyStaked","inputs":[]},{"type":"error","name":"BeeMustBeOutsideHive","inputs":[]},{"type":"error","name":"BeeNotInHive","inputs":[]},{"type":"error","name":"HabitatNotExists","inputs":[]},{"type":"error","name":"HiveNotExists","inputs":[]},{"type":"error","name":"HiveOnly","inputs":[]},{"type":"error","name":"InsufficientEnergy","inputs":[]},{"type":"error","name":"InsufficientHealth","inputs":[]},{"type":"error","name":"InsufficientHoney","inputs":[]},{"type":"error","name":"InsufficientNectarForUpgrade","inputs":[]},{"type":"error","name":"InsufficientPollenForUpgrade","inputs":[]},{"type":"error","name":"InsufficientSap","inputs":[]},{"type":"error","name":"InsufficientSapForUpgrade","inputs":[]},{"type":"error","name":"InvalidInitialization","inputs":[]},{"type":"error","name":"InvalidNFTType","inputs":[]},{"type":"error","name":"MaxQueenReached","inputs":[]},{"type":"error","name":"MaxWorkerReached","inputs":[]},{"type":"error","name":"NoHoneyToCollect","inputs":[]},{"type":"error","name":"NoQueenBee","inputs":[]},{"type":"error","name":"NotBeeOwner","inputs":[]},{"type":"error","name":"NotEnoughNectarToCollect","inputs":[]},{"type":"error","name":"NotInitializing","inputs":[]}],"bytecode":{"object":"0x6080604052348015600f57600080fd5b50615c538061001f6000396000f3fe608060405234801561001057600080fd5b50600436106101425760003560e01c80637f7cfc11116100b85780639fe6c1361161007c5780639fe6c136146104cb578063a0dd51ee146104de578063bd859584146104f1578063c4d66de8146104fa578063c56381fb1461050d578063f85ad4c41461052057600080fd5b80637f7cfc111461045457806386dd0b1214610467578063921ca4b11461047a578063941837d6146104a55780639f16a90e146104b857600080fd5b8063366399251161010a57806336639925146103025780633b42adee146103235780633c3775471461032c5780634272df5414610335578063539528fa146103735780637df140461461038657600080fd5b80630f395f301461014757806311e872f31461015c578063150b7a02146102285780631ca74d9b1461026057806333301a9d14610273575b600080fd5b61015a610155366004615664565b610533565b005b6101ca61016a366004615686565b600160205280600052604060002060009150905080600001549080600101549080600201549080600301549080600401549080600501549080600601549080600701549080600801549080600901549080600a01549080600b015490508c565b604080519c8d5260208d019b909b52998b019890985260608a0196909652608089019490945260a088019290925260c087015260e0860152610100850152610120840152610140830152610160820152610180015b60405180910390f35b6102476102363660046156b7565b630a85bd0160e11b95945050505050565b6040516001600160e01b0319909116815260200161021f565b61015a61026e366004615756565b610ad8565b6102cb610281366004615664565b600360208181526000938452604080852090915291835291208054600182015460028301549383015460048401546005909401546001600160a01b03909316949193919290919086565b604080516001600160a01b0390971687526020870195909552938501929092526060840152608083015260a082015260c00161021f565b610315610310366004615686565b610ff3565b60405190815260200161021f565b61031561038481565b61031560005481565b610363610343366004615664565b600260209081526000928352604080842090915290825290205460ff1681565b604051901515815260200161021f565b61015a610381366004615664565b61126e565b610439610394366004615686565b600081815260016020818152604092839020835161018081018552815481529281015491830191909152600281015492820192909252600382015460608201819052600483015460808301819052600584015460a08401819052600685015460c0850152600785015460e085015260088501546101008501526009850154610120850152600a850154610140850152600b909401546101609093019290925293909250565b6040805193845260208401929092529082015260600161021f565b61015a610462366004615686565b6117c1565b61015a610475366004615799565b6119d8565b60045461048d906001600160a01b031681565b6040516001600160a01b03909116815260200161021f565b61015a6104b3366004615664565b61205f565b61015a6104c6366004615799565b61274f565b61015a6104d9366004615664565b612ebe565b6103156104ec366004615664565b61311f565b61031561271081565b61015a6105083660046157c5565b61343d565b61031561051b366004615686565b61355b565b61015a61052e366004615664565b6135a3565b60008281526002602090815260408083208484529091529020548290829060ff1615610572576040516380345f6960e01b815260040160405180910390fd5b60008281526002602090815260408083208484528252808320805460ff191660011790558683526003825280832086845290915290208054336001600160a01b03909116146105d45760405163ba18ada560e01b815260040160405180910390fd5b6000858152600160208190526040822090810154909103610608576040516333d6d53f60e21b815260040160405180910390fd5b6000600460009054906101000a90046001600160a01b03166001600160a01b03166398194f886040518163ffffffff1660e01b8152600401602060405180830381865afa15801561065d573d6000803e3d6000fd5b505050506040513d601f19601f8201168201806040525081019061068191906157e2565b90506000600460009054906101000a90046001600160a01b03166001600160a01b031663834e679c6040518163ffffffff1660e01b8152600401602060405180830381865afa1580156106d8573d6000803e3d6000fd5b505050506040513d601f19601f820116820180604052508101906106fc91906157e2565b9050610707886137f7565b6000610713898961311f565b90508060000361073657604051635204d81560e11b815260040160405180910390fd5b60405163f3c86ff560e01b8152600481018990526000906001600160a01b0384169063f3c86ff59060240161018060405180830381865afa15801561077f573d6000803e3d6000fd5b505050506040513d601f19601f820116820180604052508101906107a39190615870565b9050600081610120015190506000600460009054906101000a90046001600160a01b03166001600160a01b0316636cfe8a9f6040518163ffffffff1660e01b8152600401602060405180830381865afa158015610804573d6000803e3d6000fd5b505050506040513d601f19601f8201168201806040525081019061082891906157e2565b9050806001600160a01b031663265670e76040518163ffffffff1660e01b8152600401602060405180830381865afa158015610868573d6000803e3d6000fd5b505050506040513d601f19601f8201168201806040525081019061088c919061590f565b8210156108af576040516001625d3bd160e11b0319815260040160405180910390fd5b60006108bf8c8a60050154613aec565b905060008960030154826108d3919061593e565b9050438a6005018190555060008a600301819055508089600a0160008282546108fc9190615951565b92505081905550858960080160008282546109179190615951565b92505081905550826001600160a01b031663265670e76040518163ffffffff1660e01b8152600401602060405180830381865afa15801561095c573d6000803e3d6000fd5b505050506040513d601f19601f82011682018060405250810190610980919061590f565b85610120018181516109929190615951565b91508181525050866001600160a01b0316639453b45b8f8f886040518463ffffffff1660e01b81526004016109c993929190615964565b600060405180830381600087803b1580156109e357600080fd5b505af11580156109f7573d6000803e3d6000fd5b50506040516361e70e8360e11b8152336004820152602481018990526001600160a01b038b16925063c3ce1d069150604401600060405180830381600087803b158015610a4357600080fd5b505af1158015610a57573d6000803e3d6000fd5b505050507f6d06c4d4d29be816be01453146f1f931724dc8741dd6b5fc76fde44795999b0a8d8f88604051610a9f939291909283526020830191909152604082015260600190565b60405180910390a15050506000988952505060026020908152604080892097895296905250505091909220805460ff1916905550505050565b60008481526002602090815260408083208684529091529020548490849060ff1615610b17576040516380345f6960e01b815260040160405180910390fd5b60008281526002602090815260408083208484528252808320805460ff191660011790558883526003825280832088845290915290208054336001600160a01b0390911614610b795760405163ba18ada560e01b815260040160405180910390fd5b6000600460009054906101000a90046001600160a01b03166001600160a01b031663834e679c6040518163ffffffff1660e01b8152600401602060405180830381865afa158015610bce573d6000803e3d6000fd5b505050506040513d601f19601f82011682018060405250810190610bf291906157e2565b604051631a02cc7b60e01b8152600481018a9052602481018990529091506001600160a01b03821690631a02cc7b90604401600060405180830381600087803b158015610c3e57600080fd5b505af1158015610c52573d6000803e3d6000fd5b50505050610c5f886137f7565b604051633692c2cd60e21b8152600481018890526001600160a01b0382169063da4b0b3490602401600060405180830381600087803b158015610ca157600080fd5b505af1158015610cb5573d6000803e3d6000fd5b505060405163f3c86ff560e01b8152600481018a9052600092506001600160a01b038416915063f3c86ff59060240161018060405180830381865afa158015610d02573d6000803e3d6000fd5b505050506040513d601f19601f82011682018060405250810190610d269190615870565b90506000600460009054906101000a90046001600160a01b03166001600160a01b0316636cfe8a9f6040518163ffffffff1660e01b8152600401602060405180830381865afa158015610d7d573d6000803e3d6000fd5b505050506040513d601f19601f82011682018060405250810190610da191906157e2565b6001600160a01b031663e1d7520b6040518163ffffffff1660e01b8152600401602060405180830381865afa158015610dde573d6000803e3d6000fd5b505050506040513d601f19601f82011682018060405250810190610e02919061590f565b90508082600001511015610e29576040516340bdb3cd60e11b815260040160405180910390fd5b610e34888389613d7b565b91508082600001818151610e489190615951565b9052506004805460408051636cfe8a9f60e01b815290516001600160a01b0390921692636cfe8a9f9282820192602092908290030181865afa158015610e92573d6000803e3d6000fd5b505050506040513d601f19601f82011682018060405250810190610eb691906157e2565b6001600160a01b031663ecec50766040518163ffffffff1660e01b8152600401602060405180830381865afa158015610ef3573d6000803e3d6000fd5b505050506040513d601f19601f82011682018060405250810190610f17919061590f565b8260e001818151610f28919061593e565b905250604051639453b45b60e01b81526001600160a01b03841690639453b45b90610f5b908d908d908790600401615964565b600060405180830381600087803b158015610f7557600080fd5b505af1158015610f89573d6000803e3d6000fd5b505050507fcf93967278cae3bbeb5cd14193ed467d4f453e6698a317035f2926c8963fe4908a8a8a604051610fc093929190615a1f565b60405180910390a15050506000928352506002602090815260408084209284529190529020805460ff1916905550505050565b60008181526001602081815260408084208151610180810183528154815293810154928401929092526002820154908301526003810154606083015260048101546080830152600581015460a0830152600681015460c0830152600781015460e0830152600881015461010083015260098101546101208301819052600a820154610140840152600b90910154610160830152431161109757610100015192915050565b6000600460009054906101000a90046001600160a01b03166001600160a01b0316636cfe8a9f6040518163ffffffff1660e01b8152600401602060405180830381865afa1580156110ec573d6000803e3d6000fd5b505050506040513d601f19601f8201168201806040525081019061111091906157e2565b9050600061111d8561355b565b90506000826001600160a01b031663b9e59a076040518163ffffffff1660e01b8152600401602060405180830381865afa15801561115f573d6000803e3d6000fd5b505050506040513d601f19601f82011682018060405250810190611183919061590f565b905060006103848561012001514361119b9190615951565b6111a59190615a6f565b9050806000036111be5750505050610100015192915050565b6000612710856001600160a01b031663477e8c416040518163ffffffff1660e01b8152600401602060405180830381865afa158015611201573d6000803e3d6000fd5b505050506040513d601f19601f82011682018060405250810190611225919061590f565b61122f8686615a83565b6112399190615a83565b6112439190615a6f565b905060006112518383615a83565b876101000151611261919061593e565b9998505050505050505050565b6000600460009054906101000a90046001600160a01b03166001600160a01b0316636cfe8a9f6040518163ffffffff1660e01b8152600401602060405180830381865afa1580156112c3573d6000803e3d6000fd5b505050506040513d601f19601f820116820180604052508101906112e791906157e2565b90506000600160008581526020019081526020016000209050816001600160a01b0316638ccf96d76040518163ffffffff1660e01b8152600401602060405180830381865afa15801561133e573d6000803e3d6000fd5b505050506040513d601f19601f82011682018060405250810190611362919061590f565b816001015410611388576040516001623dbea360e11b0319815260040160405180910390fd5b816001600160a01b031663945b61236040518163ffffffff1660e01b8152600401602060405180830381865afa1580156113c6573d6000803e3d6000fd5b505050506040513d601f19601f820116820180604052508101906113ea919061590f565b81600201541061140d576040516393c8ce4360e01b815260040160405180910390fd5b6000600460009054906101000a90046001600160a01b03166001600160a01b031663834e679c6040518163ffffffff1660e01b8152600401602060405180830381865afa158015611462573d6000803e3d6000fd5b505050506040513d601f19601f8201168201806040525081019061148691906157e2565b60405163b4dc46d960e01b8152600481018690529091506000906001600160a01b0383169063b4dc46d990602401600060405180830381865afa1580156114d1573d6000803e3d6000fd5b505050506040513d6000823e601f3d908101601f191682016040526114f99190810190615b1f565b60405163f3c86ff560e01b815260048101889052909250600091506001600160a01b0384169063f3c86ff59060240161018060405180830381865afa158015611546573d6000803e3d6000fd5b505050506040513d601f19601f8201168201806040525081019061156a9190615870565b9050611575876137f7565b61157e82613f6c565b1561159f5760018401805490600061159583615b83565b91905055506115d8565b6115a882613fc8565b156115bf5760028401805490600061159583615b83565b60405163adc1f5ed60e01b815260040160405180910390fd5b60008781526003602090815260408083208984529091529020546001600160a01b03161561161957604051636c04db0760e01b815260040160405180910390fd5b6040518060c00160405280336001600160a01b031681526020018781526020018260a00151815260200160008152602001826060015181526020014381525060036000898152602001908152602001600020600088815260200190815260200160002060008201518160000160006101000a8154816001600160a01b0302191690836001600160a01b031602179055506020820151816001015560408201518160020155606082015181600301556080820151816004015560a082015181600501559050508060a001518460060160008282546116f6919061593e565b9091555050606081015160078501805460009061171490849061593e565b9091555050604051632142170760e11b8152336004820152306024820152604481018790526001600160a01b038416906342842e0e90606401600060405180830381600087803b15801561176757600080fd5b505af115801561177b573d6000803e3d6000fd5b505050507f11658f9285ec73fac1515f3a09966dcad7880f985e458acc3c41ac5cb98fc4e8866040516117b091815260200190565b60405180910390a150505050505050565b6000600460009054906101000a90046001600160a01b03166001600160a01b031663cb6dcbb66040518163ffffffff1660e01b8152600401602060405180830381865afa158015611816573d6000803e3d6000fd5b505050506040513d601f19601f8201168201806040525081019061183a91906157e2565b90506000816001600160a01b031663eec584ef6040518163ffffffff1660e01b8152600401602060405180830381865afa15801561187c573d6000803e3d6000fd5b505050506040513d601f19601f820116820180604052508101906118a0919061590f565b90508083106118c25760405163448e246d60e01b815260040160405180910390fd5b604080516101808101825284815260006020808301828152838501838152606085018481526080860185815260a0870186815260c0880187815260e089018881526101008a01898152436101208c018181526101408d018c81526101608e019283528c54808e5260019c8d90529e8d208e5181559a519b8b019b909b55975160028a0155955160038901559351600488015591516005870155516006860155516007850155516008840155905160098301559151600a8201559051600b909101558054919291908061199383615b83565b909155505060408051828152602081018790527fbb6ddab8ab56e6c30bacf06acfacb7f6b159a7b61643cd50bfc59b99ed18d53e910160405180910390a15050505050565b60008381526002602090815260408083208584529091529020548390839060ff1615611a17576040516380345f6960e01b815260040160405180910390fd5b60008281526002602090815260408083208484528252808320805460ff191660011790558783526003825280832087845290915290208054336001600160a01b0390911614611a795760405163ba18ada560e01b815260040160405180910390fd5b611a82866137f7565b6000600460009054906101000a90046001600160a01b03166001600160a01b031663834e679c6040518163ffffffff1660e01b8152600401602060405180830381865afa158015611ad7573d6000803e3d6000fd5b505050506040513d601f19601f82011682018060405250810190611afb91906157e2565b604051633692c2cd60e21b8152600481018890529091506001600160a01b0382169063da4b0b3490602401600060405180830381600087803b158015611b4057600080fd5b505af1158015611b54573d6000803e3d6000fd5b50506040516358f9756b60e11b8152600481018990526001600160a01b038416925063b1f2ead69150602401600060405180830381600087803b158015611b9a57600080fd5b505af1158015611bae573d6000803e3d6000fd5b505050506000600460009054906101000a90046001600160a01b03166001600160a01b0316636cfe8a9f6040518163ffffffff1660e01b8152600401602060405180830381865afa158015611c07573d6000803e3d6000fd5b505050506040513d601f19601f82011682018060405250810190611c2b91906157e2565b9050611c368761401d565b6000816001600160a01b031663adfa16476040518163ffffffff1660e01b8152600401602060405180830381865afa158015611c76573d6000803e3d6000fd5b505050506040513d601f19601f82011682018060405250810190611c9a919061590f565b905080600460009054906101000a90046001600160a01b03166001600160a01b031663b3d8d0796040518163ffffffff1660e01b8152600401602060405180830381865afa158015611cf0573d6000803e3d6000fd5b505050506040513d601f19601f82011682018060405250810190611d1491906157e2565b6040516370a0823160e01b81523360048201526001600160a01b0391909116906370a0823190602401602060405180830381865afa158015611d5a573d6000803e3d6000fd5b505050506040513d601f19601f82011682018060405250810190611d7e919061590f565b1015611d9d5760405163094c287760e41b815260040160405180910390fd5b6000600460009054906101000a90046001600160a01b03166001600160a01b03166398194f886040518163ffffffff1660e01b8152600401602060405180830381865afa158015611df2573d6000803e3d6000fd5b505050506040513d601f19601f82011682018060405250810190611e1691906157e2565b60405163118b8ea160e21b8152336004820152602481018490529091506001600160a01b0382169063462e3a8490604401600060405180830381600087803b158015611e6157600080fd5b505af1158015611e75573d6000803e3d6000fd5b505050506000611e85898b6142b6565b90506000611e948c8c846145c6565b604051639453b45b60e01b81529091506001600160a01b03871690639453b45b90611ec7908f908f908690600401615964565b600060405180830381600087803b158015611ee157600080fd5b505af1158015611ef5573d6000803e3d6000fd5b505050506000600160008e8152602001908152602001600020600601548860020154876001600160a01b03166390ca23906040518163ffffffff1660e01b8152600401602060405180830381865afa158015611f55573d6000803e3d6000fd5b505050506040513d601f19601f82011682018060405250810190611f79919061590f565b611f839190615a83565b611f8d9190615a6f565b905080886003016000828254611fa3919061593e565b909155505060008d8152600160205260408120600a018054839290611fc990849061593e565b925050819055507f80765cb92b1db72bea8d07763c4fc640354115f38bd1fd3c41187c16799946b78c8e85848660e00151604051612029959493929190948552602085019390935260408401919091526060830152608082015260a00190565b60405180910390a1505050600096875250506002602090815260408087209587529490525050509020805460ff19169055505050565b60008281526003602090815260408083208484529091529020546001600160a01b031633146120a15760405163ba18ada560e01b815260040160405180910390fd5b6000600460009054906101000a90046001600160a01b03166001600160a01b031663834e679c6040518163ffffffff1660e01b8152600401602060405180830381865afa1580156120f6573d6000803e3d6000fd5b505050506040513d601f19601f8201168201806040525081019061211a91906157e2565b60405163b4dc46d960e01b8152600481018490529091506000906001600160a01b0383169063b4dc46d990602401600060405180830381865afa158015612165573d6000803e3d6000fd5b505050506040513d6000823e601f3d908101601f1916820160405261218d9190810190615b1f565b915050612199846137f7565b6000848152600160205260408120906121b2868661311f565b905080156124ec5760405163f3c86ff560e01b8152600481018690526000906001600160a01b0386169063f3c86ff59060240161018060405180830381865afa158015612203573d6000803e3d6000fd5b505050506040513d601f19601f820116820180604052508101906122279190615870565b9050600081610120015190506000600460009054906101000a90046001600160a01b03166001600160a01b0316636cfe8a9f6040518163ffffffff1660e01b8152600401602060405180830381865afa158015612288573d6000803e3d6000fd5b505050506040513d601f19601f820116820180604052508101906122ac91906157e2565b9050806001600160a01b031663265670e76040518163ffffffff1660e01b8152600401602060405180830381865afa1580156122ec573d6000803e3d6000fd5b505050506040513d601f19601f82011682018060405250810190612310919061590f565b8211156124e8576000600460009054906101000a90046001600160a01b03166001600160a01b03166398194f886040518163ffffffff1660e01b8152600401602060405180830381865afa15801561236c573d6000803e3d6000fd5b505050506040513d601f19601f8201168201806040525081019061239091906157e2565b9050848660080160008282546123a69190615951565b92505081905550816001600160a01b031663265670e76040518163ffffffff1660e01b8152600401602060405180830381865afa1580156123eb573d6000803e3d6000fd5b505050506040513d601f19601f8201168201806040525081019061240f919061590f565b84610120018181516124219190615951565b905250604051639453b45b60e01b81526001600160a01b03891690639453b45b90612454908d908d908990600401615964565b600060405180830381600087803b15801561246e57600080fd5b505af1158015612482573d6000803e3d6000fd5b50506040516361e70e8360e11b8152336004820152602481018890526001600160a01b038416925063c3ce1d069150604401600060405180830381600087803b1580156124ce57600080fd5b505af11580156124e2573d6000803e3d6000fd5b50505050505b5050505b6124f583613f6c565b156125165760018201805490600061250c83615b9c565b919050555061253c565b61251f83613fc8565b1561253c5760028201805490600061253683615b9c565b91905055505b60008681526003602090815260408083208884529091528120600201546006840180549192909161256e908490615951565b90915550506000868152600360208181526040808420898552909152909120908101546005909101546125a2908790613aec565b83600a01546125b19190615951565b6125bb9190615951565b600a8301556000868152600360209081526040808320888452909152812060040154600784018054919290916125f2908490615951565b9091555050600682015415801561260d575060008260080154115b1561262057436009830155600060088301555b6040805160c08101825260008082526020808301828152838501838152606085018481526080860185815260a087018681528e875260038087528988208f895290965295889020965187546001600160a01b0319166001600160a01b0391821617885593516001880155915160028701555192850192909255905160048085019190915591516005909301929092559151632142170760e11b81523092810192909252336024830152604482018790528516906342842e0e90606401600060405180830381600087803b1580156126f657600080fd5b505af115801561270a573d6000803e3d6000fd5b505050507f16700825aa6607ffefaeb83e81057f12d39f973a5e078e2b5244155224c56b8a8560405161273f91815260200190565b60405180910390a1505050505050565b60008381526002602090815260408083208584529091529020548390839060ff161561278e576040516380345f6960e01b815260040160405180910390fd5b60008281526002602090815260408083208484528252808320805460ff191660011790558783526003825280832087845290915290208054336001600160a01b03909116146127f05760405163ba18ada560e01b815260040160405180910390fd5b6127f9866137f7565b6000600460009054906101000a90046001600160a01b03166001600160a01b031663834e679c6040518163ffffffff1660e01b8152600401602060405180830381865afa15801561284e573d6000803e3d6000fd5b505050506040513d601f19601f8201168201806040525081019061287291906157e2565b90506000600460009054906101000a90046001600160a01b03166001600160a01b0316636cfe8a9f6040518163ffffffff1660e01b8152600401602060405180830381865afa1580156128c9573d6000803e3d6000fd5b505050506040513d601f19601f820116820180604052508101906128ed91906157e2565b90506000600460009054906101000a90046001600160a01b03166001600160a01b031663cb6dcbb66040518163ffffffff1660e01b8152600401602060405180830381865afa158015612944573d6000803e3d6000fd5b505050506040513d601f19601f8201168201806040525081019061296891906157e2565b6001600160a01b031663e79cd7ec886040518263ffffffff1660e01b815260040161299591815260200190565b602060405180830381865afa1580156129b2573d6000803e3d6000fd5b505050506040513d601f19601f820116820180604052508101906129d6919061590f565b604051633692c2cd60e21b8152600481018a90529091506001600160a01b0384169063da4b0b3490602401600060405180830381600087803b158015612a1b57600080fd5b505af1158015612a2f573d6000803e3d6000fd5b505060405163f3c86ff560e01b8152600481018b90528392506001600160a01b038616915063f3c86ff59060240161018060405180830381865afa158015612a7b573d6000803e3d6000fd5b505050506040513d601f19601f82011682018060405250810190612a9f9190615870565b511015612abf576040516340bdb3cd60e11b815260040160405180910390fd5b6040516339483df760e21b8152600481018a9052602481018990526001600160a01b0384169063e520f7dc90604401600060405180830381600087803b158015612b0857600080fd5b505af1158015612b1c573d6000803e3d6000fd5b505060405163f3c86ff560e01b8152600481018b9052600092506001600160a01b038616915063f3c86ff59060240161018060405180830381865afa158015612b69573d6000803e3d6000fd5b505050506040513d601f19601f82011682018060405250810190612b8d9190615870565b9050612b9b8a8a8a84614c57565b90508181600001818151612baf9190615951565b91508181525050826001600160a01b031663166ce7456040518163ffffffff1660e01b8152600401602060405180830381865afa158015612bf4573d6000803e3d6000fd5b505050506040513d601f19601f82011682018060405250810190612c18919061590f565b8160e001818151612c29919061593e565b905250604051639453b45b60e01b81526001600160a01b03851690639453b45b90612c5c908d908d908690600401615964565b600060405180830381600087803b158015612c7657600080fd5b505af1158015612c8a573d6000803e3d6000fd5b505050506000600460009054906101000a90046001600160a01b03166001600160a01b031663cb6dcbb66040518163ffffffff1660e01b8152600401602060405180830381865afa158015612ce3573d6000803e3d6000fd5b505050506040513d601f19601f82011682018060405250810190612d0791906157e2565b6001600160a01b031663f023f4f68a6040518263ffffffff1660e01b8152600401612d3491815260200190565b602060405180830381865afa158015612d51573d6000803e3d6000fd5b505050506040513d601f19601f82011682018060405250810190612d75919061590f565b60008c81526001602052604081206006015460028901549293509091612d9b9084615a83565b612da59190615a6f565b905080876003016000828254612dbb919061593e565b909155505060008c8152600160205260408120600a018054839290612de190849061593e565b925050819055507f9d4f619ceec9c93db24206e1c14b20a07dad59253f952004854eae5a69f96c2d8b8d83886001600160a01b031663166ce7456040518163ffffffff1660e01b8152600401602060405180830381865afa158015612e4a573d6000803e3d6000fd5b505050506040513d601f19601f82011682018060405250810190612e6e919061590f565b60408051948552602085019390935291830152606082015260800160405180910390a15050506000958652505060026020908152604080862094865293905250509020805460ff19169055505050565b6000600460009054906101000a90046001600160a01b03166001600160a01b031663834e679c6040518163ffffffff1660e01b8152600401602060405180830381865afa158015612f13573d6000803e3d6000fd5b505050506040513d601f19601f82011682018060405250810190612f3791906157e2565b90506000548310612f5b576040516330a5934760e11b815260040160405180910390fd5b6040516331a9108f60e11b81526004810183905230906001600160a01b03831690636352211e90602401602060405180830381865afa158015612fa2573d6000803e3d6000fd5b505050506040513d601f19601f82011682018060405250810190612fc691906157e2565b6001600160a01b031614158015612ffd575060008381526003602090815260408083208584529091529020546001600160a01b0316155b1561301b576040516371fa4c1160e01b815260040160405180910390fd5b60405163f3c86ff560e01b8152600481018390526000906001600160a01b0383169063f3c86ff59060240161018060405180830381865afa158015613064573d6000803e3d6000fd5b505050506040513d601f19601f820116820180604052508101906130889190615870565b600085815260036020908152604080832087845282528083206002015488845260019092528220600601805493945090929091906130c7908490615951565b909155505060a0810151600085815260036020908152604080832087845282528083206002019390935560608401518783526001909152918120600701805490919061311490849061593e565b909155505050505050565b60008281526001602081815260408084208151610180810183528154815293810154928401929092526002820154908301526003810154606083015260048101546080830152600581015460a0830152600681015460c0830152600781015460e083015260088101546101008301526009810154610120830152600a810154610140830152600b0154610160820152816131b885610ff3565b60008681526003602090815260408083208884529091529020600501549091508015806131e7575060c0830151155b156131f85760009350505050613437565b6000600460009054906101000a90046001600160a01b03166001600160a01b0316636cfe8a9f6040518163ffffffff1660e01b8152600401602060405180830381865afa15801561324d573d6000803e3d6000fd5b505050506040513d601f19601f8201168201806040525081019061327191906157e2565b905043821180156132eb5750806001600160a01b03166387063ead6040518163ffffffff1660e01b8152600401602060405180830381865afa1580156132bb573d6000803e3d6000fd5b505050506040513d601f19601f820116820180604052508101906132df919061590f565b6132e98343615951565b105b156132fd576000945050505050613437565b6000610384856101600151436133139190615951565b61331d9190615a6f565b90506000856020015160026133329190615a83565b8660400151613341919061593e565b82846001600160a01b0316631ffc45a36040518163ffffffff1660e01b8152600401602060405180830381865afa158015613380573d6000803e3d6000fd5b505050506040513d601f19601f820116820180604052508101906133a4919061590f565b6133ae9190615a83565b6133b89190615a83565b90506000866101400151826133cd919061593e565b9050806000036133e7576000975050505050505050613437565b60008a81526003602081815260408084208d855290915282200154829061340e8c89613aec565b613418919061593e565b6134229089615a83565b61342c9190615a6f565b985050505050505050505b92915050565b7ff0c57e16840df040f15088dc2f81fe391c3923bec73e23a9662efc9c229c6a008054600160401b810460ff16159067ffffffffffffffff166000811580156134835750825b905060008267ffffffffffffffff1660011480156134a05750303b155b9050811580156134ae575080155b156134cc5760405163f92ee8a960e01b815260040160405180910390fd5b845467ffffffffffffffff1916600117855583156134f657845460ff60401b1916600160401b1785555b600480546001600160a01b0319166001600160a01b038816179055831561355357845460ff60401b19168555604051600181527fc7f505b2f371ae2175ee4913f4499e1f2633a7b5936321eed1cdaeb6115181d29060200161273f565b505050505050565b6000806135678361501c565b90506127106135768282615a83565b6135809190615a6f565b60008481526001602052604090206006015461359c919061593e565b9392505050565b6000600460009054906101000a90046001600160a01b03166001600160a01b031663834e679c6040518163ffffffff1660e01b8152600401602060405180830381865afa1580156135f8573d6000803e3d6000fd5b505050506040513d601f19601f8201168201806040525081019061361c91906157e2565b90506000548310613640576040516330a5934760e11b815260040160405180910390fd5b6040516331a9108f60e11b81526004810183905230906001600160a01b03831690636352211e90602401602060405180830381865afa158015613687573d6000803e3d6000fd5b505050506040513d601f19601f820116820180604052508101906136ab91906157e2565b6001600160a01b0316141580156136e2575060008381526003602090815260408083208584529091529020546001600160a01b0316155b15613700576040516371fa4c1160e01b815260040160405180910390fd5b60405163f3c86ff560e01b8152600481018390526000906001600160a01b0383169063f3c86ff59060240161018060405180830381865afa158015613749573d6000803e3d6000fd5b505050506040513d601f19601f8201168201806040525081019061376d9190615870565b600085815260036020908152604080832087845282528083206004015488845260019092528220600701805493945090929091906137ac908490615951565b9091555050606081018051600086815260036020908152604080832088845282528083206004019390935592518782526001909352908120600701805490919061311490849061593e565b600081815260016020526040902060098101544311613814575050565b806006015460000361382a574360099091015550565b6000600460009054906101000a90046001600160a01b03166001600160a01b0316636cfe8a9f6040518163ffffffff1660e01b8152600401602060405180830381865afa15801561387f573d6000803e3d6000fd5b505050506040513d601f19601f820116820180604052508101906138a391906157e2565b905060006138b08461355b565b90506000826001600160a01b031663b9e59a076040518163ffffffff1660e01b8152600401602060405180830381865afa1580156138f2573d6000803e3d6000fd5b505050506040513d601f19601f82011682018060405250810190613916919061590f565b9050600061038485600901544361392d9190615951565b6139379190615a6f565b9050600061038486600b01544361394e9190615951565b6139589190615a6f565b905081158015613966575080155b156139745750505050505050565b6000612710866001600160a01b031663477e8c416040518163ffffffff1660e01b8152600401602060405180830381865afa1580156139b7573d6000803e3d6000fd5b505050506040513d601f19601f820116820180604052508101906139db919061590f565b6139e58787615a83565b6139ef9190615a83565b6139f99190615a6f565b9050613a058382615a83565b876008016000828254613a18919061593e565b90915550506001870154600090613a30906002615a83565b8860020154613a3f919061593e565b83886001600160a01b0316631ffc45a36040518163ffffffff1660e01b8152600401602060405180830381865afa158015613a7e573d6000803e3d6000fd5b505050506040513d601f19601f82011682018060405250810190613aa2919061590f565b613aac9190615a83565b613ab69190615a83565b90508088600a016000828254613acc919061593e565b90915550504360098901819055600b909801979097555050505050505050565b600080610384613afc8443615951565b613b069190615a6f565b90506000600460009054906101000a90046001600160a01b03166001600160a01b031663834e679c6040518163ffffffff1660e01b8152600401602060405180830381865afa158015613b5d573d6000803e3d6000fd5b505050506040513d601f19601f82011682018060405250810190613b8191906157e2565b60405163b4dc46d960e01b8152600481018790529091506000906001600160a01b0383169063b4dc46d990602401600060405180830381865afa158015613bcc573d6000803e3d6000fd5b505050506040513d6000823e601f3d908101601f19168201604052613bf49190810190615b1f565b915050600080600460009054906101000a90046001600160a01b03166001600160a01b0316636cfe8a9f6040518163ffffffff1660e01b8152600401602060405180830381865afa158015613c4d573d6000803e3d6000fd5b505050506040513d601f19601f82011682018060405250810190613c7191906157e2565b9050613c7c83613f6c565b15613d005784816001600160a01b0316631ffc45a36040518163ffffffff1660e01b8152600401602060405180830381865afa158015613cc0573d6000803e3d6000fd5b505050506040513d601f19601f82011682018060405250810190613ce4919061590f565b613cee9190615a83565b613cf9906002615a83565b9150613d70565b84816001600160a01b0316631ffc45a36040518163ffffffff1660e01b8152600401602060405180830381865afa158015613d3f573d6000803e3d6000fd5b505050506040513d601f19601f82011682018060405250810190613d63919061590f565b613d6d9190615a83565b91505b509695505050505050565b613d83615603565b60008080866004811115613d9957613d99615a09565b03613dbd5760408501519150613daf848361593e565b604086018190529050613e92565b6001866004811115613dd157613dd1615a09565b03613df55760608501519150613de7848361593e565b606086018190529050613e92565b6003866004811115613e0957613e09615a09565b03613e265784519150613e1c848361593e565b8086529050613e92565b6002866004811115613e3a57613e3a615a09565b03613e5e5760208501519150613e50848361593e565b602086018190529050613e92565b6004866004811115613e7257613e72615a09565b03613e925760808501519150613e88848361593e565b6080860181905290505b6000806000613ea1858561511b565b925092509250828861012001511015613ecd576040516303edb35160e51b815260040160405180910390fd5b818861014001511015613ef3576040516333dd9df360e11b815260040160405180910390fd5b808861016001511015613f19576040516305b9e42f60e41b815260040160405180910390fd5b828861012001818151613f2c9190615951565b90525061014088018051839190613f44908390615951565b90525061016088018051829190613f5c908390615951565b9052509698975050505050505050565b60408051808201909152600581526428bab2b2b760d91b6020918201528151908201206000907ff5f8b21b0fa04f095084b55cc0d7bec4c709a5487f7a1da6ff7c117a2c3f69a501613fc057506001919050565b506000919050565b6040805180820190915260068152652bb7b935b2b960d11b6020918201528151908201206000907f165d4acabed7e70189f8367d5581798fe7782887dab4b20298287a6d308210a401613fc057506001919050565b6000600460009054906101000a90046001600160a01b03166001600160a01b031663834e679c6040518163ffffffff1660e01b8152600401602060405180830381865afa158015614072573d6000803e3d6000fd5b505050506040513d601f19601f8201168201806040525081019061409691906157e2565b6001600160a01b031663f3c86ff5836040518263ffffffff1660e01b81526004016140c391815260200190565b61018060405180830381865afa1580156140e1573d6000803e3d6000fd5b505050506040513d601f19601f820116820180604052508101906141059190615870565b90506000600460009054906101000a90046001600160a01b03166001600160a01b0316636cfe8a9f6040518163ffffffff1660e01b8152600401602060405180830381865afa15801561415c573d6000803e3d6000fd5b505050506040513d601f19601f8201168201806040525081019061418091906157e2565b9050806001600160a01b031663c688e25d6040518163ffffffff1660e01b8152600401602060405180830381865afa1580156141c0573d6000803e3d6000fd5b505050506040513d601f19601f820116820180604052508101906141e4919061590f565b826101600151101561420957604051630396460960e61b815260040160405180910390fd5b816020015160000361422e576040516323131deb60e01b815260040160405180910390fd5b806001600160a01b03166314f97f3a6040518163ffffffff1660e01b8152600401602060405180830381865afa15801561426c573d6000803e3d6000fd5b505050506040513d601f19601f82011682018060405250810190614290919061590f565b825110156142b1576040516340bdb3cd60e11b815260040160405180910390fd5b505050565b60008281526003602090815260408083208484529091528120546001600160a01b0316156142f75760405163f305a0c160e01b815260040160405180910390fd5b614300836137f7565b60008381526001602090815260408083206004805483516320d399e760e21b815293519295946001600160a01b039091169363834e679c938184019390918290030181865afa158015614357573d6000803e3d6000fd5b505050506040513d601f19601f8201168201806040525081019061437b91906157e2565b60405163f3c86ff560e01b8152600481018690529091506000906001600160a01b0383169063f3c86ff59060240161018060405180830381865afa1580156143c7573d6000803e3d6000fd5b505050506040513d601f19601f820116820180604052508101906143eb9190615870565b905060006143f761532c565b905060006144048861537a565b905060008284604001516144189190615a83565b9050600082876007015461442c9190615a83565b90506000818311156145b85760006144438c610ff3565b905060006144508d615406565b90506000600460009054906101000a90046001600160a01b03166001600160a01b0316636cfe8a9f6040518163ffffffff1660e01b8152600401602060405180830381865afa1580156144a7573d6000803e3d6000fd5b505050506040513d601f19601f820116820180604052508101906144cb91906157e2565b90506144d961271080615a83565b60808a01516144e89085615a83565b6144f3906064615a83565b6144fd9190615a6f565b61271083836001600160a01b031663b6d075756040518163ffffffff1660e01b8152600401602060405180830381865afa15801561453f573d6000803e3d6000fd5b505050506040513d601f19601f82011682018060405250810190614563919061590f565b61456d9190615a83565b61457990612710615a83565b6145839190615a6f565b61458d919061593e565b93508284111561459b578293505b838b60080160008282546145af9190615951565b90915550505050505b9a9950505050505050505050565b6145ce615603565b6000600460009054906101000a90046001600160a01b03166001600160a01b031663834e679c6040518163ffffffff1660e01b8152600401602060405180830381865afa158015614623573d6000803e3d6000fd5b505050506040513d601f19601f8201168201806040525081019061464791906157e2565b90506000600460009054906101000a90046001600160a01b03166001600160a01b0316636cfe8a9f6040518163ffffffff1660e01b8152600401602060405180830381865afa15801561469e573d6000803e3d6000fd5b505050506040513d601f19601f820116820180604052508101906146c291906157e2565b90506000816001600160a01b03166316b24c0b6040518163ffffffff1660e01b8152600401602060405180830381865afa158015614704573d6000803e3d6000fd5b505050506040513d601f19601f82011682018060405250810190614728919061590f565b60405163256e83a560e21b815260048101899052602481018890529091506001600160a01b038416906395ba0e9490604401600060405180830381600087803b15801561477457600080fd5b505af1158015614788573d6000803e3d6000fd5b505050506000851115614a3857604051630f04994960e41b815260048101889052602481018790526001600160a01b0384169063f049949090604401600060405180830381600087803b1580156147de57600080fd5b505af11580156147f2573d6000803e3d6000fd5b505060405163f3c86ff560e01b8152600481018990526001600160a01b038616925063f3c86ff5915060240161018060405180830381865afa15801561483c573d6000803e3d6000fd5b505050506040513d601f19601f820116820180604052508101906148609190615870565b9350808460200151101561487a5760006020850152614890565b808460200181815161488c9190615951565b9052505b60006127106148a1876101f4615a83565b6148ab9190615a6f565b905080600160008a815260200190815260200160002060080160008282546148d3919061593e565b92505081905550826001600160a01b03166337a11a636040518163ffffffff1660e01b8152600401602060405180830381865afa158015614918573d6000803e3d6000fd5b505050506040513d601f19601f8201168201806040525081019061493c919061590f565b8560e00181815161494d919061593e565b905250600480546040805163130329f160e31b815290516001600160a01b03909216926398194f889282820192602092908290030181865afa158015614997573d6000803e3d6000fd5b505050506040513d601f19601f820116820180604052508101906149bb91906157e2565b6001600160a01b031663c3ce1d06336149d4848a615951565b6040516001600160e01b031960e085901b1681526001600160a01b0390921660048301526024820152604401600060405180830381600087803b158015614a1a57600080fd5b505af1158015614a2e573d6000803e3d6000fd5b5050505050614bd5565b60405163f3c86ff560e01b8152600481018790526001600160a01b0384169063f3c86ff59060240161018060405180830381865afa158015614a7e573d6000803e3d6000fd5b505050506040513d601f19601f82011682018060405250810190614aa29190615870565b9350614aaf816002615a83565b84602001511015614ac65760006020850152614ae6565b614ad1816002615a83565b84602001818151614ae29190615951565b9052505b816001600160a01b03166314f97f3a6040518163ffffffff1660e01b8152600401602060405180830381865afa158015614b24573d6000803e3d6000fd5b505050506040513d601f19601f82011682018060405250810190614b48919061590f565b84518590614b57908390615951565b91508181525050816001600160a01b031663c8a933366040518163ffffffff1660e01b8152600401602060405180830381865afa158015614b9c573d6000803e3d6000fd5b505050506040513d601f19601f82011682018060405250810190614bc0919061590f565b8460e001818151614bd1919061593e565b9052505b816001600160a01b031663c688e25d6040518163ffffffff1660e01b8152600401602060405180830381865afa158015614c13573d6000803e3d6000fd5b505050506040513d601f19601f82011682018060405250810190614c37919061590f565b8461016001818151614c499190615951565b905250929695505050505050565b614c5f615603565b60008581526001602090815260408083206004805483516365b6e5db60e11b81529351929594859485946001600160a01b039093169363cb6dcbb69382820193929091908290030181865afa158015614cbc573d6000803e3d6000fd5b505050506040513d601f19601f82011682018060405250810190614ce091906157e2565b604051631c1b5bbd60e21b8152600481018a9052602481018990526001600160a01b03919091169063706d6ef4906044016060604051808303816000875af1158015614d30573d6000803e3d6000fd5b505050506040513d601f19601f82011682018060405250810190614d549190615bb3565b9250925092506000600460009054906101000a90046001600160a01b03166001600160a01b0316636cfe8a9f6040518163ffffffff1660e01b8152600401602060405180830381865afa158015614daf573d6000803e3d6000fd5b505050506040513d601f19601f82011682018060405250810190614dd391906157e2565b6001600160a01b0316637f50b6fd6040518163ffffffff1660e01b8152600401602060405180830381865afa158015614e10573d6000803e3d6000fd5b505050506040513d601f19601f82011682018060405250810190614e34919061590f565b905060006001612710614e478488615a83565b614e519190615a6f565b10614e7257612710614e638387615a83565b614e6d9190615a6f565b614e75565b60015b905060006001612710614e888588615a83565b614e929190615a6f565b10614eb357612710614ea48487615a83565b614eae9190615a6f565b614eb6565b60015b905060006001612710614ec98688615a83565b614ed39190615a6f565b10614ef457612710614ee58587615a83565b614eef9190615a6f565b614ef7565b60015b905082886003016000828254614f0d919061593e565b9250508190555081886004016000828254614f28919061593e565b9250508190555080886005016000828254614f43919061593e565b90915550614f5390508388615951565b8a61012001818151614f65919061593e565b905250614f728287615951565b8a61014001818151614f84919061593e565b905250614f918186615951565b8a61016001818151614fa3919061593e565b905250604080518d8152602081018f9052908101889052606081018790526080810186905260a0810184905260c0810183905260e081018290527fa54621cf6b339317c8ab45897d4f0daf472c6f89cc8e9448ae9528c7160ff87f906101000160405180910390a150979b9a5050505050505050505050565b60008181526001602081815260408084208151610180810183528154815293810154928401929092526002820154908301526003810154606083015260048101546080830152600581015460a08301819052600682015460c0840152600782015460e084015260088201546101008401526009820154610120840152600a820154610140840152600b90910154610160830152612710906150bf90611388615a83565b6150c99190615a6f565b6127108260800151610bb86150de9190615a83565b6150e89190615a6f565b61271083606001516107d06150fd9190615a83565b6151079190615a6f565b615111919061593e565b61359c919061593e565b600080600080600460009054906101000a90046001600160a01b03166001600160a01b0316636cfe8a9f6040518163ffffffff1660e01b8152600401602060405180830381865afa158015615174573d6000803e3d6000fd5b505050506040513d601f19601f8201168201806040525081019061519891906157e2565b90506000816001600160a01b031663d0a462616040518163ffffffff1660e01b8152600401602060405180830381865afa1580156151da573d6000803e3d6000fd5b505050506040513d601f19601f820116820180604052508101906151fe919061590f565b90506000826001600160a01b031663911650456040518163ffffffff1660e01b8152600401602060405180830381865afa158015615240573d6000803e3d6000fd5b505050506040513d601f19601f82011682018060405250810190615264919061590f565b90506000836001600160a01b031663f82f0e426040518163ffffffff1660e01b8152600401602060405180830381865afa1580156152a6573d6000803e3d6000fd5b505050506040513d601f19601f820116820180604052508101906152ca919061590f565b9050885b88811015615320576152e08185615a83565b6152ea908961593e565b97506152f68184615a83565b615300908861593e565b965061530c8183615a83565b615316908761593e565b95506001016152ce565b50505050509250925092565b60006109c442443360405160200161534693929190615be1565b6040516020818303038152906040528051906020012060001c6153699190615c09565b6153759061271061593e565b905090565b600081815260016020819052604082206002810154910154829161539d9161593e565b9050601d81116153ee576109c44244336040516020016153bf93929190615be1565b6040516020818303038152906040528051906020012060001c6153e29190615c09565b61359c9061271061593e565b6113884244336040516020016153bf93929190615be1565b6004805460408051636cfe8a9f60e01b8152905160009384936001600160a01b031692636cfe8a9f92818301926020928290030181865afa15801561544f573d6000803e3d6000fd5b505050506040513d601f19601f8201168201806040525081019061547391906157e2565b600084815260016020818152604092839020835161018081018552815481529281015483830152600281015483850152600381015460608401526004808201546080850152600582015460a0850152600682015460c0850152600782015460e085015260088201546101008501526009820154610120850152600a820154610140850152600b90910154610160840152835163945b612360e01b8152935194955091936001600160a01b0386169363945b6123938181019392918290030181865afa158015615546573d6000803e3d6000fd5b505050506040513d601f19601f8201168201806040525081019061556a919061590f565b826001600160a01b0316638ccf96d76040518163ffffffff1660e01b8152600401602060405180830381865afa1580156155a8573d6000803e3d6000fd5b505050506040513d601f19601f820116820180604052508101906155cc919061590f565b6155d6919061593e565b816040015182602001516155ea919061593e565b036155f9575060029392505050565b5060019392505050565b6040518061018001604052806000815260200160008152602001600081526020016000815260200160008152602001600081526020016000815260200160008152602001600081526020016000815260200160008152602001600081525090565b6000806040838503121561567757600080fd5b50508035926020909101359150565b60006020828403121561569857600080fd5b5035919050565b6001600160a01b03811681146156b457600080fd5b50565b6000806000806000608086880312156156cf57600080fd5b85356156da8161569f565b945060208601356156ea8161569f565b935060408601359250606086013567ffffffffffffffff8082111561570e57600080fd5b818801915088601f83011261572257600080fd5b81358181111561573157600080fd5b89602082850101111561574357600080fd5b9699959850939650602001949392505050565b6000806000806080858703121561576c57600080fd5b843593506020850135925060408501356005811061578957600080fd5b9396929550929360600135925050565b6000806000606084860312156157ae57600080fd5b505081359360208301359350604090920135919050565b6000602082840312156157d757600080fd5b813561359c8161569f565b6000602082840312156157f457600080fd5b815161359c8161569f565b634e487b7160e01b600052604160045260246000fd5b604051610180810167ffffffffffffffff81118282101715615839576158396157ff565b60405290565b604051601f8201601f1916810167ffffffffffffffff81118282101715615868576158686157ff565b604052919050565b6000610180828403121561588357600080fd5b61588b615815565b825181526020830151602082015260408301516040820152606083015160608201526080830151608082015260a083015160a082015260c083015160c082015260e083015160e08201526101008084015181830152506101208084015181830152506101408084015181830152506101608084015181830152508091505092915050565b60006020828403121561592157600080fd5b5051919050565b634e487b7160e01b600052601160045260246000fd5b8082018082111561343757613437615928565b8181038181111561343757613437615928565b60006101c082019050848252836020830152825160408301526020830151606083015260408301516080830152606083015160a0830152608083015160c083015260a083015160e083015260c0830151610100818185015260e0850151915061012082818601528186015192506101409150828286015280860151925050610160828186015281860151610180860152808601516101a0860152505050949350505050565b634e487b7160e01b600052602160045260246000fd5b838152602081018390526060810160058310615a4b57634e487b7160e01b600052602160045260246000fd5b826040830152949350505050565b634e487b7160e01b600052601260045260246000fd5b600082615a7e57615a7e615a59565b500490565b808202811582820484141761343757613437615928565b600082601f830112615aab57600080fd5b815167ffffffffffffffff811115615ac557615ac56157ff565b6020615ad9601f8301601f1916820161583f565b8281528582848701011115615aed57600080fd5b60005b83811015615b0b578581018301518282018401528201615af0565b506000928101909101919091529392505050565b60008060408385031215615b3257600080fd5b825167ffffffffffffffff80821115615b4a57600080fd5b615b5686838701615a9a565b93506020850151915080821115615b6c57600080fd5b50615b7985828601615a9a565b9150509250929050565b600060018201615b9557615b95615928565b5060010190565b600081615bab57615bab615928565b506000190190565b600080600060608486031215615bc857600080fd5b8351925060208401519150604084015190509250925092565b928352602083019190915260601b6bffffffffffffffffffffffff1916604082015260540190565b600082615c1857615c18615a59565b50069056fea2646970667358221220169ef2471a7ba3385a2727f25328745eca994a04ff1f8426ad68fd96a2bc402664736f6c63430008190033","linkReferences":{}},"methodIdentifiers":{"BASE_DENOMINATOR()":"bd859584","ONE_EPOCH()":"3b42adee","beeStatus(uint256,uint256)":"33301a9d","buzzkillAddressProvider()":"921ca4b1","collectHoney(uint256,uint256)":"0f395f30","createHive(uint256)":"7f7cfc11","forage(uint256,uint256,uint256)":"9f16a90e","getAvailableHoneyInHive(uint256)":"36639925","getHivePoolMultiplier(uint256)":"c56381fb","getHiveResources(uint256)":"7df14046","getUserClaimableHoney(uint256,uint256)":"a0dd51ee","hives(uint256)":"11e872f3","initialize(address)":"c4d66de8","isBeeInAction(uint256,uint256)":"4272df54","onERC721Received(address,address,uint256,bytes)":"150b7a02","stakeBee(uint256,uint256)":"539528fa","startRaid(uint256,uint256,uint256)":"86dd0b12","totalHives()":"3c377547","unstakeBee(uint256,uint256)":"941837d6","updateHiveDefense(uint256,uint256)":"f85ad4c4","updateHiveProductivity(uint256,uint256)":"9fe6c136","updradeBeeSkills(uint256,uint256,uint8,uint256)":"1ca74d9b"},"id":1}