{"abi":[{"type":"constructor","inputs":[],"stateMutability":"nonpayable"},{"type":"function","name":"MAX_SUPPLY","inputs":[],"outputs":[{"name":"","type":"uint256","internalType":"uint256"}],"stateMutability":"view"},{"type":"function","name":"acceptOwnership","inputs":[],"outputs":[],"stateMutability":"nonpayable"},{"type":"function","name":"allowance","inputs":[{"name":"owner","type":"address","internalType":"address"},{"name":"spender","type":"address","internalType":"address"}],"outputs":[{"name":"","type":"uint256","internalType":"uint256"}],"stateMutability":"view"},{"type":"function","name":"approve","inputs":[{"name":"spender","type":"address","internalType":"address"},{"name":"amount","type":"uint256","internalType":"uint256"}],"outputs":[{"name":"","type":"bool","internalType":"bool"}],"stateMutability":"nonpayable"},{"type":"function","name":"balanceOf","inputs":[{"name":"owner","type":"address","internalType":"address"}],"outputs":[{"name":"","type":"uint256","internalType":"uint256"}],"stateMutability":"view"},{"type":"function","name":"burn","inputs":[{"name":"amount","type":"uint256","internalType":"uint256"}],"outputs":[{"name":"","type":"bool","internalType":"bool"}],"stateMutability":"nonpayable"},{"type":"function","name":"burn","inputs":[{"name":"from","type":"address","internalType":"address"},{"name":"value","type":"uint256","internalType":"uint256"}],"outputs":[],"stateMutability":"nonpayable"},{"type":"function","name":"decimals","inputs":[],"outputs":[{"name":"","type":"uint8","internalType":"uint8"}],"stateMutability":"view"},{"type":"function","name":"estimateFee","inputs":[{"name":"value","type":"uint256","internalType":"uint256"}],"outputs":[{"name":"","type":"uint256","internalType":"uint256"}],"stateMutability":"view"},{"type":"function","name":"isController","inputs":[{"name":"addr","type":"address","internalType":"address"}],"outputs":[{"name":"","type":"bool","internalType":"bool"}],"stateMutability":"view"},{"type":"function","name":"issuer","inputs":[],"outputs":[{"name":"","type":"address","internalType":"address"}],"stateMutability":"view"},{"type":"function","name":"minFee","inputs":[],"outputs":[{"name":"","type":"uint256","internalType":"uint256"}],"stateMutability":"view"},{"type":"function","name":"mintTo","inputs":[{"name":"to","type":"address","internalType":"address"},{"name":"amount","type":"uint256","internalType":"uint256"}],"outputs":[],"stateMutability":"nonpayable"},{"type":"function","name":"name","inputs":[],"outputs":[{"name":"","type":"string","internalType":"string"}],"stateMutability":"view"},{"type":"function","name":"owner","inputs":[],"outputs":[{"name":"","type":"address","internalType":"address"}],"stateMutability":"view"},{"type":"function","name":"setController","inputs":[{"name":"addr","type":"address","internalType":"address"},{"name":"state","type":"bool","internalType":"bool"}],"outputs":[],"stateMutability":"nonpayable"},{"type":"function","name":"setFee","inputs":[{"name":"fee","type":"uint256","internalType":"uint256"}],"outputs":[],"stateMutability":"nonpayable"},{"type":"function","name":"supportsInterface","inputs":[{"name":"interfaceId","type":"bytes4","internalType":"bytes4"}],"outputs":[{"name":"","type":"bool","internalType":"bool"}],"stateMutability":"view"},{"type":"function","name":"symbol","inputs":[],"outputs":[{"name":"","type":"string","internalType":"string"}],"stateMutability":"view"},{"type":"function","name":"totalSupply","inputs":[],"outputs":[{"name":"","type":"uint256","internalType":"uint256"}],"stateMutability":"view"},{"type":"function","name":"transfer","inputs":[{"name":"recipient","type":"address","internalType":"address"},{"name":"amount","type":"uint256","internalType":"uint256"}],"outputs":[{"name":"","type":"bool","internalType":"bool"}],"stateMutability":"nonpayable"},{"type":"function","name":"transferFrom","inputs":[{"name":"sender","type":"address","internalType":"address"},{"name":"recipient","type":"address","internalType":"address"},{"name":"amount","type":"uint256","internalType":"uint256"}],"outputs":[{"name":"","type":"bool","internalType":"bool"}],"stateMutability":"nonpayable"},{"type":"function","name":"transferOwnership","inputs":[{"name":"newOwner","type":"address","internalType":"address"}],"outputs":[],"stateMutability":"nonpayable"},{"type":"event","name":"Approval","inputs":[{"name":"owner","type":"address","indexed":true,"internalType":"address"},{"name":"spender","type":"address","indexed":true,"internalType":"address"},{"name":"value","type":"uint256","indexed":false,"internalType":"uint256"}],"anonymous":false},{"type":"event","name":"Fee","inputs":[{"name":"from","type":"address","indexed":true,"internalType":"address"},{"name":"to","type":"address","indexed":true,"internalType":"address"},{"name":"issuer","type":"address","indexed":true,"internalType":"address"},{"name":"value","type":"uint256","indexed":false,"internalType":"uint256"}],"anonymous":false},{"type":"event","name":"FeeUpdated","inputs":[{"name":"fee","type":"uint256","indexed":false,"internalType":"uint256"}],"anonymous":false},{"type":"event","name":"OwnershipTransferred","inputs":[{"name":"previousOwner","type":"address","indexed":true,"internalType":"address"},{"name":"newOwner","type":"address","indexed":true,"internalType":"address"}],"anonymous":false},{"type":"event","name":"Transfer","inputs":[{"name":"from","type":"address","indexed":true,"internalType":"address"},{"name":"to","type":"address","indexed":true,"internalType":"address"},{"name":"value","type":"uint256","indexed":false,"internalType":"uint256"}],"anonymous":false},{"type":"error","name":"ExceededMaxSupply","inputs":[]},{"type":"error","name":"ReentrancyGuardReentrantCall","inputs":[]}],"bytecode":{"object":"0x608060405234801561001057600080fd5b5060405180604001604052806005815260200164484f4e455960d81b81525060405180604001604052806003815260200162484e5960e81b8152506012826005908161005c919061015e565b506006610069838261015e565b506007805460ff9290921660ff19928316179055600280546001600160a01b031916339081179091556001600a8190556000918252600960205260409091208054909216179055506100b89050565b61021d565b634e487b7160e01b600052604160045260246000fd5b600181811c908216806100e757607f821691505b60208210810361010757634e487b7160e01b600052602260045260246000fd5b50919050565b601f821115610159576000816000526020600020601f850160051c810160208610156101365750805b601f850160051c820191505b8181101561015557828155600101610142565b5050505b505050565b81516001600160401b03811115610177576101776100bd565b61018b8161018584546100d3565b8461010d565b602080601f8311600181146101c057600084156101a85750858301515b600019600386901b1c1916600185901b178555610155565b600085815260208120601f198616915b828110156101ef578886015182559484019460019091019084016101d0565b508582101561020d5787850151600019600388901b60f8161c191681555b5050505050600190811b01905550565b6111f98061022c6000396000f3fe608060405234801561001057600080fd5b506004361061014d5760003560e01c8063449a52f8116100c35780639dc29fac1161007c5780639dc29fac146102ae578063a9059cbb146102c1578063b429afeb146102d4578063dd62ed3e14610300578063e0dba60f14610339578063f2fde38b1461034c57600080fd5b8063449a52f81461024d57806369fe0e2d1461026257806370a082311461027557806379ba50971461029e5780638da5cb5b146101dc57806395d89b41146102a657600080fd5b80631d143848116101155780631d143848146101dc57806323b872dd146101f757806324ec75901461020a578063313ce5671461021257806332cb6b0c1461022757806342966c681461023a57600080fd5b806301ffc9a71461015257806306fdde031461018b578063095ea7b3146101a0578063127e8e4d146101b357806318160ddd146101d4575b600080fd5b610176610160366004610f35565b6001600160e01b031916630861786560e01b1490565b60405190151581526020015b60405180910390f35b61019361035f565b6040516101829190610f5f565b6101766101ae366004610fc5565b6103f1565b6101c66101c1366004610fef565b610422565b604051908152602001610182565b6008546101c6565b6002546040516001600160a01b039091168152602001610182565b610176610205366004611008565b610441565b6001546101c6565b60075460405160ff9091168152602001610182565b6101c66b204fce5e3e2502611000000081565b610176610248366004610fef565b61054f565b61026061025b366004610fc5565b61057c565b005b610260610270366004610fef565b61060b565b6101c6610283366004611044565b6001600160a01b031660009081526020819052604090205490565b610260610670565b61019361073a565b6102606102bc366004610fc5565b610749565b6101766102cf366004610fc5565b610782565b6101766102e2366004611044565b6001600160a01b031660009081526009602052604090205460ff1690565b6101c661030e36600461105f565b6001600160a01b03918216600090815260046020908152604080832093909416825291909152205490565b610260610347366004611092565b6107a6565b61026061035a366004611044565b6107f8565b60606005805461036e906110ce565b80601f016020809104026020016040519081016040528092919081815260200182805461039a906110ce565b80156103e75780601f106103bc576101008083540402835291602001916103e7565b820191906000526020600020905b8154815290600101906020018083116103ca57829003601f168201915b5050505050905090565b6000806103fe6000610422565b905061040b3385856108a6565b6104163330836109cb565b60019150505b92915050565b6000333b1561043357506000919050565b61041c82610a45565b919050565b60008061044d83610422565b90506104598382610a5a565b6001600160a01b038616600090815260046020908152604080832033845290915290205410156104d05760405162461bcd60e51b815260206004820152601e60248201527f56524332353a20616d6f756e742065786565647320616c6c6f77616e6365000060448201526064015b60405180910390fd5b6001600160a01b038516600090815260046020908152604080832033845290915290205461050a9082906105049086610ac0565b90610ac0565b6001600160a01b0386166000908152600460209081526040808320338452909152902055610539858585610b1c565b6105448585836109cb565b506001949350505050565b60008061055c6000610422565b90506105683384610ce9565b6105733330836109cb565b50600192915050565b3360009081526009602052604090205460ff166105ab5760405162461bcd60e51b81526004016104c790611108565b6105b3610e34565b6b204fce5e3e25026110000000816105ca60085490565b6105d49190611166565b11156105f35760405163fb88d21560e01b815260040160405180910390fd5b6105fd8282610e5e565b6106076001600a55565b5050565b6002546001600160a01b031633146106355760405162461bcd60e51b81526004016104c790611179565b60018190556040518181527f8c4d35e54a3f2ef1134138fd8ea3daee6a3c89e10d2665996babdf70261e2c769060200160405180910390a150565b6003546001600160a01b031633146106dd5760405162461bcd60e51b815260206004820152602a60248201527f56524332353a206f6e6c79206e6577206f776e65722063616e206163636570746044820152690206f776e6572736869760b41b60648201526084016104c7565b60028054600380546001600160a01b03198084166001600160a01b038381169182179096559116909155604051929091169182907f8be0079c531659141344cd1fd0a4f28419497f9722a3daafe3b4186f6b6457e090600090a350565b60606006805461036e906110ce565b3360009081526009602052604090205460ff166107785760405162461bcd60e51b81526004016104c790611108565b6106078282610ce9565b60008061078e83610422565b905061079b338585610b1c565b6104163385836109cb565b6002546001600160a01b031633146107d05760405162461bcd60e51b81526004016104c790611179565b6001600160a01b0382166000908152600960205260409020805460ff19168215151790555050565b6002546001600160a01b031633146108225760405162461bcd60e51b81526004016104c790611179565b6001600160a01b0381166108845760405162461bcd60e51b8152602060048201526024808201527f56524332353a206e6577206f776e657220697320746865207a65726f206164646044820152637265737360e01b60648201526084016104c7565b600380546001600160a01b0319166001600160a01b0392909216919091179055565b6001600160a01b0383166109085760405162461bcd60e51b8152602060048201526024808201527f56524332353a20617070726f76652066726f6d20746865207a65726f206164646044820152637265737360e01b60648201526084016104c7565b6001600160a01b0382166109695760405162461bcd60e51b815260206004820152602260248201527f56524332353a20617070726f766520746f20746865207a65726f206164647265604482015261737360f01b60648201526084016104c7565b6001600160a01b0383811660008181526004602090815260408083209487168084529482529182902085905590518481527f8c5be1e5ebec7d5bd14f71427d1e84f3dd0314c0f7b2291e5b200ac8c7c3b92591015b60405180910390a3505050565b333b156109d757505050565b8015610a40576002546109f59084906001600160a01b031683610b1c565b6002546040518281526001600160a01b039182169184811691908616907ffcf5b3276434181e3c48bd3fe569b8939808f11e845d4b963693b9d7dbd6dd999060200160405180910390a45b505050565b6000610a5060015490565b61041c9083611166565b600080610a678385611166565b905083811015610ab95760405162461bcd60e51b815260206004820152601b60248201527f536166654d6174683a206164646974696f6e206f766572666c6f77000000000060448201526064016104c7565b9392505050565b600082821115610b125760405162461bcd60e51b815260206004820152601e60248201527f536166654d6174683a207375627472616374696f6e206f766572666c6f77000060448201526064016104c7565b610ab982846111b0565b6001600160a01b038316610b805760405162461bcd60e51b815260206004820152602560248201527f56524332353a207472616e736665722066726f6d20746865207a65726f206164604482015264647265737360d81b60648201526084016104c7565b6001600160a01b038216610be25760405162461bcd60e51b815260206004820152602360248201527f56524332353a207472616e7366657220746f20746865207a65726f206164647260448201526265737360e81b60648201526084016104c7565b6001600160a01b038316600090815260208190526040902054811115610c465760405162461bcd60e51b815260206004820152601960248201527856524332353a20696e7375666669656e742062616c616e636560381b60448201526064016104c7565b6001600160a01b038316600090815260208190526040902054610c699082610ac0565b6001600160a01b038085166000908152602081905260408082209390935590841681522054610c989082610a5a565b6001600160a01b038381166000818152602081815260409182902094909455518481529092918616917fddf252ad1be2c89b69c2b068fc378daa952ba7f163c4a11628f55a4df523b3ef91016109be565b6001600160a01b038216610d495760405162461bcd60e51b815260206004820152602160248201527f56524332353a206275726e2066726f6d20746865207a65726f206164647265736044820152607360f81b60648201526084016104c7565b6001600160a01b038216600090815260208190526040902054811115610dad5760405162461bcd60e51b815260206004820152601960248201527856524332353a20696e7375666669656e742062616c616e636560381b60448201526064016104c7565b600854610dba9082610ac0565b6008556001600160a01b038216600090815260208190526040902054610de09082610ac0565b6001600160a01b03831660008181526020818152604080832094909455925184815290927fddf252ad1be2c89b69c2b068fc378daa952ba7f163c4a11628f55a4df523b3ef91015b60405180910390a35050565b6002600a5403610e5757604051633ee5aeb560e01b815260040160405180910390fd5b6002600a55565b6001600160a01b038216610eb45760405162461bcd60e51b815260206004820152601f60248201527f56524332353a206d696e7420746f20746865207a65726f20616464726573730060448201526064016104c7565b600854610ec19082610a5a565b6008556001600160a01b038216600090815260208190526040902054610ee79082610a5a565b6001600160a01b038316600081815260208181526040808320949094559251848152919290917fddf252ad1be2c89b69c2b068fc378daa952ba7f163c4a11628f55a4df523b3ef9101610e28565b600060208284031215610f4757600080fd5b81356001600160e01b031981168114610ab957600080fd5b60006020808352835180602085015260005b81811015610f8d57858101830151858201604001528201610f71565b506000604082860101526040601f19601f8301168501019250505092915050565b80356001600160a01b038116811461043c57600080fd5b60008060408385031215610fd857600080fd5b610fe183610fae565b946020939093013593505050565b60006020828403121561100157600080fd5b5035919050565b60008060006060848603121561101d57600080fd5b61102684610fae565b925061103460208501610fae565b9150604084013590509250925092565b60006020828403121561105657600080fd5b610ab982610fae565b6000806040838503121561107257600080fd5b61107b83610fae565b915061108960208401610fae565b90509250929050565b600080604083850312156110a557600080fd5b6110ae83610fae565b9150602083013580151581146110c357600080fd5b809150509250929050565b600181811c908216806110e257607f821691505b60208210810361110257634e487b7160e01b600052602260045260246000fd5b50919050565b60208082526028908201527f436f6e74726f6c6c65723a2043616c6c6572206973206e6f742074686520636f604082015267373a3937b63632b960c11b606082015260800190565b634e487b7160e01b600052601160045260246000fd5b8082018082111561041c5761041c611150565b6020808252601e908201527f56524332353a2063616c6c6572206973206e6f7420746865206f776e65720000604082015260600190565b8181038181111561041c5761041c61115056fea26469706673582212201a183e6e322c7590df5bb4895dfba110372f796861bad14e245b6ec45784d91464736f6c63430008190033","linkReferences":{}},"methodIdentifiers":{"MAX_SUPPLY()":"32cb6b0c","acceptOwnership()":"79ba5097","allowance(address,address)":"dd62ed3e","approve(address,uint256)":"095ea7b3","balanceOf(address)":"70a08231","burn(address,uint256)":"9dc29fac","burn(uint256)":"42966c68","decimals()":"313ce567","estimateFee(uint256)":"127e8e4d","isController(address)":"b429afeb","issuer()":"1d143848","minFee()":"24ec7590","mintTo(address,uint256)":"449a52f8","name()":"06fdde03","owner()":"8da5cb5b","setController(address,bool)":"e0dba60f","setFee(uint256)":"69fe0e2d","supportsInterface(bytes4)":"01ffc9a7","symbol()":"95d89b41","totalSupply()":"18160ddd","transfer(address,uint256)":"a9059cbb","transferFrom(address,address,uint256)":"23b872dd","transferOwnership(address)":"f2fde38b"},"id":3}