{"abi":[{"type":"function","name":"Cn","inputs":[],"outputs":[{"name":"","type":"uint256","internalType":"uint256"}],"stateMutability":"view"},{"type":"function","name":"Cp","inputs":[],"outputs":[{"name":"","type":"uint256","internalType":"uint256"}],"stateMutability":"view"},{"type":"function","name":"Cs","inputs":[],"outputs":[{"name":"","type":"uint256","internalType":"uint256"}],"stateMutability":"view"},{"type":"function","name":"amountToLevelUp","inputs":[],"outputs":[{"name":"","type":"uint256","internalType":"uint256"}],"stateMutability":"view"},{"type":"function","name":"baseHealthDeductionAfterRaid","inputs":[],"outputs":[{"name":"","type":"uint256","internalType":"uint256"}],"stateMutability":"view"},{"type":"function","name":"baseHoneyRaidReward","inputs":[],"outputs":[{"name":"","type":"uint256","internalType":"uint256"}],"stateMutability":"view"},{"type":"function","name":"baseHoneyYield","inputs":[],"outputs":[{"name":"","type":"uint256","internalType":"uint256"}],"stateMutability":"view"},{"type":"function","name":"beeEnergyRefreshInterval","inputs":[],"outputs":[{"name":"","type":"uint256","internalType":"uint256"}],"stateMutability":"view"},{"type":"function","name":"beeHealthRefreshInterval","inputs":[],"outputs":[{"name":"","type":"uint256","internalType":"uint256"}],"stateMutability":"view"},{"type":"function","name":"claimTimeInterval","inputs":[],"outputs":[{"name":"","type":"uint256","internalType":"uint256"}],"stateMutability":"view"},{"type":"function","name":"experienceEarnedAfterForage","inputs":[],"outputs":[{"name":"","type":"uint256","internalType":"uint256"}],"stateMutability":"view"},{"type":"function","name":"experienceEarnedAfterRaidFailed","inputs":[],"outputs":[{"name":"","type":"uint256","internalType":"uint256"}],"stateMutability":"view"},{"type":"function","name":"experienceEarnedAfterRaidSuccess","inputs":[],"outputs":[{"name":"","type":"uint256","internalType":"uint256"}],"stateMutability":"view"},{"type":"function","name":"foragePercentage","inputs":[],"outputs":[{"name":"","type":"uint256","internalType":"uint256"}],"stateMutability":"view"},{"type":"function","name":"honeyYieldConstant","inputs":[],"outputs":[{"name":"","type":"uint256","internalType":"uint256"}],"stateMutability":"view"},{"type":"function","name":"initialize","inputs":[],"outputs":[],"stateMutability":"nonpayable"},{"type":"function","name":"maxEnergyDeductionValue","inputs":[],"outputs":[{"name":"","type":"uint256","internalType":"uint256"}],"stateMutability":"view"},{"type":"function","name":"maxQueen","inputs":[],"outputs":[{"name":"","type":"uint256","internalType":"uint256"}],"stateMutability":"view"},{"type":"function","name":"maxResourcesValue","inputs":[],"outputs":[{"name":"","type":"uint256","internalType":"uint256"}],"stateMutability":"view"},{"type":"function","name":"maxWorker","inputs":[],"outputs":[{"name":"","type":"uint256","internalType":"uint256"}],"stateMutability":"view"},{"type":"function","name":"minEnergyDeductionValue","inputs":[],"outputs":[{"name":"","type":"uint256","internalType":"uint256"}],"stateMutability":"view"},{"type":"function","name":"minResourcesValue","inputs":[],"outputs":[{"name":"","type":"uint256","internalType":"uint256"}],"stateMutability":"view"},{"type":"function","name":"nectarRequiredToClaim","inputs":[],"outputs":[{"name":"","type":"uint256","internalType":"uint256"}],"stateMutability":"view"},{"type":"function","name":"owner","inputs":[],"outputs":[{"name":"","type":"address","internalType":"address"}],"stateMutability":"view"},{"type":"function","name":"productivityEarnAfterRaid","inputs":[],"outputs":[{"name":"","type":"uint256","internalType":"uint256"}],"stateMutability":"view"},{"type":"function","name":"raidHoneyFee","inputs":[],"outputs":[{"name":"","type":"uint256","internalType":"uint256"}],"stateMutability":"view"},{"type":"function","name":"raidSapFee","inputs":[],"outputs":[{"name":"","type":"uint256","internalType":"uint256"}],"stateMutability":"view"},{"type":"function","name":"renounceOwnership","inputs":[],"outputs":[],"stateMutability":"nonpayable"},{"type":"function","name":"resourcesRefreshInterval","inputs":[],"outputs":[{"name":"","type":"uint256","internalType":"uint256"}],"stateMutability":"view"},{"type":"function","name":"setAmountToLevelUp","inputs":[{"name":"_amountToLevelUp","type":"uint256","internalType":"uint256"}],"outputs":[],"stateMutability":"nonpayable"},{"type":"function","name":"setBaseHealthDeductionAfterRaid","inputs":[{"name":"_baseHealthDeductionAfterRaid","type":"uint256","internalType":"uint256"}],"outputs":[],"stateMutability":"nonpayable"},{"type":"function","name":"setBaseHoneyRaidReward","inputs":[{"name":"_baseHoneyRaidReward","type":"uint256","internalType":"uint256"}],"outputs":[],"stateMutability":"nonpayable"},{"type":"function","name":"setBaseHoneyYield","inputs":[{"name":"_baseHoneyYield","type":"uint256","internalType":"uint256"}],"outputs":[],"stateMutability":"nonpayable"},{"type":"function","name":"setBeeEnergyRefreshInterval","inputs":[{"name":"_beeEnergyRefreshInterval","type":"uint256","internalType":"uint256"}],"outputs":[],"stateMutability":"nonpayable"},{"type":"function","name":"setBeeHealthRefreshInterval","inputs":[{"name":"_beeHealthRefreshInterval","type":"uint256","internalType":"uint256"}],"outputs":[],"stateMutability":"nonpayable"},{"type":"function","name":"setClaimTimeInterval","inputs":[{"name":"_claimTimeInterval","type":"uint256","internalType":"uint256"}],"outputs":[],"stateMutability":"nonpayable"},{"type":"function","name":"setCn","inputs":[{"name":"_Cn","type":"uint256","internalType":"uint256"}],"outputs":[],"stateMutability":"nonpayable"},{"type":"function","name":"setCp","inputs":[{"name":"_Cp","type":"uint256","internalType":"uint256"}],"outputs":[],"stateMutability":"nonpayable"},{"type":"function","name":"setCs","inputs":[{"name":"_Cs","type":"uint256","internalType":"uint256"}],"outputs":[],"stateMutability":"nonpayable"},{"type":"function","name":"setExperienceEarnedAfterForage","inputs":[{"name":"_experienceEarnedAfterForage","type":"uint256","internalType":"uint256"}],"outputs":[],"stateMutability":"nonpayable"},{"type":"function","name":"setExperienceEarnedAfterRaidFailed","inputs":[{"name":"_experienceEarnedAfterRaidFailed","type":"uint256","internalType":"uint256"}],"outputs":[],"stateMutability":"nonpayable"},{"type":"function","name":"setExperienceEarnedAfterRaidSuccess","inputs":[{"name":"_experienceEarnedAfterRaidSuccess","type":"uint256","internalType":"uint256"}],"outputs":[],"stateMutability":"nonpayable"},{"type":"function","name":"setForagePercentage","inputs":[{"name":"_foragePercentage","type":"uint256","internalType":"uint256"}],"outputs":[],"stateMutability":"nonpayable"},{"type":"function","name":"setHoneyYieldConstant","inputs":[{"name":"_honeyYieldConstant","type":"uint256","internalType":"uint256"}],"outputs":[],"stateMutability":"nonpayable"},{"type":"function","name":"setMaxEnergyDeductionValue","inputs":[{"name":"_maxEnergyDeductionValue","type":"uint256","internalType":"uint256"}],"outputs":[],"stateMutability":"nonpayable"},{"type":"function","name":"setMaxQueen","inputs":[{"name":"_maxQueen","type":"uint256","internalType":"uint256"}],"outputs":[],"stateMutability":"nonpayable"},{"type":"function","name":"setMaxResourcesValue","inputs":[{"name":"_maxResourcesValue","type":"uint256","internalType":"uint256"}],"outputs":[],"stateMutability":"nonpayable"},{"type":"function","name":"setMaxWorker","inputs":[{"name":"_maxWorker","type":"uint256","internalType":"uint256"}],"outputs":[],"stateMutability":"nonpayable"},{"type":"function","name":"setMinEnergyDeductionValue","inputs":[{"name":"_minEnergyDeductionValue","type":"uint256","internalType":"uint256"}],"outputs":[],"stateMutability":"nonpayable"},{"type":"function","name":"setMinResourcesValue","inputs":[{"name":"_minResourcesValue","type":"uint256","internalType":"uint256"}],"outputs":[],"stateMutability":"nonpayable"},{"type":"function","name":"setNectarRequiredToClaim","inputs":[{"name":"_nectarRequiredToClaim","type":"uint256","internalType":"uint256"}],"outputs":[],"stateMutability":"nonpayable"},{"type":"function","name":"setProductivityEarnAfterRaid","inputs":[{"name":"_productivityEarnAfterRaid","type":"uint256","internalType":"uint256"}],"outputs":[],"stateMutability":"nonpayable"},{"type":"function","name":"setRaidHoneyFee","inputs":[{"name":"_raidHoneyFee","type":"uint256","internalType":"uint256"}],"outputs":[],"stateMutability":"nonpayable"},{"type":"function","name":"setRaidSapFee","inputs":[{"name":"_raidSapFee","type":"uint256","internalType":"uint256"}],"outputs":[],"stateMutability":"nonpayable"},{"type":"function","name":"setResourcesRefreshInterval","inputs":[{"name":"_resourcesRefreshInterval","type":"uint256","internalType":"uint256"}],"outputs":[],"stateMutability":"nonpayable"},{"type":"function","name":"transferOwnership","inputs":[{"name":"newOwner","type":"address","internalType":"address"}],"outputs":[],"stateMutability":"nonpayable"},{"type":"event","name":"AmountToLevelUpChanged","inputs":[{"name":"newAmountToLevelUp","type":"uint256","indexed":false,"internalType":"uint256"}],"anonymous":false},{"type":"event","name":"BaseHealthDeductionAfterRaidChanged","inputs":[{"name":"newBaseHealthDeductionAfterRaid","type":"uint256","indexed":false,"internalType":"uint256"}],"anonymous":false},{"type":"event","name":"BaseHoneyRaidRewardChanged","inputs":[{"name":"newBaseHoneyRaidReward","type":"uint256","indexed":false,"internalType":"uint256"}],"anonymous":false},{"type":"event","name":"BeeEnergyRefreshIntervalChanged","inputs":[{"name":"newBeeEnergyRefreshInterval","type":"uint256","indexed":false,"internalType":"uint256"}],"anonymous":false},{"type":"event","name":"BeeHealthRefreshIntervalChanged","inputs":[{"name":"newBeeHealthRefreshInterval","type":"uint256","indexed":false,"internalType":"uint256"}],"anonymous":false},{"type":"event","name":"ClaimTimeIntervalChanged","inputs":[{"name":"newClaimTimeInterval","type":"uint256","indexed":false,"internalType":"uint256"}],"anonymous":false},{"type":"event","name":"CnChanged","inputs":[{"name":"newCn","type":"uint256","indexed":false,"internalType":"uint256"}],"anonymous":false},{"type":"event","name":"CpChanged","inputs":[{"name":"newCp","type":"uint256","indexed":false,"internalType":"uint256"}],"anonymous":false},{"type":"event","name":"CsChanged","inputs":[{"name":"newCs","type":"uint256","indexed":false,"internalType":"uint256"}],"anonymous":false},{"type":"event","name":"ExperienceEarnedAfterForageChanged","inputs":[{"name":"newExperienceEarnedAfterForage","type":"uint256","indexed":false,"internalType":"uint256"}],"anonymous":false},{"type":"event","name":"ExperienceEarnedAfterRaidFailedChanged","inputs":[{"name":"newExperienceEarnedAfterRaidFailed","type":"uint256","indexed":false,"internalType":"uint256"}],"anonymous":false},{"type":"event","name":"ExperienceEarnedAfterRaidSuccessChanged","inputs":[{"name":"newExperienceEarnedAfterRaidSuccess","type":"uint256","indexed":false,"internalType":"uint256"}],"anonymous":false},{"type":"event","name":"ForagePercentageChanged","inputs":[{"name":"newForagePercentage","type":"uint256","indexed":false,"internalType":"uint256"}],"anonymous":false},{"type":"event","name":"HoneyYieldConstantChanged","inputs":[{"name":"newHoneyYieldConstant","type":"uint256","indexed":false,"internalType":"uint256"}],"anonymous":false},{"type":"event","name":"Initialized","inputs":[{"name":"version","type":"uint64","indexed":false,"internalType":"uint64"}],"anonymous":false},{"type":"event","name":"MaxEnergyDeductionValueChanged","inputs":[{"name":"newMaxEnergyDeductionValue","type":"uint256","indexed":false,"internalType":"uint256"}],"anonymous":false},{"type":"event","name":"MaxQueenChanged","inputs":[{"name":"newMaxQueen","type":"uint256","indexed":false,"internalType":"uint256"}],"anonymous":false},{"type":"event","name":"MaxResourcesValueChanged","inputs":[{"name":"newMaxResourcesValue","type":"uint256","indexed":false,"internalType":"uint256"}],"anonymous":false},{"type":"event","name":"MaxWorkerChanged","inputs":[{"name":"newMaxWorker","type":"uint256","indexed":false,"internalType":"uint256"}],"anonymous":false},{"type":"event","name":"MinEnergyDeductionValueChanged","inputs":[{"name":"newMinEnergyDeductionValue","type":"uint256","indexed":false,"internalType":"uint256"}],"anonymous":false},{"type":"event","name":"MinResourcesValueChanged","inputs":[{"name":"newMinResourcesValue","type":"uint256","indexed":false,"internalType":"uint256"}],"anonymous":false},{"type":"event","name":"NectarRequiredToClaimChanged","inputs":[{"name":"newNectarRequiredToClaim","type":"uint256","indexed":false,"internalType":"uint256"}],"anonymous":false},{"type":"event","name":"OwnershipTransferred","inputs":[{"name":"previousOwner","type":"address","indexed":true,"internalType":"address"},{"name":"newOwner","type":"address","indexed":true,"internalType":"address"}],"anonymous":false},{"type":"event","name":"ProductivityEarnAfterRaidChanged","inputs":[{"name":"newProductivityEarnAfterRaid","type":"uint256","indexed":false,"internalType":"uint256"}],"anonymous":false},{"type":"event","name":"RaidHoneyFeeChanged","inputs":[{"name":"newRaidHoneyFee","type":"uint256","indexed":false,"internalType":"uint256"}],"anonymous":false},{"type":"event","name":"RaidSapFeeChanged","inputs":[{"name":"newRaidSapFee","type":"uint256","indexed":false,"internalType":"uint256"}],"anonymous":false},{"type":"event","name":"ResourcesRefreshIntervalChanged","inputs":[{"name":"newResourcesRefreshInterval","type":"uint256","indexed":false,"internalType":"uint256"}],"anonymous":false},{"type":"error","name":"InvalidInitialization","inputs":[]},{"type":"error","name":"NotInitializing","inputs":[]},{"type":"error","name":"OwnableInvalidOwner","inputs":[{"name":"owner","type":"address","internalType":"address"}]},{"type":"error","name":"OwnableUnauthorizedAccount","inputs":[{"name":"account","type":"address","internalType":"address"}]}],"bytecode":{"object":"0x6080604052348015600f57600080fd5b5061107a8061001f6000396000f3fe608060405234801561001057600080fd5b50600436106103785760003560e01c80638ccf96d7116101d3578063c3cee85b11610104578063d9403d16116100a2578063eeeb7ad21161007c578063eeeb7ad21461068f578063f2fde38b14610698578063f8ac2843146106ab578063ff2c4b03146106b457600080fd5b8063d9403d161461066a578063dc33615c1461067d578063e35ef3b41461068657600080fd5b8063ca7f790a116100de578063ca7f790a1461061e578063cabae1a514610631578063d375a9b414610644578063d656ccd61461065757600080fd5b8063c3cee85b146105f9578063c688e25d1461060c578063c8a933361461061557600080fd5b8063b6f9cf6a11610171578063b9e59a071161014b578063b9e59a07146105cb578063ba7f3878146105d4578063bcd47fc0146105dd578063bfcce4f6146105e657600080fd5b8063b6f9cf6a1461059c578063b7de13c1146105a5578063b96d7e92146105b857600080fd5b8063945b6123116101ad578063945b61231461056e5780639a1aa19714610577578063adfa16471461058a578063b6d075751461059357600080fd5b80638ccf96d7146105225780638da5cb5b1461052b5780638ff0ae371461056557600080fd5b80633d6e3e65116102ad57806371cc9f841161024b5780637f50b6fd116102255780637f50b6fd146104f55780638129fc1c146104fe5780638454964a1461050657806387063ead1461051957600080fd5b806371cc9f84146104bc5780637391c443146104cf5780637f19b63c146104e257600080fd5b8063591bd00511610287578063591bd0051461047b578063646216e41461048e57806364a817bf146104a1578063715018a6146104b457600080fd5b80633d6e3e6514610456578063477e8c411461045f5780634c5bd4a11461046857600080fd5b8063290059951161031a5780632e4157a2116102f45780632e4157a21461041e57806337a11a631461043157806337b769b91461043a5780633cf4766b1461044d57600080fd5b806329005995146103ef5780632aa26b3c146104025780632bb16c1e1461040b57600080fd5b80630c52bbbc116103565780630c52bbbc146103b8578063166ce745146103d457806316b24c0b146103dd578063265670e7146103e657600080fd5b806305657e371461037d57806308e388fd146103925780630a232149146103a5575b600080fd5b61039061038b366004610ffb565b6106c7565b005b6103906103a0366004610ffb565b61070b565b6103906103b3366004610ffb565b610748565b6103c160155481565b6040519081526020015b60405180910390f35b6103c160095481565b6103c1600c5481565b6103c160085481565b6103906103fd366004610ffb565b610785565b6103c160005481565b610390610419366004610ffb565b6107c2565b61039061042c366004610ffb565b6107ff565b6103c1600b5481565b610390610448366004610ffb565b61083c565b6103c160115481565b6103c160015481565b6103c160075481565b610390610476366004610ffb565b610879565b610390610489366004610ffb565b6108b6565b61039061049c366004610ffb565b6108f3565b6103906104af366004610ffb565b610930565b61039061096d565b6103906104ca366004610ffb565b610981565b6103906104dd366004610ffb565b6109be565b6103906104f0366004610ffb565b6109fb565b6103c160055481565b610390610a38565b610390610514366004610ffb565b610bde565b6103c160065481565b6103c160035481565b7f9016d09d72d40fdae2fd8ceac6b6234c7706214fd39c1cd1e609a0528c199300546040516001600160a01b0390911681526020016103cb565b6103c160025481565b6103c160045481565b610390610585366004610ffb565b610c1b565b6103c1600d5481565b6103c1600f5481565b6103c160175481565b6103906105b3366004610ffb565b610c58565b6103906105c6366004610ffb565b610c65565b6103c160165481565b6103c160195481565b6103c160145481565b6103906105f4366004610ffb565b610ca2565b610390610607366004610ffb565b610cdf565b6103c1600e5481565b6103c1600a5481565b61039061062c366004610ffb565b610d1c565b61039061063f366004610ffb565b610d59565b610390610652366004610ffb565b610d96565b610390610665366004610ffb565b610dd3565b610390610678366004610ffb565b610e10565b6103c160105481565b6103c160185481565b6103c160135481565b6103906106a6366004611014565b610e4d565b6103c160125481565b6103906106c2366004610ffb565b610e90565b6106cf610ecd565b60048190556040518181527facde2766dd9eadbc2048ec6df042a0936d90cd33e001208c8d67178b71659f04906020015b60405180910390a150565b610713610ecd565b600d8190556040518181527fae2c222c862b4f99f464f4ec1139235115b8af76ca1d549d522ec24a1dd1185e90602001610700565b610750610ecd565b60028190556040518181527f23ce6c0b03287ba198c044954569964448f7592f31cb440a0af6f03f2cf807b690602001610700565b61078d610ecd565b600a8190556040518181527f0afd5f9d14537a9ab54988defa08e7dba8a7271114f2c659ff964462509d32ee90602001610700565b6107ca610ecd565b60198190556040518181527fe8178b6234ca6e8722b598550f4812863f24666d11be0cf90888a4d742de769290602001610700565b610807610ecd565b60038190556040518181527f49f2206a0e7b2869449ef5811e305726864b18da1f7518a483f992a8caeb290890602001610700565b610844610ecd565b60118190556040518181527fe9150848e042d928d5abcf8253e2c1e765ebfb694373fea6baadf38cb660ba6990602001610700565b610881610ecd565b600b8190556040518181527ffb0b0afd7f18b8148d17d12c3fde1e6dcaebed6e9d0f74c7f2f8fc06a43cd23690602001610700565b6108be610ecd565b60188190556040518181527f3b6d88b7545a257675b7563e084f4872308dc11e39297157aef24d36e579059a90602001610700565b6108fb610ecd565b60068190556040518181527f74554d08a65764ce3fdf443a333eddd368b2c716d9e661c0049d99eaf4fd333690602001610700565b610938610ecd565b60158190556040518181527f4ee50028b6e404f0f8853cd723ed638dfe11a02f31edf100ba689040c386cb2090602001610700565b610975610ecd565b61097f6000610f28565b565b610989610ecd565b60178190556040518181527f282b23c71f5a94df850ea42e0728094bf316b90ffda3f690e0ccbe90125843bb90602001610700565b6109c6610ecd565b600f8190556040518181527f4a974ed13d8a08353ce9900ff624982773a6289f21bdb3a2f2ecca062979893290602001610700565b610a03610ecd565b60128190556040518181527f672d0592dd1f0ee85645ceed655fc8cbb16bd616e45ec2caeaf16299e6be94a590602001610700565b7ff0c57e16840df040f15088dc2f81fe391c3923bec73e23a9662efc9c229c6a008054600160401b810460ff16159067ffffffffffffffff16600081158015610a7e5750825b905060008267ffffffffffffffff166001148015610a9b5750303b155b905081158015610aa9575080155b15610ac75760405163f92ee8a960e01b815260040160405180910390fd5b845467ffffffffffffffff191660011785558315610af157845460ff60401b1916600160401b1785555b610afa33610f99565b6201518060008190556001818155606460028190556003805560376004556101f4600590815562093a80600655620186a06007556103e860085560146009819055600a808055601e600b55600c839055678ac7230489e80000600d819055600e859055600f55601055601192909255601283905560135555601555670de0b6b3a76400006016556161a8601781905560188190556019558315610bd757845460ff60401b19168555604051600181527fc7f505b2f371ae2175ee4913f4499e1f2633a7b5936321eed1cdaeb6115181d29060200160405180910390a15b5050505050565b610be6610ecd565b60098190556040518181527f84d1f8d2c9ba454b06df43183ae338b2b5a74577165a4f6da4bf9fb1c97150b990602001610700565b610c23610ecd565b60008190556040518181527f22fe2223e14ea505e8019060275c616c925fe1b70ac950d69710607cae7dbdb490602001610700565b610c60610ecd565b601655565b610c6d610ecd565b60078190556040518181527f6f22eee821d9a1be7f38eb2bb9dd0079d15218a35ae8b2a76edb58da09745bfa90602001610700565b610caa610ecd565b60108190556040518181527f37922645ead4cf90188f0a4bbaf4d7024527062c6dbb7935e2b0c5dd5e93a14c90602001610700565b610ce7610ecd565b60148190556040518181527f72d13688fb5cfd8d2a1274e1ed6f2632dfe603cd82d672d443fc6b0c05030a9b90602001610700565b610d24610ecd565b60088190556040518181527f2ff566136cf6fdd04afd45f5a82fd17dfe63d4c97ab769b17cc58a970ff836a090602001610700565b610d61610ecd565b60058190556040518181527fc0f54bca20d00cc23e3a07d08226264ab44cfa8047b5f1811e03337a46370b8a90602001610700565b610d9e610ecd565b60018190556040518181527ffb17b2d1826d4e33039da2bf34ab0fe52c237879b381da3eddfe3a2a3c5f225890602001610700565b610ddb610ecd565b60138190556040518181527f23957cd2dc14a1aedfe6601744a9b208807bffe4891fb3726e7c618f8686b24090602001610700565b610e18610ecd565b600c8190556040518181527fe8a9347956404e5db33e93654506ddb13e7c6308729fddabd3b46aed46b8e41c90602001610700565b610e55610ecd565b6001600160a01b038116610e8457604051631e4fbdf760e01b8152600060048201526024015b60405180910390fd5b610e8d81610f28565b50565b610e98610ecd565b600e8190556040518181527f6783c913461f586fec289f9970953a3374484aa9a21f174d64d14ddb8c87963390602001610700565b33610eff7f9016d09d72d40fdae2fd8ceac6b6234c7706214fd39c1cd1e609a0528c199300546001600160a01b031690565b6001600160a01b03161461097f5760405163118cdaa760e01b8152336004820152602401610e7b565b7f9016d09d72d40fdae2fd8ceac6b6234c7706214fd39c1cd1e609a0528c19930080546001600160a01b031981166001600160a01b03848116918217845560405192169182907f8be0079c531659141344cd1fd0a4f28419497f9722a3daafe3b4186f6b6457e090600090a3505050565b610fa1610faa565b610e8d81610ff3565b7ff0c57e16840df040f15088dc2f81fe391c3923bec73e23a9662efc9c229c6a0054600160401b900460ff1661097f57604051631afcd79f60e31b815260040160405180910390fd5b610e55610faa565b60006020828403121561100d57600080fd5b5035919050565b60006020828403121561102657600080fd5b81356001600160a01b038116811461103d57600080fd5b939250505056fea264697066735822122036f920a2171bf377f8c6fc6b2f42a4dea7a923de8adce7decb754cf9cd3cc86264736f6c63430008190033","linkReferences":{}},"methodIdentifiers":{"Cn()":"e35ef3b4","Cp()":"ba7f3878","Cs()":"b6f9cf6a","amountToLevelUp()":"8ff0ae37","baseHealthDeductionAfterRaid()":"16b24c0b","baseHoneyRaidReward()":"b6d07575","baseHoneyYield()":"b9e59a07","beeEnergyRefreshInterval()":"2aa26b3c","beeHealthRefreshInterval()":"3d6e3e65","claimTimeInterval()":"87063ead","experienceEarnedAfterForage()":"166ce745","experienceEarnedAfterRaidFailed()":"c8a93336","experienceEarnedAfterRaidSuccess()":"37a11a63","foragePercentage()":"7f50b6fd","honeyYieldConstant()":"477e8c41","initialize()":"8129fc1c","maxEnergyDeductionValue()":"eeeb7ad2","maxQueen()":"8ccf96d7","maxResourcesValue()":"3cf4766b","maxWorker()":"945b6123","minEnergyDeductionValue()":"bcd47fc0","minResourcesValue()":"f8ac2843","nectarRequiredToClaim()":"265670e7","owner()":"8da5cb5b","productivityEarnAfterRaid()":"dc33615c","raidHoneyFee()":"adfa1647","raidSapFee()":"c688e25d","renounceOwnership()":"715018a6","resourcesRefreshInterval()":"0c52bbbc","setAmountToLevelUp(uint256)":"0a232149","setBaseHealthDeductionAfterRaid(uint256)":"d9403d16","setBaseHoneyRaidReward(uint256)":"7391c443","setBaseHoneyYield(uint256)":"b7de13c1","setBeeEnergyRefreshInterval(uint256)":"9a1aa197","setBeeHealthRefreshInterval(uint256)":"d375a9b4","setClaimTimeInterval(uint256)":"646216e4","setCn(uint256)":"591bd005","setCp(uint256)":"2bb16c1e","setCs(uint256)":"71cc9f84","setExperienceEarnedAfterForage(uint256)":"8454964a","setExperienceEarnedAfterRaidFailed(uint256)":"29005995","setExperienceEarnedAfterRaidSuccess(uint256)":"4c5bd4a1","setForagePercentage(uint256)":"cabae1a5","setHoneyYieldConstant(uint256)":"b96d7e92","setMaxEnergyDeductionValue(uint256)":"d656ccd6","setMaxQueen(uint256)":"2e4157a2","setMaxResourcesValue(uint256)":"37b769b9","setMaxWorker(uint256)":"05657e37","setMinEnergyDeductionValue(uint256)":"c3cee85b","setMinResourcesValue(uint256)":"7f19b63c","setNectarRequiredToClaim(uint256)":"ca7f790a","setProductivityEarnAfterRaid(uint256)":"bfcce4f6","setRaidHoneyFee(uint256)":"08e388fd","setRaidSapFee(uint256)":"ff2c4b03","setResourcesRefreshInterval(uint256)":"64a817bf","transferOwnership(address)":"f2fde38b"},"id":8}