{"abi":[{"type":"function","name":"Cn","inputs":[],"outputs":[{"name":"","type":"uint256","internalType":"uint256"}],"stateMutability":"view"},{"type":"function","name":"Cp","inputs":[],"outputs":[{"name":"","type":"uint256","internalType":"uint256"}],"stateMutability":"view"},{"type":"function","name":"Cs","inputs":[],"outputs":[{"name":"","type":"uint256","internalType":"uint256"}],"stateMutability":"view"},{"type":"function","name":"amountAttackIncreaseOnLevelUp","inputs":[],"outputs":[{"name":"","type":"uint256","internalType":"uint256"}],"stateMutability":"view"},{"type":"function","name":"amountBaseProductivityIncreaseOnLevelUp","inputs":[],"outputs":[{"name":"","type":"uint256","internalType":"uint256"}],"stateMutability":"view"},{"type":"function","name":"amountDefenseIncreaseOnLevelUp","inputs":[],"outputs":[{"name":"","type":"uint256","internalType":"uint256"}],"stateMutability":"view"},{"type":"function","name":"amountEnergyIncreaseOnLevelUp","inputs":[],"outputs":[{"name":"","type":"uint256","internalType":"uint256"}],"stateMutability":"view"},{"type":"function","name":"amountForageIncreaseOnLevelUp","inputs":[],"outputs":[{"name":"","type":"uint256","internalType":"uint256"}],"stateMutability":"view"},{"type":"function","name":"amountHealthIncreaseOnLevelUp","inputs":[],"outputs":[{"name":"","type":"uint256","internalType":"uint256"}],"stateMutability":"view"},{"type":"function","name":"amountMaxProductivityIncreaseOnLevelUp","inputs":[],"outputs":[{"name":"","type":"uint256","internalType":"uint256"}],"stateMutability":"view"},{"type":"function","name":"amountToLevelUp","inputs":[],"outputs":[{"name":"","type":"uint256","internalType":"uint256"}],"stateMutability":"view"},{"type":"function","name":"baseEnergyDeductionAfterRaid","inputs":[],"outputs":[{"name":"","type":"uint256","internalType":"uint256"}],"stateMutability":"view"},{"type":"function","name":"baseEnergyDeductionAfterUpgrade","inputs":[],"outputs":[{"name":"","type":"uint256","internalType":"uint256"}],"stateMutability":"view"},{"type":"function","name":"baseHealthDeductionAfterRaid","inputs":[],"outputs":[{"name":"","type":"uint256","internalType":"uint256"}],"stateMutability":"view"},{"type":"function","name":"baseHoneyRaidReward","inputs":[],"outputs":[{"name":"","type":"uint256","internalType":"uint256"}],"stateMutability":"view"},{"type":"function","name":"baseHoneyYield","inputs":[],"outputs":[{"name":"","type":"uint256","internalType":"uint256"}],"stateMutability":"view"},{"type":"function","name":"baseIncentivePerEpoch","inputs":[],"outputs":[{"name":"","type":"uint256","internalType":"uint256"}],"stateMutability":"view"},{"type":"function","name":"baseNectarUsePerUpgrade","inputs":[],"outputs":[{"name":"","type":"uint256","internalType":"uint256"}],"stateMutability":"view"},{"type":"function","name":"baseNumberOfForagingQuest","inputs":[],"outputs":[{"name":"","type":"uint256","internalType":"uint256"}],"stateMutability":"view"},{"type":"function","name":"baseNumberOfRaidQuest","inputs":[],"outputs":[{"name":"","type":"uint256","internalType":"uint256"}],"stateMutability":"view"},{"type":"function","name":"baseNumberOfRaidSuccessQuest","inputs":[],"outputs":[{"name":"","type":"uint256","internalType":"uint256"}],"stateMutability":"view"},{"type":"function","name":"baseNumberOfUpgradeQuest","inputs":[],"outputs":[{"name":"","type":"uint256","internalType":"uint256"}],"stateMutability":"view"},{"type":"function","name":"basePollenUsePerUpgrade","inputs":[],"outputs":[{"name":"","type":"uint256","internalType":"uint256"}],"stateMutability":"view"},{"type":"function","name":"baseSapUsePerUpgrade","inputs":[],"outputs":[{"name":"","type":"uint256","internalType":"uint256"}],"stateMutability":"view"},{"type":"function","name":"beeEnergyRefreshInterval","inputs":[],"outputs":[{"name":"","type":"uint256","internalType":"uint256"}],"stateMutability":"view"},{"type":"function","name":"beeHealthRefreshInterval","inputs":[],"outputs":[{"name":"","type":"uint256","internalType":"uint256"}],"stateMutability":"view"},{"type":"function","name":"claimTimeInterval","inputs":[],"outputs":[{"name":"","type":"uint256","internalType":"uint256"}],"stateMutability":"view"},{"type":"function","name":"differenceBetweenLevels","inputs":[],"outputs":[{"name":"","type":"uint256","internalType":"uint256"}],"stateMutability":"view"},{"type":"function","name":"experienceEarnedAfterForage","inputs":[],"outputs":[{"name":"","type":"uint256","internalType":"uint256"}],"stateMutability":"view"},{"type":"function","name":"experienceEarnedAfterRaidFailed","inputs":[],"outputs":[{"name":"","type":"uint256","internalType":"uint256"}],"stateMutability":"view"},{"type":"function","name":"experienceEarnedAfterRaidSuccess","inputs":[],"outputs":[{"name":"","type":"uint256","internalType":"uint256"}],"stateMutability":"view"},{"type":"function","name":"experienceEarnedAfterUpgrade","inputs":[],"outputs":[{"name":"","type":"uint256","internalType":"uint256"}],"stateMutability":"view"},{"type":"function","name":"foragePercentage","inputs":[],"outputs":[{"name":"","type":"uint256","internalType":"uint256"}],"stateMutability":"view"},{"type":"function","name":"honeyYieldConstant","inputs":[],"outputs":[{"name":"","type":"uint256","internalType":"uint256"}],"stateMutability":"view"},{"type":"function","name":"incentiveEarnAfterRaid","inputs":[],"outputs":[{"name":"","type":"uint256","internalType":"uint256"}],"stateMutability":"view"},{"type":"function","name":"initialize","inputs":[],"outputs":[],"stateMutability":"nonpayable"},{"type":"function","name":"maxQueen","inputs":[],"outputs":[{"name":"","type":"uint256","internalType":"uint256"}],"stateMutability":"view"},{"type":"function","name":"maxResourcesValue","inputs":[],"outputs":[{"name":"","type":"uint256","internalType":"uint256"}],"stateMutability":"view"},{"type":"function","name":"maxWorker","inputs":[],"outputs":[{"name":"","type":"uint256","internalType":"uint256"}],"stateMutability":"view"},{"type":"function","name":"minResourcesValue","inputs":[],"outputs":[{"name":"","type":"uint256","internalType":"uint256"}],"stateMutability":"view"},{"type":"function","name":"nectarRequiredToClaim","inputs":[],"outputs":[{"name":"","type":"uint256","internalType":"uint256"}],"stateMutability":"view"},{"type":"function","name":"owner","inputs":[],"outputs":[{"name":"","type":"address","internalType":"address"}],"stateMutability":"view"},{"type":"function","name":"raidHoneyFee","inputs":[],"outputs":[{"name":"","type":"uint256","internalType":"uint256"}],"stateMutability":"view"},{"type":"function","name":"raidSapFee","inputs":[],"outputs":[{"name":"","type":"uint256","internalType":"uint256"}],"stateMutability":"view"},{"type":"function","name":"renounceOwnership","inputs":[],"outputs":[],"stateMutability":"nonpayable"},{"type":"function","name":"resourcesRefreshInterval","inputs":[],"outputs":[{"name":"","type":"uint256","internalType":"uint256"}],"stateMutability":"view"},{"type":"function","name":"setAmountAttackIncreaseOnLevelUp","inputs":[{"name":"_amountAttackIncreaseOnLevelUp","type":"uint256","internalType":"uint256"}],"outputs":[],"stateMutability":"nonpayable"},{"type":"function","name":"setAmountBaseProductivityIncreaseOnLevelUp","inputs":[{"name":"_amountBaseProductivityIncreaseOnLevelUp","type":"uint256","internalType":"uint256"}],"outputs":[],"stateMutability":"nonpayable"},{"type":"function","name":"setAmountDefenseIncreaseOnLevelUp","inputs":[{"name":"_amountDefenseIncreaseOnLevelUp","type":"uint256","internalType":"uint256"}],"outputs":[],"stateMutability":"nonpayable"},{"type":"function","name":"setAmountEnergyIncreaseOnLevelUp","inputs":[{"name":"_amountEnergyIncreaseOnLevelUp","type":"uint256","internalType":"uint256"}],"outputs":[],"stateMutability":"nonpayable"},{"type":"function","name":"setAmountForageIncreaseOnLevelUp","inputs":[{"name":"_amountForageIncreaseOnLevelUp","type":"uint256","internalType":"uint256"}],"outputs":[],"stateMutability":"nonpayable"},{"type":"function","name":"setAmountHealthIncreaseOnLevelUp","inputs":[{"name":"_amountHealthIncreaseOnLevelUp","type":"uint256","internalType":"uint256"}],"outputs":[],"stateMutability":"nonpayable"},{"type":"function","name":"setAmountMaxProductivityIncreaseOnLevelUp","inputs":[{"name":"_amountMaxProductivityIncreaseOnLevelUp","type":"uint256","internalType":"uint256"}],"outputs":[],"stateMutability":"nonpayable"},{"type":"function","name":"setAmountToLevelUp","inputs":[{"name":"_amountToLevelUp","type":"uint256","internalType":"uint256"}],"outputs":[],"stateMutability":"nonpayable"},{"type":"function","name":"setBaseEnergyDeductionAfterRaid","inputs":[{"name":"_baseEnergyDeductionAfterRaid","type":"uint256","internalType":"uint256"}],"outputs":[],"stateMutability":"nonpayable"},{"type":"function","name":"setBaseEnergyDeductionAfterUpgrade","inputs":[{"name":"_baseEnergyDeductionAfterUpgrade","type":"uint256","internalType":"uint256"}],"outputs":[],"stateMutability":"nonpayable"},{"type":"function","name":"setBaseHealthDeductionAfterRaid","inputs":[{"name":"_baseHealthDeductionAfterRaid","type":"uint256","internalType":"uint256"}],"outputs":[],"stateMutability":"nonpayable"},{"type":"function","name":"setBaseHoneyRaidReward","inputs":[{"name":"_baseHoneyRaidReward","type":"uint256","internalType":"uint256"}],"outputs":[],"stateMutability":"nonpayable"},{"type":"function","name":"setBaseHoneyYield","inputs":[{"name":"_baseHoneyYield","type":"uint256","internalType":"uint256"}],"outputs":[],"stateMutability":"nonpayable"},{"type":"function","name":"setBaseIncentivePerEpoch","inputs":[{"name":"_baseIncentivePerEpoch","type":"uint256","internalType":"uint256"}],"outputs":[],"stateMutability":"nonpayable"},{"type":"function","name":"setBaseNectarUsePerUpgrade","inputs":[{"name":"_baseNectarUsePerUpgrade","type":"uint256","internalType":"uint256"}],"outputs":[],"stateMutability":"nonpayable"},{"type":"function","name":"setBaseNumberOfForagingQuest","inputs":[{"name":"_baseNumberOfForagingQuest","type":"uint256","internalType":"uint256"}],"outputs":[],"stateMutability":"nonpayable"},{"type":"function","name":"setBaseNumberOfRaidQuest","inputs":[{"name":"_baseNumberOfRaidQuest","type":"uint256","internalType":"uint256"}],"outputs":[],"stateMutability":"nonpayable"},{"type":"function","name":"setBaseNumberOfRaidSuccessQuest","inputs":[{"name":"_baseNumberOfRaidSuccessQuest","type":"uint256","internalType":"uint256"}],"outputs":[],"stateMutability":"nonpayable"},{"type":"function","name":"setBaseNumberOfUpgradeQuest","inputs":[{"name":"_baseNumberOfUpgradeQuest","type":"uint256","internalType":"uint256"}],"outputs":[],"stateMutability":"nonpayable"},{"type":"function","name":"setBasePollenUsePerUpgrade","inputs":[{"name":"_basePollenUsePerUpgrade","type":"uint256","internalType":"uint256"}],"outputs":[],"stateMutability":"nonpayable"},{"type":"function","name":"setBaseSapUsePerUpgrade","inputs":[{"name":"_baseSapUsePerUpgrade","type":"uint256","internalType":"uint256"}],"outputs":[],"stateMutability":"nonpayable"},{"type":"function","name":"setBeeEnergyRefreshInterval","inputs":[{"name":"_beeEnergyRefreshInterval","type":"uint256","internalType":"uint256"}],"outputs":[],"stateMutability":"nonpayable"},{"type":"function","name":"setBeeHealthRefreshInterval","inputs":[{"name":"_beeHealthRefreshInterval","type":"uint256","internalType":"uint256"}],"outputs":[],"stateMutability":"nonpayable"},{"type":"function","name":"setClaimTimeInterval","inputs":[{"name":"_claimTimeInterval","type":"uint256","internalType":"uint256"}],"outputs":[],"stateMutability":"nonpayable"},{"type":"function","name":"setCn","inputs":[{"name":"_Cn","type":"uint256","internalType":"uint256"}],"outputs":[],"stateMutability":"nonpayable"},{"type":"function","name":"setCp","inputs":[{"name":"_Cp","type":"uint256","internalType":"uint256"}],"outputs":[],"stateMutability":"nonpayable"},{"type":"function","name":"setCs","inputs":[{"name":"_Cs","type":"uint256","internalType":"uint256"}],"outputs":[],"stateMutability":"nonpayable"},{"type":"function","name":"setDifferenceBetweenLevels","inputs":[{"name":"_differenceBetweenLevels","type":"uint256","internalType":"uint256"}],"outputs":[],"stateMutability":"nonpayable"},{"type":"function","name":"setExperienceEarnedAfterForage","inputs":[{"name":"_experienceEarnedAfterForage","type":"uint256","internalType":"uint256"}],"outputs":[],"stateMutability":"nonpayable"},{"type":"function","name":"setExperienceEarnedAfterRaidFailed","inputs":[{"name":"_experienceEarnedAfterRaidFailed","type":"uint256","internalType":"uint256"}],"outputs":[],"stateMutability":"nonpayable"},{"type":"function","name":"setExperienceEarnedAfterRaidSuccess","inputs":[{"name":"_experienceEarnedAfterRaidSuccess","type":"uint256","internalType":"uint256"}],"outputs":[],"stateMutability":"nonpayable"},{"type":"function","name":"setExperienceEarnedAfterUpgrade","inputs":[{"name":"_experienceEarnedAfterUpgrade","type":"uint256","internalType":"uint256"}],"outputs":[],"stateMutability":"nonpayable"},{"type":"function","name":"setForagePercentage","inputs":[{"name":"_foragePercentage","type":"uint256","internalType":"uint256"}],"outputs":[],"stateMutability":"nonpayable"},{"type":"function","name":"setHoneyYieldConstant","inputs":[{"name":"_honeyYieldConstant","type":"uint256","internalType":"uint256"}],"outputs":[],"stateMutability":"nonpayable"},{"type":"function","name":"setIncentiveEarnAfterRaid","inputs":[{"name":"_incentiveEarnAfterRaid","type":"uint256","internalType":"uint256"}],"outputs":[],"stateMutability":"nonpayable"},{"type":"function","name":"setMaxQueen","inputs":[{"name":"_maxQueen","type":"uint256","internalType":"uint256"}],"outputs":[],"stateMutability":"nonpayable"},{"type":"function","name":"setMaxResourcesValue","inputs":[{"name":"_maxResourcesValue","type":"uint256","internalType":"uint256"}],"outputs":[],"stateMutability":"nonpayable"},{"type":"function","name":"setMaxWorker","inputs":[{"name":"_maxWorker","type":"uint256","internalType":"uint256"}],"outputs":[],"stateMutability":"nonpayable"},{"type":"function","name":"setMinResourcesValue","inputs":[{"name":"_minResourcesValue","type":"uint256","internalType":"uint256"}],"outputs":[],"stateMutability":"nonpayable"},{"type":"function","name":"setNectarRequiredToClaim","inputs":[{"name":"_nectarRequiredToClaim","type":"uint256","internalType":"uint256"}],"outputs":[],"stateMutability":"nonpayable"},{"type":"function","name":"setRaidHoneyFee","inputs":[{"name":"_raidHoneyFee","type":"uint256","internalType":"uint256"}],"outputs":[],"stateMutability":"nonpayable"},{"type":"function","name":"setRaidSapFee","inputs":[{"name":"_raidSapFee","type":"uint256","internalType":"uint256"}],"outputs":[],"stateMutability":"nonpayable"},{"type":"function","name":"setResourcesRefreshInterval","inputs":[{"name":"_resourcesRefreshInterval","type":"uint256","internalType":"uint256"}],"outputs":[],"stateMutability":"nonpayable"},{"type":"function","name":"transferOwnership","inputs":[{"name":"newOwner","type":"address","internalType":"address"}],"outputs":[],"stateMutability":"nonpayable"},{"type":"event","name":"AmountAttackIncreaseOnLevelUpChanged","inputs":[{"name":"newAmountAttackIncreaseOnLevelUp","type":"uint256","indexed":false,"internalType":"uint256"}],"anonymous":false},{"type":"event","name":"AmountBaseProductivityIncreaseOnLevelUpChanged","inputs":[{"name":"newAmountBaseProductivityIncreaseOnLevelUp","type":"uint256","indexed":false,"internalType":"uint256"}],"anonymous":false},{"type":"event","name":"AmountDefenseIncreaseOnLevelUpChanged","inputs":[{"name":"newAmountDefenseIncreaseOnLevelUp","type":"uint256","indexed":false,"internalType":"uint256"}],"anonymous":false},{"type":"event","name":"AmountEnergyIncreaseOnLevelUpChanged","inputs":[{"name":"newAmountEnergyIncreaseOnLevelUp","type":"uint256","indexed":false,"internalType":"uint256"}],"anonymous":false},{"type":"event","name":"AmountForageIncreaseOnLevelUpChanged","inputs":[{"name":"newAmountForageIncreaseOnLevelUp","type":"uint256","indexed":false,"internalType":"uint256"}],"anonymous":false},{"type":"event","name":"AmountHealthIncreaseOnLevelUpChanged","inputs":[{"name":"newAmountHealthIncreaseOnLevelUp","type":"uint256","indexed":false,"internalType":"uint256"}],"anonymous":false},{"type":"event","name":"AmountMaxProductivityIncreaseOnLevelUpChanged","inputs":[{"name":"newAmountMaxProductivityIncreaseOnLevelUp","type":"uint256","indexed":false,"internalType":"uint256"}],"anonymous":false},{"type":"event","name":"AmountToLevelUpChanged","inputs":[{"name":"newAmountToLevelUp","type":"uint256","indexed":false,"internalType":"uint256"}],"anonymous":false},{"type":"event","name":"BaseEnergyDeductionAfterRaidChanged","inputs":[{"name":"newBaseEnergyDeductionAfterRaid","type":"uint256","indexed":false,"internalType":"uint256"}],"anonymous":false},{"type":"event","name":"BaseEnergyDeductionAfterUpgradeChanged","inputs":[{"name":"newBaseEnergyDeductionAfterUpgrade","type":"uint256","indexed":false,"internalType":"uint256"}],"anonymous":false},{"type":"event","name":"BaseHealthDeductionAfterRaidChanged","inputs":[{"name":"newBaseHealthDeductionAfterRaid","type":"uint256","indexed":false,"internalType":"uint256"}],"anonymous":false},{"type":"event","name":"BaseHoneyRaidRewardChanged","inputs":[{"name":"newBaseHoneyRaidReward","type":"uint256","indexed":false,"internalType":"uint256"}],"anonymous":false},{"type":"event","name":"BaseHoneyYieldChanged","inputs":[{"name":"newBaseHoneyYield","type":"uint256","indexed":false,"internalType":"uint256"}],"anonymous":false},{"type":"event","name":"BaseIncentivePerEpochChanged","inputs":[{"name":"newBaseIncentivePerEpoch","type":"uint256","indexed":false,"internalType":"uint256"}],"anonymous":false},{"type":"event","name":"BaseNectarUsePerUpgradeChanged","inputs":[{"name":"newBaseNectarPerUpgrade","type":"uint256","indexed":false,"internalType":"uint256"}],"anonymous":false},{"type":"event","name":"BaseNumberOfForagingQuestChanged","inputs":[{"name":"newBaseNumberOfForagingQuest","type":"uint256","indexed":false,"internalType":"uint256"}],"anonymous":false},{"type":"event","name":"BaseNumberOfRaidQuestChanged","inputs":[{"name":"newBaseNumberOfRaidQuest","type":"uint256","indexed":false,"internalType":"uint256"}],"anonymous":false},{"type":"event","name":"BaseNumberOfRaidSuccessQuestChanged","inputs":[{"name":"newBaseNumberOfRaidSuccessQuest","type":"uint256","indexed":false,"internalType":"uint256"}],"anonymous":false},{"type":"event","name":"BaseNumberOfUpgradeQuestChanged","inputs":[{"name":"newBaseNumberOfUpgradeQuest","type":"uint256","indexed":false,"internalType":"uint256"}],"anonymous":false},{"type":"event","name":"BasePollenUsePerUpgradeChanged","inputs":[{"name":"newBasePollenPerUpgrade","type":"uint256","indexed":false,"internalType":"uint256"}],"anonymous":false},{"type":"event","name":"BaseSapUsePerUpgradeChanged","inputs":[{"name":"newBaseSapPerUpgrade","type":"uint256","indexed":false,"internalType":"uint256"}],"anonymous":false},{"type":"event","name":"BeeEnergyRefreshIntervalChanged","inputs":[{"name":"newBeeEnergyRefreshInterval","type":"uint256","indexed":false,"internalType":"uint256"}],"anonymous":false},{"type":"event","name":"BeeHealthRefreshIntervalChanged","inputs":[{"name":"newBeeHealthRefreshInterval","type":"uint256","indexed":false,"internalType":"uint256"}],"anonymous":false},{"type":"event","name":"ClaimTimeIntervalChanged","inputs":[{"name":"newClaimTimeInterval","type":"uint256","indexed":false,"internalType":"uint256"}],"anonymous":false},{"type":"event","name":"CnChanged","inputs":[{"name":"newCn","type":"uint256","indexed":false,"internalType":"uint256"}],"anonymous":false},{"type":"event","name":"CpChanged","inputs":[{"name":"newCp","type":"uint256","indexed":false,"internalType":"uint256"}],"anonymous":false},{"type":"event","name":"CsChanged","inputs":[{"name":"newCs","type":"uint256","indexed":false,"internalType":"uint256"}],"anonymous":false},{"type":"event","name":"DifferenceBetweenLevelsChanged","inputs":[{"name":"newDifferenceBetweenLevels","type":"uint256","indexed":false,"internalType":"uint256"}],"anonymous":false},{"type":"event","name":"ExperienceEarnedAfterForageChanged","inputs":[{"name":"newExperienceEarnedAfterForage","type":"uint256","indexed":false,"internalType":"uint256"}],"anonymous":false},{"type":"event","name":"ExperienceEarnedAfterRaidFailedChanged","inputs":[{"name":"newExperienceEarnedAfterRaidFailed","type":"uint256","indexed":false,"internalType":"uint256"}],"anonymous":false},{"type":"event","name":"ExperienceEarnedAfterRaidSuccessChanged","inputs":[{"name":"newExperienceEarnedAfterRaidSuccess","type":"uint256","indexed":false,"internalType":"uint256"}],"anonymous":false},{"type":"event","name":"ExperienceEarnedAfterUpgradeChanged","inputs":[{"name":"newExperienceEarnedAfterUpgrade","type":"uint256","indexed":false,"internalType":"uint256"}],"anonymous":false},{"type":"event","name":"ForagePercentageChanged","inputs":[{"name":"newForagePercentage","type":"uint256","indexed":false,"internalType":"uint256"}],"anonymous":false},{"type":"event","name":"HoneyYieldConstantChanged","inputs":[{"name":"newHoneyYieldConstant","type":"uint256","indexed":false,"internalType":"uint256"}],"anonymous":false},{"type":"event","name":"IncentiveEarnAfterRaidChanged","inputs":[{"name":"newIncentiveEarnAfterRaid","type":"uint256","indexed":false,"internalType":"uint256"}],"anonymous":false},{"type":"event","name":"Initialized","inputs":[{"name":"version","type":"uint64","indexed":false,"internalType":"uint64"}],"anonymous":false},{"type":"event","name":"MaxEnergyDeductionValueChanged","inputs":[{"name":"newMaxEnergyDeductionValue","type":"uint256","indexed":false,"internalType":"uint256"}],"anonymous":false},{"type":"event","name":"MaxQueenChanged","inputs":[{"name":"newMaxQueen","type":"uint256","indexed":false,"internalType":"uint256"}],"anonymous":false},{"type":"event","name":"MaxResourcesValueChanged","inputs":[{"name":"newMaxResourcesValue","type":"uint256","indexed":false,"internalType":"uint256"}],"anonymous":false},{"type":"event","name":"MaxWorkerChanged","inputs":[{"name":"newMaxWorker","type":"uint256","indexed":false,"internalType":"uint256"}],"anonymous":false},{"type":"event","name":"MinEnergyDeductionValueChanged","inputs":[{"name":"newMinEnergyDeductionValue","type":"uint256","indexed":false,"internalType":"uint256"}],"anonymous":false},{"type":"event","name":"MinResourcesValueChanged","inputs":[{"name":"newMinResourcesValue","type":"uint256","indexed":false,"internalType":"uint256"}],"anonymous":false},{"type":"event","name":"NectarRequiredToClaimChanged","inputs":[{"name":"newNectarRequiredToClaim","type":"uint256","indexed":false,"internalType":"uint256"}],"anonymous":false},{"type":"event","name":"OwnershipTransferred","inputs":[{"name":"previousOwner","type":"address","indexed":true,"internalType":"address"},{"name":"newOwner","type":"address","indexed":true,"internalType":"address"}],"anonymous":false},{"type":"event","name":"RaidHoneyFeeChanged","inputs":[{"name":"newRaidHoneyFee","type":"uint256","indexed":false,"internalType":"uint256"}],"anonymous":false},{"type":"event","name":"RaidSapFeeChanged","inputs":[{"name":"newRaidSapFee","type":"uint256","indexed":false,"internalType":"uint256"}],"anonymous":false},{"type":"event","name":"ResourcesRefreshIntervalChanged","inputs":[{"name":"newResourcesRefreshInterval","type":"uint256","indexed":false,"internalType":"uint256"}],"anonymous":false},{"type":"error","name":"InvalidInitialization","inputs":[]},{"type":"error","name":"NotInitializing","inputs":[]},{"type":"error","name":"OwnableInvalidOwner","inputs":[{"name":"owner","type":"address","internalType":"address"}]},{"type":"error","name":"OwnableUnauthorizedAccount","inputs":[{"name":"account","type":"address","internalType":"address"}]}],"bytecode":{"object":"0x6080604052348015600f57600080fd5b5061186d8061001f6000396000f3fe608060405234801561001057600080fd5b50600436106104ee5760003560e01c80638129fc1c1161028e578063bce3216611610167578063e35ef3b4116100d9578063f65ebdf811610092578063f65ebdf8146109c5578063f7d9426d146109ce578063f7f583e6146109e1578063f82f0e42146109f4578063f8ac2843146109fd578063ff2c4b0314610a0657600080fd5b8063e35ef3b414610971578063ecec50761461097a578063f28508b614610983578063f2fde38b1461098c578063f4d10be11461099f578063f5e2dfa1146109b257600080fd5b8063cb949e321161012b578063cb949e3214610913578063cc0344dc14610926578063d0a4626114610939578063d375a9b414610942578063d9403d1614610955578063e1d7520b1461096857600080fd5b8063bce32166146108c8578063c688e25d146108db578063c8a93336146108e4578063ca7f790a146108ed578063cabae1a51461090057600080fd5b8063a158298a11610200578063b6d07575116101c4578063b6d075751461087e578063b6f9cf6a14610887578063b7de13c114610890578063b96d7e92146108a3578063b9e59a07146108b6578063ba7f3878146108bf57600080fd5b8063a158298a14610847578063a37acd071461085a578063aa2018b914610863578063adfa16471461086c578063b308b1031461087557600080fd5b80638ff0ae37116102525780638ff0ae3714610807578063908cf6ec1461081057806390ca2390146108195780639116504514610822578063945b61231461082b5780639a1aa1971461083457600080fd5b80638129fc1c146107a05780638454964a146107a857806387063ead146107bb5780638ccf96d7146107c45780638da5cb5b146107cd57600080fd5b8063303e966a116103cb578063591bd0051161033d57806371cc9f84116102f657806371cc9f84146107385780637391c4431461074b5780637497b7f31461075e5780637701c733146107715780637f19b63c146107845780637f50b6fd1461079757600080fd5b8063591bd005146106d15780635ce7e020146106e4578063646216e4146106f757806364a817bf1461070a578063710f2a2d1461071d578063715018a61461073057600080fd5b80633cf4766b1161038f5780633cf4766b146106875780633d6e3e65146106905780634480218914610699578063477e8c41146106ac5780634c5bd4a1146106b557806352539b79146106c857600080fd5b8063303e966a1461063257806331c668281461064557806337a11a631461065857806337b769b9146106615780633a5c9fca1461067457600080fd5b80631ecfc8dc11610464578063290059951161042857806329005995146105d457806329cc5403146105e75780632aa26b3c146105fa5780632bb16c1e146106035780632e4157a2146106165780632ef3a8ae1461062957600080fd5b80631ecfc8dc1461059d5780631ffc45a3146105a6578063265670e7146105af5780632694f2a5146105b857806328725b9e146105c157600080fd5b806310a2028a116104b657806310a2028a1461055357806314f97f3a1461055c578063166ce7451461056557806316b24c0b1461056e578063192d823f146105775780631ebc34c81461058a57600080fd5b806304dbe873146104f357806305657e371461050f57806308e388fd146105245780630a232149146105375780630c52bbbc1461054a575b600080fd5b6104fc601d5481565b6040519081526020015b60405180910390f35b61052261051d3660046117ee565b610a19565b005b6105226105323660046117ee565b610a5d565b6105226105453660046117ee565b610a9a565b6104fc60165481565b6104fc60215481565b6104fc600e5481565b6104fc60095481565b6104fc600d5481565b6105226105853660046117ee565b610ad7565b6105226105983660046117ee565b610b14565b6104fc60225481565b6104fc60185481565b6104fc60085481565b6104fc601a5481565b6105226105cf3660046117ee565b610b51565b6105226105e23660046117ee565b610b8e565b6105226105f53660046117ee565b610bcb565b6104fc60005481565b6105226106113660046117ee565b610c08565b6105226106243660046117ee565b610c45565b6104fc60235481565b6105226106403660046117ee565b610c82565b6105226106533660046117ee565b610cbf565b6104fc600b5481565b61052261066f3660046117ee565b610cfc565b6105226106823660046117ee565b610d39565b6104fc60145481565b6104fc60015481565b6105226106a73660046117ee565b610d76565b6104fc60075481565b6105226106c33660046117ee565b610db3565b6104fc60205481565b6105226106df3660046117ee565b610df0565b6105226106f23660046117ee565b610e2d565b6105226107053660046117ee565b610e6a565b6105226107183660046117ee565b610ea7565b61052261072b3660046117ee565b610ee4565b610522610f21565b6105226107463660046117ee565b610f35565b6105226107593660046117ee565b610f72565b61052261076c3660046117ee565b610faf565b61052261077f3660046117ee565b610fec565b6105226107923660046117ee565b611029565b6104fc60055481565b610522611066565b6105226107b63660046117ee565b611272565b6104fc60065481565b6104fc60035481565b7f9016d09d72d40fdae2fd8ceac6b6234c7706214fd39c1cd1e609a0528c199300546040516001600160a01b039091168152602001610506565b6104fc60025481565b6104fc60245481565b6104fc60135481565b6104fc60265481565b6104fc60045481565b6105226108423660046117ee565b6112af565b6105226108553660046117ee565b6112ec565b6104fc601e5481565b6104fc601c5481565b6104fc60105481565b6104fc60195481565b6104fc60125481565b6104fc60285481565b61052261089e3660046117ee565b611329565b6105226108b13660046117ee565b611366565b6104fc60175481565b6104fc602a5481565b6105226108d63660046117ee565b6113a3565b6104fc60115481565b6104fc600a5481565b6105226108fb3660046117ee565b6113e0565b61052261090e3660046117ee565b61141d565b6105226109213660046117ee565b61145a565b6105226109343660046117ee565b611495565b6104fc60255481565b6105226109503660046117ee565b6114d2565b6105226109633660046117ee565b61150f565b6104fc600f5481565b6104fc60295481565b6104fc600c5481565b6104fc601b5481565b61052261099a366004611807565b61154c565b6105226109ad3660046117ee565b61158f565b6105226109c03660046117ee565b6115cc565b6104fc601f5481565b6105226109dc3660046117ee565b611609565b6105226109ef3660046117ee565b611646565b6104fc60275481565b6104fc60155481565b610522610a143660046117ee565b611683565b610a216116c0565b60048190556040518181527facde2766dd9eadbc2048ec6df042a0936d90cd33e001208c8d67178b71659f04906020015b60405180910390a150565b610a656116c0565b60108190556040518181527fae2c222c862b4f99f464f4ec1139235115b8af76ca1d549d522ec24a1dd1185e90602001610a52565b610aa26116c0565b60028190556040518181527f23ce6c0b03287ba198c044954569964448f7592f31cb440a0af6f03f2cf807b690602001610a52565b610adf6116c0565b600f8190556040518181527f1a3c4ceb3b1f1723beef5caf660d76e6a11143b711029cf6246aad43995c645c90602001610a52565b610b1c6116c0565b600c8190556040518181527f5bcafd59963fd74fd4215944ae0ea6eada8614ac4fda3f21a22ea75ec612b09e90602001610a52565b610b596116c0565b60258190556040518181527fd83581aeab6af46e3c3b9a6843ddbf2ae1ed3080fdd4db9a0e9c4e47241334ef90602001610a52565b610b966116c0565b600a8190556040518181527f0afd5f9d14537a9ab54988defa08e7dba8a7271114f2c659ff964462509d32ee90602001610a52565b610bd36116c0565b60268190556040518181527f7d69fe4d02aa8f1a2bbd7e5d34fbbf9d9dad50f333722309e2a5e9bae8ae16e390602001610a52565b610c106116c0565b602a8190556040518181527fe8178b6234ca6e8722b598550f4812863f24666d11be0cf90888a4d742de769290602001610a52565b610c4d6116c0565b60038190556040518181527f49f2206a0e7b2869449ef5811e305726864b18da1f7518a483f992a8caeb290890602001610a52565b610c8a6116c0565b601e8190556040518181527f8c9b928307ad87642f3b837f5bdebe46edeb2b3a90b5900371f12b46907813be90602001610a52565b610cc76116c0565b601f8190556040518181527fd639c5fabe952b77b2fb5a3ac8b6c0efc5f54743bd25b5e705a8be2ed61f080090602001610a52565b610d046116c0565b60148190556040518181527fe9150848e042d928d5abcf8253e2c1e765ebfb694373fea6baadf38cb660ba6990602001610a52565b610d416116c0565b60278190556040518181527f449261da5bc7d1ef6c99fe17edfe37e9891e3531f98a740fc5962e05ec10415d90602001610a52565b610d7e6116c0565b60238190556040518181527f3e19fb39f056ceffb517ca24e6ae1cb1cdedffb06910c7ece74309ecc932e9ff90602001610a52565b610dbb6116c0565b600b8190556040518181527ffb0b0afd7f18b8148d17d12c3fde1e6dcaebed6e9d0f74c7f2f8fc06a43cd23690602001610a52565b610df86116c0565b60298190556040518181527f3b6d88b7545a257675b7563e084f4872308dc11e39297157aef24d36e579059a90602001610a52565b610e356116c0565b60188190556040518181527f897d3d775de88c12ed6d0d8630fab583eee6806327dbd54f0ea38158d7f95aa990602001610a52565b610e726116c0565b60068190556040518181527f74554d08a65764ce3fdf443a333eddd368b2c716d9e661c0049d99eaf4fd333690602001610a52565b610eaf6116c0565b60168190556040518181527f4ee50028b6e404f0f8853cd723ed638dfe11a02f31edf100ba689040c386cb2090602001610a52565b610eec6116c0565b601a8190556040518181527fdb2e1e4f8416e3438a36f2b7b87096f113f40a83df5f5828878ef802844e89f190602001610a52565b610f296116c0565b610f33600061171b565b565b610f3d6116c0565b60288190556040518181527f282b23c71f5a94df850ea42e0728094bf316b90ffda3f690e0ccbe90125843bb90602001610a52565b610f7a6116c0565b60128190556040518181527f4a974ed13d8a08353ce9900ff624982773a6289f21bdb3a2f2ecca062979893290602001610a52565b610fb76116c0565b60248190556040518181527f8987c1ce953e061d6465823375cd86ef1065cf2efe84a29fc0fa286d3e509c4d90602001610a52565b610ff46116c0565b601c8190556040518181527f12dd9d64fd19d3ea715925948ed4e23febde025a55de83972b0949dc9ba19e8890602001610a52565b6110316116c0565b60158190556040518181527f672d0592dd1f0ee85645ceed655fc8cbb16bd616e45ec2caeaf16299e6be94a590602001610a52565b7ff0c57e16840df040f15088dc2f81fe391c3923bec73e23a9662efc9c229c6a008054600160401b810460ff16159067ffffffffffffffff166000811580156110ac5750825b905060008267ffffffffffffffff1660011480156110c95750303b155b9050811580156110d7575080155b156110f55760405163f92ee8a960e01b815260040160405180910390fd5b845467ffffffffffffffff19166001178555831561111f57845460ff60401b1916600160401b1785555b6111283361178c565b62015180600081905560018181556064600281815560038055603760049081556101f4600581815562093a80600655620186a0600755612710600855600a60098190556014808255600b819055601e600c819055600d93909355600e819055600f819055678ac7230489e8000060108190556011949094556012939093556013559381556015859055601695909555670de0b6b3a764000060175560189490945560c8601955601a839055601b819055601c819055601d81905590829055601f81905560208290556021929092556022919091556023819055602455610bb8602581905560268190556027556203d09060288190556029819055602a55831561126b57845460ff60401b19168555604051600181527fc7f505b2f371ae2175ee4913f4499e1f2633a7b5936321eed1cdaeb6115181d29060200160405180910390a15b5050505050565b61127a6116c0565b60098190556040518181527f84d1f8d2c9ba454b06df43183ae338b2b5a74577165a4f6da4bf9fb1c97150b990602001610a52565b6112b76116c0565b60008190556040518181527f22fe2223e14ea505e8019060275c616c925fe1b70ac950d69710607cae7dbdb490602001610a52565b6112f46116c0565b60198190556040518181527fbf6ef1fa5e95913e4f91fc33985fa16b61c5ff8b24c9ce2ed5f8f2b88434790290602001610a52565b6113316116c0565b60178190556040518181527f10394d59fbecff59e12f8fafcf6eaa334d910c97091a0bcbb2802dc9ad34e08090602001610a52565b61136e6116c0565b60078190556040518181527f6f22eee821d9a1be7f38eb2bb9dd0079d15218a35ae8b2a76edb58da09745bfa90602001610a52565b6113ab6116c0565b601d8190556040518181527f77ff37a2d3a03061afc9df837e0d6be8909c9435c88b40b2629678fa6aa9def790602001610a52565b6113e86116c0565b60088190556040518181527f2ff566136cf6fdd04afd45f5a82fd17dfe63d4c97ab769b17cc58a970ff836a090602001610a52565b6114256116c0565b60058190556040518181527fc0f54bca20d00cc23e3a07d08226264ab44cfa8047b5f1811e03337a46370b8a90602001610a52565b6114626116c0565b60208181556040518281527f3af1adeca8bed71526593ea1fe3782341626d1c9f93b53b3a2609dd19f0cd3359101610a52565b61149d6116c0565b60138190556040518181527f80400bce596e93663b4b48654080dd105b59e8d9293e732a4959dc58871669f490602001610a52565b6114da6116c0565b60018190556040518181527ffb17b2d1826d4e33039da2bf34ab0fe52c237879b381da3eddfe3a2a3c5f225890602001610a52565b6115176116c0565b600d8190556040518181527fe8a9347956404e5db33e93654506ddb13e7c6308729fddabd3b46aed46b8e41c90602001610a52565b6115546116c0565b6001600160a01b03811661158357604051631e4fbdf760e01b8152600060048201526024015b60405180910390fd5b61158c8161171b565b50565b6115976116c0565b60228190556040518181527fd693406f847930c5a69ba437f7ac31a093f3a74d1d6c78506b81fcc8e0f02db890602001610a52565b6115d46116c0565b60218190556040518181527f4b2c78d0f6f37d314437eacf70687ef8393be366880003d234489e0b1cb874c390602001610a52565b6116116116c0565b601b8190556040518181527f78c4c77597a919fd36764fbf4b8051d1e8a84d6996178e894b9ce68e3545355e90602001610a52565b61164e6116c0565b600e8190556040518181527f12ee07eb98d7d395e7fdcb20fbd3a14878c48dff40a4464fa5c3dfe3e15b73a690602001610a52565b61168b6116c0565b60118190556040518181527f6783c913461f586fec289f9970953a3374484aa9a21f174d64d14ddb8c87963390602001610a52565b336116f27f9016d09d72d40fdae2fd8ceac6b6234c7706214fd39c1cd1e609a0528c199300546001600160a01b031690565b6001600160a01b031614610f335760405163118cdaa760e01b815233600482015260240161157a565b7f9016d09d72d40fdae2fd8ceac6b6234c7706214fd39c1cd1e609a0528c19930080546001600160a01b031981166001600160a01b03848116918217845560405192169182907f8be0079c531659141344cd1fd0a4f28419497f9722a3daafe3b4186f6b6457e090600090a3505050565b61179461179d565b61158c816117e6565b7ff0c57e16840df040f15088dc2f81fe391c3923bec73e23a9662efc9c229c6a0054600160401b900460ff16610f3357604051631afcd79f60e31b815260040160405180910390fd5b61155461179d565b60006020828403121561180057600080fd5b5035919050565b60006020828403121561181957600080fd5b81356001600160a01b038116811461183057600080fd5b939250505056fea26469706673582212201d968587c6dffd4ef2f2e241d640d66e5d6148b2c21c66f0662eaa83f2f2b83a64736f6c63430008190033","linkReferences":{}},"methodIdentifiers":{"Cn()":"e35ef3b4","Cp()":"ba7f3878","Cs()":"b6f9cf6a","amountAttackIncreaseOnLevelUp()":"2694f2a5","amountBaseProductivityIncreaseOnLevelUp()":"f65ebdf8","amountDefenseIncreaseOnLevelUp()":"f28508b6","amountEnergyIncreaseOnLevelUp()":"04dbe873","amountForageIncreaseOnLevelUp()":"aa2018b9","amountHealthIncreaseOnLevelUp()":"a37acd07","amountMaxProductivityIncreaseOnLevelUp()":"52539b79","amountToLevelUp()":"8ff0ae37","baseEnergyDeductionAfterRaid()":"14f97f3a","baseEnergyDeductionAfterUpgrade()":"e1d7520b","baseHealthDeductionAfterRaid()":"16b24c0b","baseHoneyRaidReward()":"b6d07575","baseHoneyYield()":"b9e59a07","baseIncentivePerEpoch()":"1ffc45a3","baseNectarUsePerUpgrade()":"d0a46261","baseNumberOfForagingQuest()":"10a2028a","baseNumberOfRaidQuest()":"1ecfc8dc","baseNumberOfRaidSuccessQuest()":"2ef3a8ae","baseNumberOfUpgradeQuest()":"908cf6ec","basePollenUsePerUpgrade()":"91165045","baseSapUsePerUpgrade()":"f82f0e42","beeEnergyRefreshInterval()":"2aa26b3c","beeHealthRefreshInterval()":"3d6e3e65","claimTimeInterval()":"87063ead","differenceBetweenLevels()":"b308b103","experienceEarnedAfterForage()":"166ce745","experienceEarnedAfterRaidFailed()":"c8a93336","experienceEarnedAfterRaidSuccess()":"37a11a63","experienceEarnedAfterUpgrade()":"ecec5076","foragePercentage()":"7f50b6fd","honeyYieldConstant()":"477e8c41","incentiveEarnAfterRaid()":"90ca2390","initialize()":"8129fc1c","maxQueen()":"8ccf96d7","maxResourcesValue()":"3cf4766b","maxWorker()":"945b6123","minResourcesValue()":"f8ac2843","nectarRequiredToClaim()":"265670e7","owner()":"8da5cb5b","raidHoneyFee()":"adfa1647","raidSapFee()":"c688e25d","renounceOwnership()":"715018a6","resourcesRefreshInterval()":"0c52bbbc","setAmountAttackIncreaseOnLevelUp(uint256)":"710f2a2d","setAmountBaseProductivityIncreaseOnLevelUp(uint256)":"31c66828","setAmountDefenseIncreaseOnLevelUp(uint256)":"f7d9426d","setAmountEnergyIncreaseOnLevelUp(uint256)":"bce32166","setAmountForageIncreaseOnLevelUp(uint256)":"7701c733","setAmountHealthIncreaseOnLevelUp(uint256)":"303e966a","setAmountMaxProductivityIncreaseOnLevelUp(uint256)":"cb949e32","setAmountToLevelUp(uint256)":"0a232149","setBaseEnergyDeductionAfterRaid(uint256)":"f7f583e6","setBaseEnergyDeductionAfterUpgrade(uint256)":"192d823f","setBaseHealthDeductionAfterRaid(uint256)":"d9403d16","setBaseHoneyRaidReward(uint256)":"7391c443","setBaseHoneyYield(uint256)":"b7de13c1","setBaseIncentivePerEpoch(uint256)":"5ce7e020","setBaseNectarUsePerUpgrade(uint256)":"28725b9e","setBaseNumberOfForagingQuest(uint256)":"f5e2dfa1","setBaseNumberOfRaidQuest(uint256)":"f4d10be1","setBaseNumberOfRaidSuccessQuest(uint256)":"44802189","setBaseNumberOfUpgradeQuest(uint256)":"7497b7f3","setBasePollenUsePerUpgrade(uint256)":"29cc5403","setBaseSapUsePerUpgrade(uint256)":"3a5c9fca","setBeeEnergyRefreshInterval(uint256)":"9a1aa197","setBeeHealthRefreshInterval(uint256)":"d375a9b4","setClaimTimeInterval(uint256)":"646216e4","setCn(uint256)":"591bd005","setCp(uint256)":"2bb16c1e","setCs(uint256)":"71cc9f84","setDifferenceBetweenLevels(uint256)":"a158298a","setExperienceEarnedAfterForage(uint256)":"8454964a","setExperienceEarnedAfterRaidFailed(uint256)":"29005995","setExperienceEarnedAfterRaidSuccess(uint256)":"4c5bd4a1","setExperienceEarnedAfterUpgrade(uint256)":"1ebc34c8","setForagePercentage(uint256)":"cabae1a5","setHoneyYieldConstant(uint256)":"b96d7e92","setIncentiveEarnAfterRaid(uint256)":"cc0344dc","setMaxQueen(uint256)":"2e4157a2","setMaxResourcesValue(uint256)":"37b769b9","setMaxWorker(uint256)":"05657e37","setMinResourcesValue(uint256)":"7f19b63c","setNectarRequiredToClaim(uint256)":"ca7f790a","setRaidHoneyFee(uint256)":"08e388fd","setRaidSapFee(uint256)":"ff2c4b03","setResourcesRefreshInterval(uint256)":"64a817bf","transferOwnership(address)":"f2fde38b"},"id":6}