{"abi":[{"type":"constructor","inputs":[{"name":"_mintFee","type":"uint256","internalType":"uint256"},{"name":"_hiveFactory","type":"address","internalType":"address"},{"name":"_buzzkillAddressProvider","type":"address","internalType":"address"}],"stateMutability":"nonpayable"},{"type":"fallback","stateMutability":"payable"},{"type":"receive","stateMutability":"payable"},{"type":"function","name":"BASE_DENOMINATOR","inputs":[],"outputs":[{"name":"","type":"uint256","internalType":"uint256"}],"stateMutability":"view"},{"type":"function","name":"DOMAIN_SEPARATOR","inputs":[],"outputs":[{"name":"","type":"bytes32","internalType":"bytes32"}],"stateMutability":"view"},{"type":"function","name":"MAX_FEE","inputs":[],"outputs":[{"name":"","type":"uint256","internalType":"uint256"}],"stateMutability":"view"},{"type":"function","name":"MAX_SUPPLY","inputs":[],"outputs":[{"name":"","type":"uint256","internalType":"uint256"}],"stateMutability":"view"},{"type":"function","name":"MIN_FEE","inputs":[],"outputs":[{"name":"","type":"uint256","internalType":"uint256"}],"stateMutability":"view"},{"type":"function","name":"PERMIT_FOR_ALL_TYPEHASH","inputs":[],"outputs":[{"name":"","type":"bytes32","internalType":"bytes32"}],"stateMutability":"view"},{"type":"function","name":"PERMIT_TYPEHASH","inputs":[],"outputs":[{"name":"","type":"bytes32","internalType":"bytes32"}],"stateMutability":"view"},{"type":"function","name":"acceptOwnership","inputs":[],"outputs":[],"stateMutability":"nonpayable"},{"type":"function","name":"approve","inputs":[{"name":"to","type":"address","internalType":"address"},{"name":"tokenId","type":"uint256","internalType":"uint256"}],"outputs":[],"stateMutability":"nonpayable"},{"type":"function","name":"balanceOf","inputs":[{"name":"owner","type":"address","internalType":"address"}],"outputs":[{"name":"","type":"uint256","internalType":"uint256"}],"stateMutability":"view"},{"type":"function","name":"burn","inputs":[{"name":"tokenId","type":"uint256","internalType":"uint256"}],"outputs":[],"stateMutability":"nonpayable"},{"type":"function","name":"buzzkillAddressProvider","inputs":[],"outputs":[{"name":"","type":"address","internalType":"contract IBuzzkillAddressProvider"}],"stateMutability":"view"},{"type":"function","name":"currentTokenId","inputs":[],"outputs":[{"name":"","type":"uint256","internalType":"uint256"}],"stateMutability":"view"},{"type":"function","name":"getApproved","inputs":[{"name":"tokenId","type":"uint256","internalType":"uint256"}],"outputs":[{"name":"","type":"address","internalType":"address"}],"stateMutability":"view"},{"type":"function","name":"getBeeLevel","inputs":[{"name":"tokenId","type":"uint256","internalType":"uint256"}],"outputs":[{"name":"","type":"uint256","internalType":"uint256"}],"stateMutability":"view"},{"type":"function","name":"getBeeTraits","inputs":[{"name":"tokenId","type":"uint256","internalType":"uint256"}],"outputs":[{"name":"","type":"tuple","internalType":"struct BuzzkillNFT.BeeTraits","components":[{"name":"energy","type":"uint256","internalType":"uint256"},{"name":"health","type":"uint256","internalType":"uint256"},{"name":"attack","type":"uint256","internalType":"uint256"},{"name":"defense","type":"uint256","internalType":"uint256"},{"name":"forage","type":"uint256","internalType":"uint256"},{"name":"experience","type":"uint256","internalType":"uint256"},{"name":"nectar","type":"uint256","internalType":"uint256"},{"name":"pollen","type":"uint256","internalType":"uint256"},{"name":"sap","type":"uint256","internalType":"uint256"}]}],"stateMutability":"view"},{"type":"function","name":"hiveFactory","inputs":[],"outputs":[{"name":"","type":"address","internalType":"address"}],"stateMutability":"view"},{"type":"function","name":"isApprovedForAll","inputs":[{"name":"owner","type":"address","internalType":"address"},{"name":"operator","type":"address","internalType":"address"}],"outputs":[{"name":"","type":"bool","internalType":"bool"}],"stateMutability":"view"},{"type":"function","name":"issuer","inputs":[],"outputs":[{"name":"","type":"address","internalType":"address"}],"stateMutability":"view"},{"type":"function","name":"minFee","inputs":[],"outputs":[{"name":"","type":"uint256","internalType":"uint256"}],"stateMutability":"view"},{"type":"function","name":"mintFee","inputs":[],"outputs":[{"name":"","type":"uint256","internalType":"uint256"}],"stateMutability":"view"},{"type":"function","name":"mintTo","inputs":[{"name":"to","type":"address","internalType":"address"},{"name":"_beeType","type":"uint256","internalType":"uint256"}],"outputs":[{"name":"","type":"uint256","internalType":"uint256"}],"stateMutability":"payable"},{"type":"function","name":"modifyBeeTraits","inputs":[{"name":"tokenId","type":"uint256","internalType":"uint256"},{"name":"_beeTraits","type":"tuple","internalType":"struct BuzzkillNFT.BeeTraits","components":[{"name":"energy","type":"uint256","internalType":"uint256"},{"name":"health","type":"uint256","internalType":"uint256"},{"name":"attack","type":"uint256","internalType":"uint256"},{"name":"defense","type":"uint256","internalType":"uint256"},{"name":"forage","type":"uint256","internalType":"uint256"},{"name":"experience","type":"uint256","internalType":"uint256"},{"name":"nectar","type":"uint256","internalType":"uint256"},{"name":"pollen","type":"uint256","internalType":"uint256"},{"name":"sap","type":"uint256","internalType":"uint256"}]}],"outputs":[],"stateMutability":"nonpayable"},{"type":"function","name":"name","inputs":[],"outputs":[{"name":"","type":"string","internalType":"string"}],"stateMutability":"view"},{"type":"function","name":"nonceByAddress","inputs":[{"name":"owner","type":"address","internalType":"address"}],"outputs":[{"name":"","type":"uint256","internalType":"uint256"}],"stateMutability":"view"},{"type":"function","name":"nonces","inputs":[{"name":"tokenId","type":"uint256","internalType":"uint256"}],"outputs":[{"name":"","type":"uint256","internalType":"uint256"}],"stateMutability":"view"},{"type":"function","name":"owner","inputs":[],"outputs":[{"name":"","type":"address","internalType":"address"}],"stateMutability":"view"},{"type":"function","name":"ownerOf","inputs":[{"name":"tokenId","type":"uint256","internalType":"uint256"}],"outputs":[{"name":"","type":"address","internalType":"address"}],"stateMutability":"view"},{"type":"function","name":"pause","inputs":[],"outputs":[],"stateMutability":"nonpayable"},{"type":"function","name":"paused","inputs":[],"outputs":[{"name":"","type":"bool","internalType":"bool"}],"stateMutability":"view"},{"type":"function","name":"permit","inputs":[{"name":"spender","type":"address","internalType":"address"},{"name":"tokenId","type":"uint256","internalType":"uint256"},{"name":"deadline","type":"uint256","internalType":"uint256"},{"name":"signature","type":"bytes","internalType":"bytes"}],"outputs":[],"stateMutability":"nonpayable"},{"type":"function","name":"permitForAll","inputs":[{"name":"owner","type":"address","internalType":"address"},{"name":"spender","type":"address","internalType":"address"},{"name":"deadline","type":"uint256","internalType":"uint256"},{"name":"signature","type":"bytes","internalType":"bytes"}],"outputs":[],"stateMutability":"nonpayable"},{"type":"function","name":"queenBeeImage","inputs":[],"outputs":[{"name":"","type":"string","internalType":"string"}],"stateMutability":"view"},{"type":"function","name":"refreshBeeEnergy","inputs":[{"name":"tokenId","type":"uint256","internalType":"uint256"}],"outputs":[],"stateMutability":"nonpayable"},{"type":"function","name":"refreshBeeHealth","inputs":[{"name":"tokenId","type":"uint256","internalType":"uint256"}],"outputs":[],"stateMutability":"nonpayable"},{"type":"function","name":"safeTransferFrom","inputs":[{"name":"from","type":"address","internalType":"address"},{"name":"to","type":"address","internalType":"address"},{"name":"tokenId","type":"uint256","internalType":"uint256"}],"outputs":[],"stateMutability":"nonpayable"},{"type":"function","name":"safeTransferFrom","inputs":[{"name":"from","type":"address","internalType":"address"},{"name":"to","type":"address","internalType":"address"},{"name":"tokenId","type":"uint256","internalType":"uint256"},{"name":"data","type":"bytes","internalType":"bytes"}],"outputs":[],"stateMutability":"nonpayable"},{"type":"function","name":"setApprovalForAll","inputs":[{"name":"operator","type":"address","internalType":"address"},{"name":"approved","type":"bool","internalType":"bool"}],"outputs":[],"stateMutability":"nonpayable"},{"type":"function","name":"setHiveFactoryAddress","inputs":[{"name":"_hiveFactory","type":"address","internalType":"address"}],"outputs":[],"stateMutability":"nonpayable"},{"type":"function","name":"setMintFee","inputs":[{"name":"_mintFee","type":"uint256","internalType":"uint256"}],"outputs":[],"stateMutability":"nonpayable"},{"type":"function","name":"supportsInterface","inputs":[{"name":"interfaceId","type":"bytes4","internalType":"bytes4"}],"outputs":[{"name":"","type":"bool","internalType":"bool"}],"stateMutability":"view"},{"type":"function","name":"symbol","inputs":[],"outputs":[{"name":"","type":"string","internalType":"string"}],"stateMutability":"view"},{"type":"function","name":"tokenByIndex","inputs":[{"name":"index","type":"uint256","internalType":"uint256"}],"outputs":[{"name":"","type":"uint256","internalType":"uint256"}],"stateMutability":"view"},{"type":"function","name":"tokenIdToCharacteristics","inputs":[{"name":"","type":"uint256","internalType":"uint256"}],"outputs":[{"name":"avatar","type":"string","internalType":"string"},{"name":"beeType","type":"string","internalType":"string"}],"stateMutability":"view"},{"type":"function","name":"tokenIdToStatus","inputs":[{"name":"","type":"uint256","internalType":"uint256"}],"outputs":[{"name":"baseEnergy","type":"uint256","internalType":"uint256"},{"name":"baseHealth","type":"uint256","internalType":"uint256"},{"name":"lastEnergyRefreshTimestamp","type":"uint256","internalType":"uint256"},{"name":"lastHealthRefreshTimestamp","type":"uint256","internalType":"uint256"}],"stateMutability":"view"},{"type":"function","name":"tokenIdToTraits","inputs":[{"name":"","type":"uint256","internalType":"uint256"}],"outputs":[{"name":"energy","type":"uint256","internalType":"uint256"},{"name":"health","type":"uint256","internalType":"uint256"},{"name":"attack","type":"uint256","internalType":"uint256"},{"name":"defense","type":"uint256","internalType":"uint256"},{"name":"forage","type":"uint256","internalType":"uint256"},{"name":"experience","type":"uint256","internalType":"uint256"},{"name":"nectar","type":"uint256","internalType":"uint256"},{"name":"pollen","type":"uint256","internalType":"uint256"},{"name":"sap","type":"uint256","internalType":"uint256"}],"stateMutability":"view"},{"type":"function","name":"tokenOfOwnerByIndex","inputs":[{"name":"owner","type":"address","internalType":"address"},{"name":"index","type":"uint256","internalType":"uint256"}],"outputs":[{"name":"","type":"uint256","internalType":"uint256"}],"stateMutability":"view"},{"type":"function","name":"tokenURI","inputs":[{"name":"tokenId","type":"uint256","internalType":"uint256"}],"outputs":[{"name":"","type":"string","internalType":"string"}],"stateMutability":"view"},{"type":"function","name":"tokenURIs","inputs":[{"name":"","type":"uint256","internalType":"uint256"}],"outputs":[{"name":"","type":"string","internalType":"string"}],"stateMutability":"view"},{"type":"function","name":"totalSupply","inputs":[],"outputs":[{"name":"","type":"uint256","internalType":"uint256"}],"stateMutability":"view"},{"type":"function","name":"transferFrom","inputs":[{"name":"from","type":"address","internalType":"address"},{"name":"to","type":"address","internalType":"address"},{"name":"tokenId","type":"uint256","internalType":"uint256"}],"outputs":[],"stateMutability":"nonpayable"},{"type":"function","name":"transferOwnership","inputs":[{"name":"newOwner","type":"address","internalType":"address"}],"outputs":[],"stateMutability":"nonpayable"},{"type":"function","name":"unpause","inputs":[],"outputs":[],"stateMutability":"nonpayable"},{"type":"function","name":"withdrawPayments","inputs":[{"name":"payee","type":"address","internalType":"address payable"}],"outputs":[],"stateMutability":"nonpayable"},{"type":"function","name":"workerBeeImage","inputs":[],"outputs":[{"name":"","type":"string","internalType":"string"}],"stateMutability":"view"},{"type":"event","name":"Approval","inputs":[{"name":"owner","type":"address","indexed":true,"internalType":"address"},{"name":"approved","type":"address","indexed":true,"internalType":"address"},{"name":"tokenId","type":"uint256","indexed":true,"internalType":"uint256"}],"anonymous":false},{"type":"event","name":"ApprovalForAll","inputs":[{"name":"owner","type":"address","indexed":true,"internalType":"address"},{"name":"operator","type":"address","indexed":true,"internalType":"address"},{"name":"approved","type":"bool","indexed":false,"internalType":"bool"}],"anonymous":false},{"type":"event","name":"Fee","inputs":[{"name":"from","type":"address","indexed":true,"internalType":"address"},{"name":"to","type":"address","indexed":true,"internalType":"address"},{"name":"issuer","type":"address","indexed":true,"internalType":"address"},{"name":"value","type":"uint256","indexed":false,"internalType":"uint256"}],"anonymous":false},{"type":"event","name":"OwnershipTransferred","inputs":[{"name":"previousOwner","type":"address","indexed":true,"internalType":"address"},{"name":"newOwner","type":"address","indexed":true,"internalType":"address"}],"anonymous":false},{"type":"event","name":"Paused","inputs":[{"name":"account","type":"address","indexed":false,"internalType":"address"}],"anonymous":false},{"type":"event","name":"Transfer","inputs":[{"name":"from","type":"address","indexed":true,"internalType":"address"},{"name":"to","type":"address","indexed":true,"internalType":"address"},{"name":"tokenId","type":"uint256","indexed":true,"internalType":"uint256"}],"anonymous":false},{"type":"event","name":"Unpaused","inputs":[{"name":"account","type":"address","indexed":false,"internalType":"address"}],"anonymous":false},{"type":"error","name":"EnforcedPause","inputs":[]},{"type":"error","name":"ExpectedPause","inputs":[]},{"type":"error","name":"HiveOnly","inputs":[]},{"type":"error","name":"InvalidBeeType","inputs":[]},{"type":"error","name":"MaxSupplyExceeded","inputs":[]},{"type":"error","name":"MintFeeNotPaid","inputs":[]},{"type":"error","name":"MintFeeTooHigh","inputs":[]},{"type":"error","name":"MintFeeTooLow","inputs":[]},{"type":"error","name":"ReentrancyGuardReentrantCall","inputs":[]},{"type":"error","name":"WithdrawTransferFailed","inputs":[]}],"bytecode":{"object":"0x608060405234801561001057600080fd5b5060405161494b38038061494b83398101604081905261002f9161023d565b60016011556012805460ff191690556601902d7bb380008310156100665760405163207226af60e01b815260040160405180910390fd5b674563918244f4000083111561008f5760405163872b286360e01b815260040160405180910390fd5b6100db60405180604001604052806008815260200167109d5e9e9ada5b1b60c21b81525060405180604001604052806003815260200162425a4b60e81b8152503361011260201b60201c565b601492909255601580546001600160a01b039283166001600160a01b031991821617909155601680549290931691161790556103d9565b600354600160a01b900460ff16156101705760405162461bcd60e51b815260206004820152601d60248201527f5652433732353a20436f6e747261637420616c726561647920696e6974000000604482015260640160405180910390fd5b61017a83836101db565b6101a383604051806040016040528060018152602001603160f81b8152506101fe60201b60201c565b600280546001600160a01b039092166001600160a01b031990921691909117905550506003805460ff60a01b1916600160a01b179055565b60086101e7838261031a565b5060096101f4828261031a565b5050600060015550565b61021d8282815160209283012081519190920120600491909155600555565b5050565b80516001600160a01b038116811461023857600080fd5b919050565b60008060006060848603121561025257600080fd5b8351925061026260208501610221565b915061027060408501610221565b90509250925092565b634e487b7160e01b600052604160045260246000fd5b600181811c908216806102a357607f821691505b6020821081036102c357634e487b7160e01b600052602260045260246000fd5b50919050565b601f821115610315576000816000526020600020601f850160051c810160208610156102f25750805b601f850160051c820191505b81811015610311578281556001016102fe565b5050505b505050565b81516001600160401b0381111561033357610333610279565b61034781610341845461028f565b846102c9565b602080601f83116001811461037c57600084156103645750858301515b600019600386901b1c1916600185901b178555610311565b600085815260208120601f198616915b828110156103ab5788860151825594840194600190910190840161038c565b50858210156103c95787850151600019600388901b60f8161c191681555b5050505050600190811b01905550565b614563806103e86000396000f3fe6080604052600436106103265760003560e01c80636d1dcb91116101ae578063ab84ee6f116100eb578063d0c4567e1161008f578063eddd0d9c1161006c578063eddd0d9c146109fd578063ef9f40c414610a1d578063f2fde38b14610a3d578063f3c86ff514610a5d57005b8063d0c4567e1461099d578063da4b0b34146109bd578063e985e9c5146109dd57005b8063b88d4fde116100c8578063b88d4fde1461092b578063bc063e1a1461094b578063bd85958414610967578063c87b56dd1461097d57005b8063ab84ee6f146108bd578063b1f2ead6146108dd578063b4dc46d9146108fd57005b80638456cb5911610152578063921ca4b11161012f578063921ca4b11461084857806395d89b4114610868578063a18285ce1461087d578063a22cb4651461089d57005b80638456cb591461081357806388d1abde146108285780638da5cb5b1461044d57005b806376c7a3c71161018b57806376c7a3c7146107b957806379ba5097146107d45780637ea6dd72146107e957806380fdc055146107fe57005b80636d1dcb91146106ec57806370a0823114610779578063745a41bc1461079957005b806330adf81f1161027c578063449a52f8116102205780635c975abb116101fd5780635c975abb1461065e5780635e5756d5146106765780636352211e146106ac5780636c8b703f146106cc57005b8063449a52f8146105f75780634f6ccce71461060a578063585956d61461062a57005b80633644e515116102595780633644e5151461058d5780633f4ba83a146105a257806342842e0e146105b757806342966c68146105d757005b806330adf81f1461052257806331b3eb941461055657806332cb6b0c1461057657005b8063141a468c116102e357806323b872dd116102c057806323b872dd1461046b57806324ec75901461048b5780632ad22315146104a05780632f745c591461050257005b8063141a468c1461041857806318160ddd146104385780631d1438481461044d57005b80629a9b7b1461032f57806301ffc9a71461035857806306fdde0314610388578063081812fc146103aa578063095ea7b3146103e257806313966db51461040257005b3661032d57005b005b34801561033b57600080fd5b5061034560135481565b6040519081526020015b60405180910390f35b34801561036457600080fd5b506103786103733660046139ff565b610b0a565b604051901515815260200161034f565b34801561039457600080fd5b5061039d610b1b565b60405161034f9190613a73565b3480156103b657600080fd5b506103ca6103c5366004613a86565b610bad565b6040516001600160a01b03909116815260200161034f565b3480156103ee57600080fd5b5061032d6103fd366004613ab4565b610bd4565b34801561040e57600080fd5b5061034560145481565b34801561042457600080fd5b50610345610433366004613a86565b610cee565b34801561044457600080fd5b50600f54610345565b34801561045957600080fd5b506002546001600160a01b03166103ca565b34801561047757600080fd5b5061032d610486366004613ae0565b610d28565b34801561049757600080fd5b50600154610345565b3480156104ac57600080fd5b506104e26104bb366004613a86565b601a6020526000908152604090208054600182015460028301546003909301549192909184565b60408051948552602085019390935291830152606082015260800161034f565b34801561050e57600080fd5b5061034561051d366004613ab4565b610d9f565b34801561052e57600080fd5b506103457f49ecf333e5b8c95c40fdafc95c1ad136e8914a8fb55e9dc8bb01eaa83a2df9ad81565b34801561056257600080fd5b5061032d610571366004613b21565b610e35565b34801561058257600080fd5b50610345620f424081565b34801561059957600080fd5b50610345610eea565b3480156105ae57600080fd5b5061032d610ef9565b3480156105c357600080fd5b5061032d6105d2366004613ae0565b610f2d565b3480156105e357600080fd5b5061032d6105f2366004613a86565b610f48565b610345610605366004613ab4565b610fa0565b34801561061657600080fd5b50610345610625366004613a86565b6112b2565b34801561063657600080fd5b506103457f29795620f29ed5790c945e3f419a1b3e2381aa07751ccffe5b81231639d74cd581565b34801561066a57600080fd5b5060125460ff16610378565b34801561068257600080fd5b50610345610691366004613b21565b6001600160a01b031660009081526007602052604090205490565b3480156106b857600080fd5b506103ca6106c7366004613a86565b611345565b3480156106d857600080fd5b5061039d6106e7366004613a86565b61137a565b3480156106f857600080fd5b5061070c610707366004613a86565b611414565b60405161034f9190600061012082019050825182526020830151602083015260408301516040830152606083015160608301526080830151608083015260a083015160a083015260c083015160c083015260e083015160e083015261010080840151818401525092915050565b34801561078557600080fd5b50610345610794366004613b21565b6114dc565b3480156107a557600080fd5b5061032d6107b4366004613c0b565b611562565b3480156107c557600080fd5b506103456601902d7bb3800081565b3480156107e057600080fd5b5061032d611676565b3480156107f557600080fd5b5061039d611741565b34801561080a57600080fd5b5061039d61175d565b34801561081f57600080fd5b5061032d611779565b34801561083457600080fd5b5061032d610843366004613b21565b6117ab565b34801561085457600080fd5b506016546103ca906001600160a01b031681565b34801561087457600080fd5b5061039d6117f7565b34801561088957600080fd5b5061032d610898366004613c6e565b611806565b3480156108a957600080fd5b5061032d6108b8366004613d09565b611b82565b3480156108c957600080fd5b5061032d6108d8366004613d47565b611b91565b3480156108e957600080fd5b5061032d6108f8366004613a86565b611cc7565b34801561090957600080fd5b5061091d610918366004613a86565b611d16565b60405161034f929190613d9b565b34801561093757600080fd5b5061032d610946366004613d47565b611e42565b34801561095757600080fd5b50610345674563918244f4000081565b34801561097357600080fd5b5061034561271081565b34801561098957600080fd5b5061039d610998366004613a86565b611eba565b3480156109a957600080fd5b506103456109b8366004613a86565b611f63565b3480156109c957600080fd5b5061032d6109d8366004613a86565b61206e565b3480156109e957600080fd5b506103786109f8366004613dc0565b6120b8565b348015610a0957600080fd5b5061032d610a18366004613a86565b6120e6565b348015610a2957600080fd5b506015546103ca906001600160a01b031681565b348015610a4957600080fd5b5061032d610a58366004613b21565b612166565b348015610a6957600080fd5b50610ac6610a78366004613a86565b60196020528060005260406000206000915090508060000154908060010154908060020154908060030154908060040154908060050154908060060154908060070154908060080154905089565b60408051998a5260208a0198909852968801959095526060870193909352608086019190915260a085015260c084015260e08301526101008201526101200161034f565b6000610b1582612216565b92915050565b606060088054610b2a90613dee565b80601f0160208091040260200160405190810160405280929190818152602001828054610b5690613dee565b8015610ba35780601f10610b7857610100808354040283529160200191610ba3565b820191906000526020600020905b815481529060010190602001808311610b8657829003601f168201915b5050505050905090565b6000610bb88261223b565b506000908152600b60205260409020546001600160a01b031690565b6000610bdf82611345565b9050806001600160a01b0316836001600160a01b031603610c515760405162461bcd60e51b815260206004820152602160248201527f5652433732353a20617070726f76616c20746f2063757272656e74206f776e656044820152603960f91b60648201526084015b60405180910390fd5b336001600160a01b0382161480610c6d5750610c6d81336120b8565b610cdf5760405162461bcd60e51b815260206004820152603d60248201527f5652433732353a20617070726f76652063616c6c6572206973206e6f7420746f60448201527f6b656e206f776e6572206f7220617070726f76656420666f7220616c6c0000006064820152608401610c48565b610ce98383612260565b505050565b6000610cf9826122ce565b610d155760405162461bcd60e51b8152600401610c4890613e28565b5060009081526006602052604090205490565b610d3233826122eb565b610d945760405162461bcd60e51b815260206004820152602d60248201527f5652433732353a2063616c6c6572206973206e6f7420746f6b656e206f776e6560448201526c1c881bdc88185c1c1c9bdd9959609a1b6064820152608401610c48565b610ce9838383612349565b6000610daa836114dc565b8210610e0c5760405162461bcd60e51b815260206004820152602b60248201527f565243373235456e756d657261626c653a206f776e657220696e646578206f7560448201526a74206f6620626f756e647360a81b6064820152608401610c48565b506001600160a01b03919091166000908152600d60209081526040808320938352929052205490565b6002546001600160a01b03163314610e5f5760405162461bcd60e51b8152600401610c4890613e5f565b610e676124d7565b60405147906000906001600160a01b0384169083908381818185875af1925050503d8060008114610eb4576040519150601f19603f3d011682016040523d82523d6000602084013e610eb9565b606091505b5050905080610edb576040516369a4751b60e01b815260040160405180910390fd5b5050610ee76001601155565b50565b6000610ef4612501565b905090565b6002546001600160a01b03163314610f235760405162461bcd60e51b8152600401610c4890613e5f565b610f2b61257c565b565b610ce983838360405180602001604052806000815250611e42565b6002546001600160a01b03163314610f725760405162461bcd60e51b8152600401610c4890613e5f565b610f7b816122ce565b610f975760405162461bcd60e51b8152600401610c4890613e96565b610ee7816125ce565b6000610faa612670565b610fb26124d7565b6002546001600160a01b03163314610fe6576014543414610fe657604051634310671360e01b815260040160405180910390fd5b601354620f424081111561100d57604051638a164f6360e01b815260040160405180910390fd5b6110178482612694565b826000036111365760405180604001604052806040518060600160405280602b8152602001614503602b9139815260408051808201825260068152652bb7b935b2b960d11b60208281019190915292830152600084815260189092529020815181906110839082613f0c565b50602082015160018201906110989082613f0c565b50506040805161012081018252600a808252602080830191825260018385018181526060850182815260808601838152600060a0880181815260c0890182815260e08a018381526101008b018481528e855260199099529a909220985189559651948801949094559151600287015551600386015551600485015591516005840155905160068301559151600782015590516008909101555061126e565b826001036112555760405180604001604052806040518060600160405280602b8152602001614498602b91398152604080518082018252600581526428bab2b2b760d91b60208281019190915292830152600084815260189092529020815181906111a19082613f0c565b50602082015160018201906111b69082613f0c565b505060408051610120810182526014808252602080830191825260028385018181526060850182815260808601838152600060a0880181815260c0890182815260e08a018381526101008b018481528e855260199099529a90922098518955965160018901559251938701939093555160038601559051600485015591516005840155905160068301559151600782015590516008909101555061126e565b604051635a4c8e5160e11b815260040160405180910390fd5b611277816126ae565b6000828152601760205260409020906112909082613f0c565b50601380549060006112a183613fe2565b909155505060016011559050610b15565b60006112bd600f5490565b82106113205760405162461bcd60e51b815260206004820152602c60248201527f565243373235456e756d657261626c653a20676c6f62616c20696e646578206f60448201526b7574206f6620626f756e647360a01b6064820152608401610c48565b600f828154811061133357611333613ffb565b90600052602060002001549050919050565b6000818152600a60205260408120546001600160a01b031680610b155760405162461bcd60e51b8152600401610c4890613e28565b6017602052600090815260409020805461139390613dee565b80601f01602080910402602001604051908101604052809291908181526020018280546113bf90613dee565b801561140c5780601f106113e15761010080835404028352916020019161140c565b820191906000526020600020905b8154815290600101906020018083116113ef57829003601f168201915b505050505081565b6114636040518061012001604052806000815260200160008152602001600081526020016000815260200160008152602001600081526020016000815260200160008152602001600081525090565b50600090815260196020908152604091829020825161012081018452815481526001820154928101929092526002810154928201929092526003820154606082015260048201546080820152600582015460a0820152600682015460c0820152600782015460e082015260089091015461010082015290565b60006001600160a01b0382166115465760405162461bcd60e51b815260206004820152602960248201527f5652433732353a2061646472657373207a65726f206973206e6f7420612076616044820152683634b21037bbb732b960b91b6064820152608401610c48565b506001600160a01b031660009081526020819052604090205490565b428210156115b25760405162461bcd60e51b815260206004820152601f60248201527f5652433732353a205065726d697420646561646c696e652065787069726564006044820152606401610c48565b6000838152600660205260408120546115cf90869086908661295d565b905060006115dd82846129dc565b50909150506001600160a01b038116158015906115ff57506115ff81866122eb565b80611618575061161861161186611345565b8385612a29565b6116645760405162461bcd60e51b815260206004820181905260248201527f5652433732353a20496e76616c6964207065726d6974207369676e61747572656044820152606401610c48565b61166e8686612260565b505050505050565b6003546001600160a01b031633146116e45760405162461bcd60e51b815260206004820152602b60248201527f5652433732353a206f6e6c79206e6577206f776e65722063616e20616363657060448201526a074206f776e6572736869760ac1b6064820152608401610c48565b60028054600380546001600160a01b03198084166001600160a01b038381169182179096559116909155604051929091169182907f8be0079c531659141344cd1fd0a4f28419497f9722a3daafe3b4186f6b6457e090600090a350565b6040518060600160405280602b8152602001614503602b913981565b6040518060600160405280602b8152602001614498602b913981565b6002546001600160a01b031633146117a35760405162461bcd60e51b8152600401610c4890613e5f565b610f2b612a8b565b6002546001600160a01b031633146117d55760405162461bcd60e51b8152600401610c4890613e5f565b601580546001600160a01b0319166001600160a01b0392909216919091179055565b606060098054610b2a90613dee565b601554604080516302d05d3f60e01b8152905133926001600160a01b03169183916302d05d3f916004808201926020929091908290030181865afa158015611852573d6000803e3d6000fd5b505050506040513d601f19601f820116820180604052508101906118769190614011565b6001600160a01b03161461189d576040516329e101a960e01b815260040160405180910390fd5b6118a6836122ce565b6118c25760405162461bcd60e51b8152600401610c4890613e96565b336118cc84611345565b6001600160a01b03161461190e5760405162461bcd60e51b81526020600482015260096024820152682737ba1037bbb732b960b91b6044820152606401610c48565b60008381526019602052604090206005015460a08301511115611af45760165460408051636cfe8a9f60e01b815290516000926001600160a01b031691636cfe8a9f9160048083019260209291908290030181865afa158015611975573d6000803e3d6000fd5b505050506040513d601f19601f820116820180604052508101906119999190614011565b905060006119a685611f63565b90506000826001600160a01b0316638ff0ae376040518163ffffffff1660e01b8152600401602060405180830381865afa1580156119e8573d6000803e3d6000fd5b505050506040513d601f19601f82011682018060405250810190611a0c919061402e565b8560a00151611a1b9190614047565b905081811115611af057600585600001818151611a389190614069565b90525060208501805160059190611a50908390614069565b90525060408501805160019190611a68908390614069565b90525060608501805160019190611a80908390614069565b90525060808501805160019190611a98908390614069565b9052506040516343bb1a1360e11b81526004810187905233908190638776342690602401600060405180830381600087803b158015611ad657600080fd5b505af1158015611aea573d6000803e3d6000fd5b50505050505b5050505b60008381526019602090815260409182902084518155908401516001820155908301516002820155606083015160038201556080830151600482015560a0830151600582015560c0830151600682015560e08301516007820155610100830151600890910155611b63836126ae565b600084815260176020526040902090611b7c9082613f0c565b50505050565b611b8d338383612ac8565b5050565b42821015611be15760405162461bcd60e51b815260206004820152601f60248201527f5652433732353a205065726d697420646561646c696e652065787069726564006044820152606401610c48565b6001600160a01b038416600090815260076020526040812054611c0690859085612b96565b90506000611c1482846129dc565b50509050856001600160a01b0316816001600160a01b03161480611c3e5750611c3e868385612a29565b611c8a5760405162461bcd60e51b815260206004820181905260248201527f5652433732353a20496e76616c6964207065726d6974207369676e61747572656044820152606401610c48565b611c9686866001612ac8565b6001600160a01b0386166000908152600760205260408120805491611cba83613fe2565b9190505550505050505050565b611cd0816122ce565b611cec5760405162461bcd60e51b8152600401610c4890613e96565b600081815260196020526040812090611d0483612bee565b90508015610ce9576001919091015550565b601860205260009081526040902080548190611d3190613dee565b80601f0160208091040260200160405190810160405280929190818152602001828054611d5d90613dee565b8015611daa5780601f10611d7f57610100808354040283529160200191611daa565b820191906000526020600020905b815481529060010190602001808311611d8d57829003601f168201915b505050505090806001018054611dbf90613dee565b80601f0160208091040260200160405190810160405280929190818152602001828054611deb90613dee565b8015611e385780601f10611e0d57610100808354040283529160200191611e38565b820191906000526020600020905b815481529060010190602001808311611e1b57829003601f168201915b5050505050905082565b611e4c33836122eb565b611eae5760405162461bcd60e51b815260206004820152602d60248201527f4552433732313a2063616c6c6572206973206e6f7420746f6b656e206f776e6560448201526c1c881bdc88185c1c1c9bdd9959609a1b6064820152608401610c48565b611b7c84848484612d16565b6060611ec58261223b565b60008281526017602052604090208054611ede90613dee565b80601f0160208091040260200160405190810160405280929190818152602001828054611f0a90613dee565b8015611f575780601f10611f2c57610100808354040283529160200191611f57565b820191906000526020600020905b815481529060010190602001808311611f3a57829003601f168201915b50505050509050919050565b600080601660009054906101000a90046001600160a01b03166001600160a01b0316636cfe8a9f6040518163ffffffff1660e01b8152600401602060405180830381865afa158015611fb9573d6000803e3d6000fd5b505050506040513d601f19601f82011682018060405250810190611fdd9190614011565b9050600060196000858152602001908152602001600020600501549050816001600160a01b0316638ff0ae376040518163ffffffff1660e01b8152600401602060405180830381865afa158015612038573d6000803e3d6000fd5b505050506040513d601f19601f8201168201806040525081019061205c919061402e565b6120669082614047565b949350505050565b612077816122ce565b6120935760405162461bcd60e51b8152600401610c4890613e96565b6000818152601960205260408120906120ab83612d49565b90508015610ce957905550565b6001600160a01b039182166000908152600c6020908152604080832093909416825291909152205460ff1690565b6002546001600160a01b031633146121105760405162461bcd60e51b8152600401610c4890613e5f565b6601902d7bb380008110156121385760405163207226af60e01b815260040160405180910390fd5b674563918244f400008111156121615760405163872b286360e01b815260040160405180910390fd5b601455565b6002546001600160a01b031633146121905760405162461bcd60e51b8152600401610c4890613e5f565b6001600160a01b0381166121f45760405162461bcd60e51b815260206004820152602560248201527f5652433732353a206e6577206f776e657220697320746865207a65726f206164604482015264647265737360d81b6064820152608401610c48565b600380546001600160a01b0319166001600160a01b0392909216919091179055565b60006001600160e01b0319821663780e9d6360e01b1480610b155750610b1582612e6e565b612244816122ce565b610ee75760405162461bcd60e51b8152600401610c4890613e28565b6000818152600b6020526040902080546001600160a01b0319166001600160a01b038416908117909155819061229582611345565b6001600160a01b03167f8c5be1e5ebec7d5bd14f71427d1e84f3dd0314c0f7b2291e5b200ac8c7c3b92560405160405180910390a45050565b6000908152600a60205260409020546001600160a01b0316151590565b6000806122f783611345565b9050806001600160a01b0316846001600160a01b0316148061231e575061231e81856120b8565b806120665750836001600160a01b031661233784610bad565b6001600160a01b031614949350505050565b826001600160a01b031661235c82611345565b6001600160a01b0316146123825760405162461bcd60e51b8152600401610c489061407c565b6001600160a01b0382166123e45760405162461bcd60e51b8152602060048201526024808201527f5652433732353a207472616e7366657220746f20746865207a65726f206164646044820152637265737360e01b6064820152608401610c48565b6123f18383836001612ef4565b826001600160a01b031661240482611345565b6001600160a01b03161461242a5760405162461bcd60e51b8152600401610c489061407c565b6000818152600b6020908152604080832080546001600160a01b03199081169091556001600160a01b0387811685528484528285208054600019019055861680855282852080546001019055858552600a9093529220805490921617905561249181612f00565b80826001600160a01b0316846001600160a01b03167fddf252ad1be2c89b69c2b068fc378daa952ba7f163c4a11628f55a4df523b3ef60405160405180910390a4505050565b6002601154036124fa57604051633ee5aeb560e01b815260040160405180910390fd5b6002601155565b6000610ef47f8b73c3c69bb8fe3d512ecc4cf759cc79239f7b179b0ffacaa9a75d522b39400f61253060045490565b6005546040805160208101859052908101839052606081018290524660808201523060a082015260009060c0016040516020818303038152906040528051906020012090509392505050565b612584612f22565b6012805460ff191690557f5db9ee0a495bf2e6ff9c91a7834c1ba4fdd244a5e8aa4e537bd38aeae4b073aa335b6040516001600160a01b03909116815260200160405180910390a1565b60006125d982611345565b90506125e9816000846001612ef4565b6125f282611345565b6000838152600b6020908152604080832080546001600160a01b03199081169091556001600160a01b0385168085528484528285208054600019019055878552600a909352818420805490911690555192935084927fddf252ad1be2c89b69c2b068fc378daa952ba7f163c4a11628f55a4df523b3ef908390a45050565b60125460ff1615610f2b5760405163d93c066560e01b815260040160405180910390fd5b611b8d828260405180602001604052806000815250612f45565b60606000601860008481526020019081526020016000206040518060400160405290816000820180546126e090613dee565b80601f016020809104026020016040519081016040528092919081815260200182805461270c90613dee565b80156127595780601f1061272e57610100808354040283529160200191612759565b820191906000526020600020905b81548152906001019060200180831161273c57829003601f168201915b5050505050815260200160018201805461277290613dee565b80601f016020809104026020016040519081016040528092919081815260200182805461279e90613dee565b80156127eb5780601f106127c0576101008083540402835291602001916127eb565b820191906000526020600020905b8154815290600101906020018083116127ce57829003601f168201915b505050919092525050506000848152601960209081526040808320815161012081018352815481526001820154938101939093526002810154918301919091526003810154606083015260048101546080830152600581015460a0830152600681015460c0830152600781015460e08301526008015461010082015291925061287385612f78565b835160208086015160405161288a949392016140dd565b6040516020818303038152906040526128a68360000151612f78565b6128b38460200151612f78565b6128c08560400151612f78565b6128cd8660600151612f78565b6128da8760800151612f78565b6128e78860a00151612f78565b6040516020016128fc969594939291906141db565b60408051601f198184030181529082905261291a92916020016142f6565b60405160208183030381529060405290506129348161300b565b6040516020016129449190614325565b6040516020818303038152906040529350505050919050565b604080517f49ecf333e5b8c95c40fdafc95c1ad136e8914a8fb55e9dc8bb01eaa83a2df9ad60208201526001600160a01b03861691810191909152606081018490526080810183905260a081018290526000906129d39060c0015b6040516020818303038152906040528051906020012061316b565b95945050505050565b60008060008351604103612a165760208401516040850151606086015160001a612a0888828585613198565b955095509550505050612a22565b50508151600091506002905b9250925092565b6000806000612a3885856129dc565b5090925090506000816003811115612a5257612a5261436a565b148015612a705750856001600160a01b0316826001600160a01b0316145b80612a815750612a81868686613267565b9695505050505050565b612a93612670565b6012805460ff191660011790557f62e78cea01bee320cd4e420270b5ea74000d11b0c9f74754ebdbfc544b05a2586125b13390565b816001600160a01b0316836001600160a01b031603612b295760405162461bcd60e51b815260206004820152601960248201527f5652433732353a20617070726f766520746f2063616c6c6572000000000000006044820152606401610c48565b6001600160a01b038381166000818152600c6020908152604080832094871680845294825291829020805460ff191686151590811790915591519182527f17307eab39ab6107e8899845ad3d59bd9653f200f220920489ca2b5937696c31910160405180910390a3505050565b604080517f29795620f29ed5790c945e3f419a1b3e2381aa07751ccffe5b81231639d74cd560208201526001600160a01b0385169181019190915260608101839052608081018290526000906120669060a0016129b8565b600080601660009054906101000a90046001600160a01b03166001600160a01b0316636cfe8a9f6040518163ffffffff1660e01b8152600401602060405180830381865afa158015612c44573d6000803e3d6000fd5b505050506040513d601f19601f82011682018060405250810190612c689190614011565b6000848152601a6020526040812060030154919250612c878242614380565b9050826001600160a01b0316633d6e3e656040518163ffffffff1660e01b8152600401602060405180830381865afa158015612cc7573d6000803e3d6000fd5b505050506040513d601f19601f82011682018060405250810190612ceb919061402e565b811015612cfd57506000949350505050565b505050600091825250601a602052604090206001015490565b612d21848484612349565b612d2d84848484613342565b611b7c5760405162461bcd60e51b8152600401610c4890614393565b600080601660009054906101000a90046001600160a01b03166001600160a01b0316636cfe8a9f6040518163ffffffff1660e01b8152600401602060405180830381865afa158015612d9f573d6000803e3d6000fd5b505050506040513d601f19601f82011682018060405250810190612dc39190614011565b6000848152601a6020526040812060020154919250612de28242614380565b9050826001600160a01b0316632aa26b3c6040518163ffffffff1660e01b8152600401602060405180830381865afa158015612e22573d6000803e3d6000fd5b505050506040513d601f19601f82011682018060405250810190612e46919061402e565b811015612e5857506000949350505050565b505050600091825250601a602052604090205490565b60006001600160e01b031982166380ac58cd60e01b1480612e9f57506001600160e01b03198216635b5e139f60e01b145b80612eba57506001600160e01b03198216635604e22560e01b145b80612ed557506001600160e01b03198216637ae9dc5d60e11b145b80610b1557506301ffc9a760e01b6001600160e01b0319831614610b15565b611b7c84848484613440565b6000818152600660205260408120805491612f1a83613fe2565b919050555050565b60125460ff16610f2b57604051638dfc202b60e01b815260040160405180910390fd5b612f4f8383613580565b612f5c6000848484613342565b610ce95760405162461bcd60e51b8152600401610c4890614393565b60606000612f85836136f9565b600101905060008167ffffffffffffffff811115612fa557612fa5613b3e565b6040519080825280601f01601f191660200182016040528015612fcf576020820181803683370190505b5090508181016020015b600019016f181899199a1a9b1b9c1cb0b131b232b360811b600a86061a8153600a8504945084612fd957509392505050565b6060815160000361302a57505060408051602081019091526000815290565b60006040518060600160405280604081526020016144c360409139905060006003845160026130599190614069565b6130639190614047565b61306e9060046143e5565b67ffffffffffffffff81111561308657613086613b3e565b6040519080825280601f01601f1916602001820160405280156130b0576020820181803683370190505b50905060018201602082018586518701602081018051600082525b82841015613126576003840193508351603f8160121c168701518653600186019550603f81600c1c168701518653600186019550603f8160061c168701518653600186019550603f81168701518653506001850194506130cb565b9052505085516003900660018114613145576002811461315857613160565b603d6001830353603d6002830353613160565b603d60018303535b509195945050505050565b6000610b15613178612501565b8360405161190160f01b8152600281019290925260228201526042902090565b600080807f7fffffffffffffffffffffffffffffff5d576e7357a4501ddfe92f46681b20a08411156131d3575060009150600390508261325d565b604080516000808252602082018084528a905260ff891692820192909252606081018790526080810186905260019060a0016020604051602081039080840390855afa158015613227573d6000803e3d6000fd5b5050604051601f1901519150506001600160a01b0381166132535750600092506001915082905061325d565b9250600091508190505b9450945094915050565b6000806000856001600160a01b031685856040516024016132899291906143fc565b60408051601f198184030181529181526020820180516001600160e01b0316630b135d3f60e11b179052516132be9190614415565b600060405180830381855afa9150503d80600081146132f9576040519150601f19603f3d011682016040523d82523d6000602084013e6132fe565b606091505b509150915081801561331257506020815110155b8015612a8157508051630b135d3f60e11b90613337908301602090810190840161402e565b149695505050505050565b60006001600160a01b0384163b1561343857604051630a85bd0160e11b81526001600160a01b0385169063150b7a0290613386903390899088908890600401614431565b6020604051808303816000875af19250505080156133c1575060408051601f3d908101601f191682019092526133be91810190614464565b60015b61341e573d8080156133ef576040519150601f19603f3d011682016040523d82523d6000602084013e6133f4565b606091505b5080516000036134165760405162461bcd60e51b8152600401610c4890614393565b805181602001fd5b6001600160e01b031916630a85bd0160e11b149050612066565b506001612066565b61344c848484846137d1565b60018111156134bb5760405162461bcd60e51b815260206004820152603560248201527f565243373235456e756d657261626c653a20636f6e7365637574697665207472604482015274185b9cd9995c9cc81b9bdd081cdd5c1c1bdc9d1959605a1b6064820152608401610c48565b816001600160a01b0385166135175761351281600f80546000838152601060205260408120829055600182018355919091527f8d1108e10bcb7c27dddfc02ed9d693a074039d026cf4ea4240b40f7d581ac8020155565b61353a565b836001600160a01b0316856001600160a01b03161461353a5761353a8582613859565b6001600160a01b03841661355657613551816138f6565b613579565b846001600160a01b0316846001600160a01b0316146135795761357984826139a5565b5050505050565b6001600160a01b0382166135d65760405162461bcd60e51b815260206004820181905260248201527f4552433732313a206d696e7420746f20746865207a65726f20616464726573736044820152606401610c48565b6135df816122ce565b1561362c5760405162461bcd60e51b815260206004820152601c60248201527f4552433732313a20746f6b656e20616c7265616479206d696e746564000000006044820152606401610c48565b61363a600083836001612ef4565b613643816122ce565b156136905760405162461bcd60e51b815260206004820152601c60248201527f4552433732313a20746f6b656e20616c7265616479206d696e746564000000006044820152606401610c48565b6001600160a01b03821660008181526020818152604080832080546001019055848352600a90915280822080546001600160a01b0319168417905551839291907fddf252ad1be2c89b69c2b068fc378daa952ba7f163c4a11628f55a4df523b3ef908290a45050565b60008072184f03e93ff9f4daa797ed6e38ed64bf6a1f0160401b83106137385772184f03e93ff9f4daa797ed6e38ed64bf6a1f0160401b830492506040015b6d04ee2d6d415b85acef81000000008310613764576d04ee2d6d415b85acef8100000000830492506020015b662386f26fc10000831061378257662386f26fc10000830492506010015b6305f5e100831061379a576305f5e100830492506008015b61271083106137ae57612710830492506004015b606483106137c0576064830492506002015b600a8310610b155760010192915050565b6001811115611b7c576001600160a01b03841615613817576001600160a01b03841660009081526020819052604081208054839290613811908490614380565b90915550505b6001600160a01b03831615611b7c576001600160a01b0383166000908152602081905260408120805483929061384e908490614069565b909155505050505050565b60006001613866846114dc565b6138709190614380565b6000838152600e60205260409020549091508082146138c3576001600160a01b0384166000908152600d602090815260408083208584528252808320548484528184208190558352600e90915290208190555b506000918252600e602090815260408084208490556001600160a01b039094168352600d81528383209183525290812055565b600f5460009061390890600190614380565b600083815260106020526040812054600f805493945090928490811061393057613930613ffb565b9060005260206000200154905080600f838154811061395157613951613ffb565b600091825260208083209091019290925582815260109091526040808220849055858252812055600f80548061398957613989614481565b6001900381819060005260206000200160009055905550505050565b60006139b0836114dc565b6001600160a01b039093166000908152600d602090815260408083208684528252808320859055938252600e9052919091209190915550565b6001600160e01b031981168114610ee757600080fd5b600060208284031215613a1157600080fd5b8135613a1c816139e9565b9392505050565b60005b83811015613a3e578181015183820152602001613a26565b50506000910152565b60008151808452613a5f816020860160208601613a23565b601f01601f19169290920160200192915050565b602081526000613a1c6020830184613a47565b600060208284031215613a9857600080fd5b5035919050565b6001600160a01b0381168114610ee757600080fd5b60008060408385031215613ac757600080fd5b8235613ad281613a9f565b946020939093013593505050565b600080600060608486031215613af557600080fd5b8335613b0081613a9f565b92506020840135613b1081613a9f565b929592945050506040919091013590565b600060208284031215613b3357600080fd5b8135613a1c81613a9f565b634e487b7160e01b600052604160045260246000fd5b604051610120810167ffffffffffffffff81118282101715613b7857613b78613b3e565b60405290565b600082601f830112613b8f57600080fd5b813567ffffffffffffffff80821115613baa57613baa613b3e565b604051601f8301601f19908116603f01168101908282118183101715613bd257613bd2613b3e565b81604052838152866020858801011115613beb57600080fd5b836020870160208301376000602085830101528094505050505092915050565b60008060008060808587031215613c2157600080fd5b8435613c2c81613a9f565b93506020850135925060408501359150606085013567ffffffffffffffff811115613c5657600080fd5b613c6287828801613b7e565b91505092959194509250565b600080828403610140811215613c8357600080fd5b8335925061012080601f1983011215613c9b57600080fd5b613ca3613b54565b91506020850135825260408501356020830152606085013560408301526080850135606083015260a0850135608083015260c085013560a083015260e085013560c08301526101008086013560e084015281860135818401525050809150509250929050565b60008060408385031215613d1c57600080fd5b8235613d2781613a9f565b915060208301358015158114613d3c57600080fd5b809150509250929050565b60008060008060808587031215613d5d57600080fd5b8435613d6881613a9f565b93506020850135613d7881613a9f565b925060408501359150606085013567ffffffffffffffff811115613c5657600080fd5b604081526000613dae6040830185613a47565b82810360208401526129d38185613a47565b60008060408385031215613dd357600080fd5b8235613dde81613a9f565b91506020830135613d3c81613a9f565b600181811c90821680613e0257607f821691505b602082108103613e2257634e487b7160e01b600052602260045260246000fd5b50919050565b60208082526018908201527f5652433732353a20696e76616c696420746f6b656e2049440000000000000000604082015260600190565b6020808252601f908201527f5652433732353a2063616c6c6572206973206e6f7420746865206f776e657200604082015260600190565b602080825260149082015273151bdad95b88191bd95cc81b9bdd08195e1a5cdd60621b604082015260600190565b601f821115610ce9576000816000526020600020601f850160051c81016020861015613eed5750805b601f850160051c820191505b8181101561166e57828155600101613ef9565b815167ffffffffffffffff811115613f2657613f26613b3e565b613f3a81613f348454613dee565b84613ec4565b602080601f831160018114613f6f5760008415613f575750858301515b600019600386901b1c1916600185901b17855561166e565b600085815260208120601f198616915b82811015613f9e57888601518255948401946001909101908401613f7f565b5085821015613fbc5787850151600019600388901b60f8161c191681555b5050505050600190811b01905550565b634e487b7160e01b600052601160045260246000fd5b600060018201613ff457613ff4613fcc565b5060010190565b634e487b7160e01b600052603260045260246000fd5b60006020828403121561402357600080fd5b8151613a1c81613a9f565b60006020828403121561404057600080fd5b5051919050565b60008261406457634e487b7160e01b600052601260045260246000fd5b500490565b80820180821115610b1557610b15613fcc565b60208082526025908201527f5652433732353a207472616e736665722066726f6d20696e636f72726563742060408201526437bbb732b960d91b606082015260800190565b600081516140d3818560208601613a23565b9290920192915050565b607b60f81b81526d226e616d65223a2022426565202360901b6001820152835160009061411181600f850160208901613a23565b61088b60f21b600f918401918201527f226465736372697074696f6e223a202242757a7a6b696c6c204e4654222c00006011820152691134b6b0b3b2911d101160b11b602f820152845161416c816039840160208901613a23565b601160f91b6039929091019182015268113a3cb832911d101160b91b603a82015283516141a0816043840160208801613a23565b6141d06141b9604383850101601160f91b815260010190565b6a1132b732b933bc911d101160a91b8152600b0190565b979650505050505050565b600087516141ed818460208c01613a23565b601160f91b9083018181526a113432b0b63a34111d101160a91b6001820152885190919061422281600c850160208d01613a23565b600c92019182018190526a1130ba3a30b1b5911d101160a91b600d8301528751614253816018850160208c01613a23565b60189201918201526b113232b332b739b2911d101160a11b60198201526142e96142dc6142916142d66142bb826142b561429e8260258a018f6140c1565b601160f91b815260010190565b6a113337b930b3b2911d101160a91b8152600b0190565b8b6140c1565b6e1132bc3832b934b2b731b2911d101160891b8152600f0190565b876140c1565b607d60f81b815260010190565b9998505050505050505050565b60008351614308818460208801613a23565b83519083019061431c818360208801613a23565b01949350505050565b7f646174613a6170706c69636174696f6e2f6a736f6e3b6261736536342c00000081526000825161435d81601d850160208701613a23565b91909101601d0192915050565b634e487b7160e01b600052602160045260246000fd5b81810381811115610b1557610b15613fcc565b60208082526032908201527f4552433732313a207472616e7366657220746f206e6f6e20455243373231526560408201527131b2b4bb32b91034b6b83632b6b2b73a32b960711b606082015260800190565b8082028115828204841417610b1557610b15613fcc565b8281526040602082015260006120666040830184613a47565b60008251614427818460208701613a23565b9190910192915050565b6001600160a01b0385811682528416602082015260408101839052608060608201819052600090612a8190830184613a47565b60006020828403121561447657600080fd5b8151613a1c816139e9565b634e487b7160e01b600052603160045260246000fdfe68747470733a2f2f70686f746f732e6170702e676f6f2e676c2f6464716b6a4b663652656b5153615945364142434445464748494a4b4c4d4e4f505152535455565758595a6162636465666768696a6b6c6d6e6f707172737475767778797a303132333435363738392b2f68747470733a2f2f70686f746f732e6170702e676f6f2e676c2f365157767a5777354c33446e696a467336a264697066735822122088416c3860ba6560250ed01f96740d0b61e5abea2cde540bd04cbb60bc32049264736f6c63430008190033","linkReferences":{}},"methodIdentifiers":{"BASE_DENOMINATOR()":"bd859584","DOMAIN_SEPARATOR()":"3644e515","MAX_FEE()":"bc063e1a","MAX_SUPPLY()":"32cb6b0c","MIN_FEE()":"76c7a3c7","PERMIT_FOR_ALL_TYPEHASH()":"585956d6","PERMIT_TYPEHASH()":"30adf81f","acceptOwnership()":"79ba5097","approve(address,uint256)":"095ea7b3","balanceOf(address)":"70a08231","burn(uint256)":"42966c68","buzzkillAddressProvider()":"921ca4b1","currentTokenId()":"009a9b7b","getApproved(uint256)":"081812fc","getBeeLevel(uint256)":"d0c4567e","getBeeTraits(uint256)":"6d1dcb91","hiveFactory()":"ef9f40c4","isApprovedForAll(address,address)":"e985e9c5","issuer()":"1d143848","minFee()":"24ec7590","mintFee()":"13966db5","mintTo(address,uint256)":"449a52f8","modifyBeeTraits(uint256,(uint256,uint256,uint256,uint256,uint256,uint256,uint256,uint256,uint256))":"a18285ce","name()":"06fdde03","nonceByAddress(address)":"5e5756d5","nonces(uint256)":"141a468c","owner()":"8da5cb5b","ownerOf(uint256)":"6352211e","pause()":"8456cb59","paused()":"5c975abb","permit(address,uint256,uint256,bytes)":"745a41bc","permitForAll(address,address,uint256,bytes)":"ab84ee6f","queenBeeImage()":"80fdc055","refreshBeeEnergy(uint256)":"da4b0b34","refreshBeeHealth(uint256)":"b1f2ead6","safeTransferFrom(address,address,uint256)":"42842e0e","safeTransferFrom(address,address,uint256,bytes)":"b88d4fde","setApprovalForAll(address,bool)":"a22cb465","setHiveFactoryAddress(address)":"88d1abde","setMintFee(uint256)":"eddd0d9c","supportsInterface(bytes4)":"01ffc9a7","symbol()":"95d89b41","tokenByIndex(uint256)":"4f6ccce7","tokenIdToCharacteristics(uint256)":"b4dc46d9","tokenIdToStatus(uint256)":"2ad22315","tokenIdToTraits(uint256)":"f3c86ff5","tokenOfOwnerByIndex(address,uint256)":"2f745c59","tokenURI(uint256)":"c87b56dd","tokenURIs(uint256)":"6c8b703f","totalSupply()":"18160ddd","transferFrom(address,address,uint256)":"23b872dd","transferOwnership(address)":"f2fde38b","unpause()":"3f4ba83a","withdrawPayments(address)":"31b3eb94","workerBeeImage()":"7ea6dd72"},"id":0}