{"abi":[{"type":"constructor","inputs":[{"name":"_mintFee","type":"uint256","internalType":"uint256"},{"name":"_buzzkillAddressProvider","type":"address","internalType":"address"}],"stateMutability":"nonpayable"},{"type":"fallback","stateMutability":"payable"},{"type":"receive","stateMutability":"payable"},{"type":"function","name":"BASE_DENOMINATOR","inputs":[],"outputs":[{"name":"","type":"uint256","internalType":"uint256"}],"stateMutability":"view"},{"type":"function","name":"DOMAIN_SEPARATOR","inputs":[],"outputs":[{"name":"","type":"bytes32","internalType":"bytes32"}],"stateMutability":"view"},{"type":"function","name":"MAX_FEE","inputs":[],"outputs":[{"name":"","type":"uint256","internalType":"uint256"}],"stateMutability":"view"},{"type":"function","name":"MAX_SUPPLY","inputs":[],"outputs":[{"name":"","type":"uint256","internalType":"uint256"}],"stateMutability":"view"},{"type":"function","name":"MIN_FEE","inputs":[],"outputs":[{"name":"","type":"uint256","internalType":"uint256"}],"stateMutability":"view"},{"type":"function","name":"PERMIT_FOR_ALL_TYPEHASH","inputs":[],"outputs":[{"name":"","type":"bytes32","internalType":"bytes32"}],"stateMutability":"view"},{"type":"function","name":"PERMIT_TYPEHASH","inputs":[],"outputs":[{"name":"","type":"bytes32","internalType":"bytes32"}],"stateMutability":"view"},{"type":"function","name":"acceptOwnership","inputs":[],"outputs":[],"stateMutability":"nonpayable"},{"type":"function","name":"approve","inputs":[{"name":"to","type":"address","internalType":"address"},{"name":"tokenId","type":"uint256","internalType":"uint256"}],"outputs":[],"stateMutability":"nonpayable"},{"type":"function","name":"balanceOf","inputs":[{"name":"owner","type":"address","internalType":"address"}],"outputs":[{"name":"","type":"uint256","internalType":"uint256"}],"stateMutability":"view"},{"type":"function","name":"beeQuestTracking","inputs":[{"name":"","type":"uint256","internalType":"uint256"},{"name":"","type":"uint256","internalType":"uint256"}],"outputs":[{"name":"forageCount","type":"uint256","internalType":"uint256"},{"name":"raidCount","type":"uint256","internalType":"uint256"},{"name":"raidSuccessCount","type":"uint256","internalType":"uint256"},{"name":"upgradeCount","type":"uint256","internalType":"uint256"}],"stateMutability":"view"},{"type":"function","name":"burn","inputs":[{"name":"tokenId","type":"uint256","internalType":"uint256"}],"outputs":[],"stateMutability":"nonpayable"},{"type":"function","name":"buzzkillAddressProvider","inputs":[],"outputs":[{"name":"","type":"address","internalType":"contract IBuzzkillAddressProvider"}],"stateMutability":"view"},{"type":"function","name":"currentTokenId","inputs":[],"outputs":[{"name":"","type":"uint256","internalType":"uint256"}],"stateMutability":"view"},{"type":"function","name":"getApproved","inputs":[{"name":"tokenId","type":"uint256","internalType":"uint256"}],"outputs":[{"name":"","type":"address","internalType":"address"}],"stateMutability":"view"},{"type":"function","name":"getBeeLevel","inputs":[{"name":"tokenId","type":"uint256","internalType":"uint256"}],"outputs":[{"name":"","type":"uint256","internalType":"uint256"}],"stateMutability":"view"},{"type":"function","name":"getBeeTraits","inputs":[{"name":"tokenId","type":"uint256","internalType":"uint256"}],"outputs":[{"name":"","type":"tuple","internalType":"struct BuzzkillNFT.BeeTraits","components":[{"name":"energy","type":"uint256","internalType":"uint256"},{"name":"health","type":"uint256","internalType":"uint256"},{"name":"attack","type":"uint256","internalType":"uint256"},{"name":"defense","type":"uint256","internalType":"uint256"},{"name":"forage","type":"uint256","internalType":"uint256"},{"name":"baseProductivity","type":"uint256","internalType":"uint256"},{"name":"maxProductivity","type":"uint256","internalType":"uint256"},{"name":"experience","type":"uint256","internalType":"uint256"},{"name":"level","type":"uint256","internalType":"uint256"},{"name":"nectar","type":"uint256","internalType":"uint256"},{"name":"pollen","type":"uint256","internalType":"uint256"},{"name":"sap","type":"uint256","internalType":"uint256"}]}],"stateMutability":"view"},{"type":"function","name":"getForagingNumQuestsForLevel","inputs":[{"name":"level","type":"uint256","internalType":"uint256"}],"outputs":[{"name":"","type":"uint256","internalType":"uint256"}],"stateMutability":"view"},{"type":"function","name":"getRaidNumQuestsForLevel","inputs":[{"name":"level","type":"uint256","internalType":"uint256"}],"outputs":[{"name":"","type":"uint256","internalType":"uint256"}],"stateMutability":"view"},{"type":"function","name":"getRaidSuccessNumQuestsForLevel","inputs":[{"name":"level","type":"uint256","internalType":"uint256"}],"outputs":[{"name":"","type":"uint256","internalType":"uint256"}],"stateMutability":"view"},{"type":"function","name":"getUpgradeNumQuestsForLevel","inputs":[{"name":"level","type":"uint256","internalType":"uint256"}],"outputs":[{"name":"","type":"uint256","internalType":"uint256"}],"stateMutability":"view"},{"type":"function","name":"isApprovedForAll","inputs":[{"name":"owner","type":"address","internalType":"address"},{"name":"operator","type":"address","internalType":"address"}],"outputs":[{"name":"","type":"bool","internalType":"bool"}],"stateMutability":"view"},{"type":"function","name":"issuer","inputs":[],"outputs":[{"name":"","type":"address","internalType":"address"}],"stateMutability":"view"},{"type":"function","name":"minFee","inputs":[],"outputs":[{"name":"","type":"uint256","internalType":"uint256"}],"stateMutability":"view"},{"type":"function","name":"mintFee","inputs":[],"outputs":[{"name":"","type":"uint256","internalType":"uint256"}],"stateMutability":"view"},{"type":"function","name":"mintTo","inputs":[{"name":"to","type":"address","internalType":"address"},{"name":"_beeType","type":"uint256","internalType":"uint256"}],"outputs":[{"name":"","type":"uint256","internalType":"uint256"}],"stateMutability":"payable"},{"type":"function","name":"modifyBeeTraits","inputs":[{"name":"hiveId","type":"uint256","internalType":"uint256"},{"name":"tokenId","type":"uint256","internalType":"uint256"},{"name":"_newBeeTraits","type":"tuple","internalType":"struct BuzzkillNFT.BeeTraits","components":[{"name":"energy","type":"uint256","internalType":"uint256"},{"name":"health","type":"uint256","internalType":"uint256"},{"name":"attack","type":"uint256","internalType":"uint256"},{"name":"defense","type":"uint256","internalType":"uint256"},{"name":"forage","type":"uint256","internalType":"uint256"},{"name":"baseProductivity","type":"uint256","internalType":"uint256"},{"name":"maxProductivity","type":"uint256","internalType":"uint256"},{"name":"experience","type":"uint256","internalType":"uint256"},{"name":"level","type":"uint256","internalType":"uint256"},{"name":"nectar","type":"uint256","internalType":"uint256"},{"name":"pollen","type":"uint256","internalType":"uint256"},{"name":"sap","type":"uint256","internalType":"uint256"}]}],"outputs":[],"stateMutability":"nonpayable"},{"type":"function","name":"name","inputs":[],"outputs":[{"name":"","type":"string","internalType":"string"}],"stateMutability":"view"},{"type":"function","name":"nonceByAddress","inputs":[{"name":"owner","type":"address","internalType":"address"}],"outputs":[{"name":"","type":"uint256","internalType":"uint256"}],"stateMutability":"view"},{"type":"function","name":"nonces","inputs":[{"name":"tokenId","type":"uint256","internalType":"uint256"}],"outputs":[{"name":"","type":"uint256","internalType":"uint256"}],"stateMutability":"view"},{"type":"function","name":"owner","inputs":[],"outputs":[{"name":"","type":"address","internalType":"address"}],"stateMutability":"view"},{"type":"function","name":"ownerOf","inputs":[{"name":"tokenId","type":"uint256","internalType":"uint256"}],"outputs":[{"name":"","type":"address","internalType":"address"}],"stateMutability":"view"},{"type":"function","name":"pause","inputs":[],"outputs":[],"stateMutability":"nonpayable"},{"type":"function","name":"paused","inputs":[],"outputs":[{"name":"","type":"bool","internalType":"bool"}],"stateMutability":"view"},{"type":"function","name":"permit","inputs":[{"name":"spender","type":"address","internalType":"address"},{"name":"tokenId","type":"uint256","internalType":"uint256"},{"name":"deadline","type":"uint256","internalType":"uint256"},{"name":"signature","type":"bytes","internalType":"bytes"}],"outputs":[],"stateMutability":"nonpayable"},{"type":"function","name":"permitForAll","inputs":[{"name":"owner","type":"address","internalType":"address"},{"name":"spender","type":"address","internalType":"address"},{"name":"deadline","type":"uint256","internalType":"uint256"},{"name":"signature","type":"bytes","internalType":"bytes"}],"outputs":[],"stateMutability":"nonpayable"},{"type":"function","name":"queenBeeImage","inputs":[],"outputs":[{"name":"","type":"string","internalType":"string"}],"stateMutability":"view"},{"type":"function","name":"refreshBeeEnergy","inputs":[{"name":"tokenId","type":"uint256","internalType":"uint256"}],"outputs":[],"stateMutability":"nonpayable"},{"type":"function","name":"refreshBeeHealth","inputs":[{"name":"tokenId","type":"uint256","internalType":"uint256"}],"outputs":[],"stateMutability":"nonpayable"},{"type":"function","name":"safeTransferFrom","inputs":[{"name":"from","type":"address","internalType":"address"},{"name":"to","type":"address","internalType":"address"},{"name":"tokenId","type":"uint256","internalType":"uint256"}],"outputs":[],"stateMutability":"nonpayable"},{"type":"function","name":"safeTransferFrom","inputs":[{"name":"from","type":"address","internalType":"address"},{"name":"to","type":"address","internalType":"address"},{"name":"tokenId","type":"uint256","internalType":"uint256"},{"name":"data","type":"bytes","internalType":"bytes"}],"outputs":[],"stateMutability":"nonpayable"},{"type":"function","name":"setApprovalForAll","inputs":[{"name":"operator","type":"address","internalType":"address"},{"name":"approved","type":"bool","internalType":"bool"}],"outputs":[],"stateMutability":"nonpayable"},{"type":"function","name":"setMintFee","inputs":[{"name":"_mintFee","type":"uint256","internalType":"uint256"}],"outputs":[],"stateMutability":"nonpayable"},{"type":"function","name":"supportsInterface","inputs":[{"name":"interfaceId","type":"bytes4","internalType":"bytes4"}],"outputs":[{"name":"","type":"bool","internalType":"bool"}],"stateMutability":"view"},{"type":"function","name":"symbol","inputs":[],"outputs":[{"name":"","type":"string","internalType":"string"}],"stateMutability":"view"},{"type":"function","name":"tokenByIndex","inputs":[{"name":"index","type":"uint256","internalType":"uint256"}],"outputs":[{"name":"","type":"uint256","internalType":"uint256"}],"stateMutability":"view"},{"type":"function","name":"tokenIdToCharacteristics","inputs":[{"name":"","type":"uint256","internalType":"uint256"}],"outputs":[{"name":"avatar","type":"string","internalType":"string"},{"name":"beeType","type":"string","internalType":"string"}],"stateMutability":"view"},{"type":"function","name":"tokenIdToStatus","inputs":[{"name":"","type":"uint256","internalType":"uint256"}],"outputs":[{"name":"baseEnergy","type":"uint256","internalType":"uint256"},{"name":"baseHealth","type":"uint256","internalType":"uint256"},{"name":"lastEnergyRefreshTimestamp","type":"uint256","internalType":"uint256"},{"name":"lastHealthRefreshTimestamp","type":"uint256","internalType":"uint256"}],"stateMutability":"view"},{"type":"function","name":"tokenIdToTraits","inputs":[{"name":"","type":"uint256","internalType":"uint256"}],"outputs":[{"name":"energy","type":"uint256","internalType":"uint256"},{"name":"health","type":"uint256","internalType":"uint256"},{"name":"attack","type":"uint256","internalType":"uint256"},{"name":"defense","type":"uint256","internalType":"uint256"},{"name":"forage","type":"uint256","internalType":"uint256"},{"name":"baseProductivity","type":"uint256","internalType":"uint256"},{"name":"maxProductivity","type":"uint256","internalType":"uint256"},{"name":"experience","type":"uint256","internalType":"uint256"},{"name":"level","type":"uint256","internalType":"uint256"},{"name":"nectar","type":"uint256","internalType":"uint256"},{"name":"pollen","type":"uint256","internalType":"uint256"},{"name":"sap","type":"uint256","internalType":"uint256"}],"stateMutability":"view"},{"type":"function","name":"tokenOfOwnerByIndex","inputs":[{"name":"owner","type":"address","internalType":"address"},{"name":"index","type":"uint256","internalType":"uint256"}],"outputs":[{"name":"","type":"uint256","internalType":"uint256"}],"stateMutability":"view"},{"type":"function","name":"tokenURI","inputs":[{"name":"tokenId","type":"uint256","internalType":"uint256"}],"outputs":[{"name":"","type":"string","internalType":"string"}],"stateMutability":"view"},{"type":"function","name":"tokenURIs","inputs":[{"name":"","type":"uint256","internalType":"uint256"}],"outputs":[{"name":"","type":"string","internalType":"string"}],"stateMutability":"view"},{"type":"function","name":"totalSupply","inputs":[],"outputs":[{"name":"","type":"uint256","internalType":"uint256"}],"stateMutability":"view"},{"type":"function","name":"transferFrom","inputs":[{"name":"from","type":"address","internalType":"address"},{"name":"to","type":"address","internalType":"address"},{"name":"tokenId","type":"uint256","internalType":"uint256"}],"outputs":[],"stateMutability":"nonpayable"},{"type":"function","name":"transferOwnership","inputs":[{"name":"newOwner","type":"address","internalType":"address"}],"outputs":[],"stateMutability":"nonpayable"},{"type":"function","name":"unpause","inputs":[],"outputs":[],"stateMutability":"nonpayable"},{"type":"function","name":"updateForagingQuestCount","inputs":[{"name":"hiveId","type":"uint256","internalType":"uint256"},{"name":"tokenId","type":"uint256","internalType":"uint256"}],"outputs":[],"stateMutability":"nonpayable"},{"type":"function","name":"updateRaidQuestCount","inputs":[{"name":"hiveId","type":"uint256","internalType":"uint256"},{"name":"tokenId","type":"uint256","internalType":"uint256"}],"outputs":[],"stateMutability":"nonpayable"},{"type":"function","name":"updateRaidSuccessQuestCount","inputs":[{"name":"hiveId","type":"uint256","internalType":"uint256"},{"name":"tokenId","type":"uint256","internalType":"uint256"}],"outputs":[],"stateMutability":"nonpayable"},{"type":"function","name":"updateUpgradeQuestCount","inputs":[{"name":"hiveId","type":"uint256","internalType":"uint256"},{"name":"tokenId","type":"uint256","internalType":"uint256"}],"outputs":[],"stateMutability":"nonpayable"},{"type":"function","name":"withdrawPayments","inputs":[{"name":"payee","type":"address","internalType":"address payable"}],"outputs":[],"stateMutability":"nonpayable"},{"type":"function","name":"workerBeeImage","inputs":[],"outputs":[{"name":"","type":"string","internalType":"string"}],"stateMutability":"view"},{"type":"event","name":"Approval","inputs":[{"name":"owner","type":"address","indexed":true,"internalType":"address"},{"name":"approved","type":"address","indexed":true,"internalType":"address"},{"name":"tokenId","type":"uint256","indexed":true,"internalType":"uint256"}],"anonymous":false},{"type":"event","name":"ApprovalForAll","inputs":[{"name":"owner","type":"address","indexed":true,"internalType":"address"},{"name":"operator","type":"address","indexed":true,"internalType":"address"},{"name":"approved","type":"bool","indexed":false,"internalType":"bool"}],"anonymous":false},{"type":"event","name":"Fee","inputs":[{"name":"from","type":"address","indexed":true,"internalType":"address"},{"name":"to","type":"address","indexed":true,"internalType":"address"},{"name":"issuer","type":"address","indexed":true,"internalType":"address"},{"name":"value","type":"uint256","indexed":false,"internalType":"uint256"}],"anonymous":false},{"type":"event","name":"OwnershipTransferred","inputs":[{"name":"previousOwner","type":"address","indexed":true,"internalType":"address"},{"name":"newOwner","type":"address","indexed":true,"internalType":"address"}],"anonymous":false},{"type":"event","name":"Paused","inputs":[{"name":"account","type":"address","indexed":false,"internalType":"address"}],"anonymous":false},{"type":"event","name":"Transfer","inputs":[{"name":"from","type":"address","indexed":true,"internalType":"address"},{"name":"to","type":"address","indexed":true,"internalType":"address"},{"name":"tokenId","type":"uint256","indexed":true,"internalType":"uint256"}],"anonymous":false},{"type":"event","name":"Unpaused","inputs":[{"name":"account","type":"address","indexed":false,"internalType":"address"}],"anonymous":false},{"type":"error","name":"EnforcedPause","inputs":[]},{"type":"error","name":"ExpectedPause","inputs":[]},{"type":"error","name":"HiveOnly","inputs":[]},{"type":"error","name":"InvalidBeeType","inputs":[]},{"type":"error","name":"MaxSupplyExceeded","inputs":[]},{"type":"error","name":"MintFeeNotPaid","inputs":[]},{"type":"error","name":"MintFeeTooHigh","inputs":[]},{"type":"error","name":"MintFeeTooLow","inputs":[]},{"type":"error","name":"ReentrancyGuardReentrantCall","inputs":[]},{"type":"error","name":"WithdrawTransferFailed","inputs":[]}],"bytecode":{"object":"0x608060405234801561001057600080fd5b506040516160bc3803806160bc83398101604081905261002f91610214565b60016011556012805460ff191690556601902d7bb380008210156100665760405163207226af60e01b815260040160405180910390fd5b674563918244f4000082111561008f5760405163872b286360e01b815260040160405180910390fd5b6100db60405180604001604052806008815260200167109d5e9e9ada5b1b60c21b81525060405180604001604052806003815260200162425a4b60e81b8152503361010560201b60201c565b601491909155601580546001600160a01b0319166001600160a01b039092169190911790556103b1565b600354600160a01b900460ff16156101635760405162461bcd60e51b815260206004820152601d60248201527f5652433732353a20436f6e747261637420616c726561647920696e6974000000604482015260640160405180910390fd5b61016d83836101ce565b61019683604051806040016040528060018152602001603160f81b8152506101f160201b60201c565b600280546001600160a01b039092166001600160a01b031990921691909117905550506003805460ff60a01b1916600160a01b179055565b60086101da83826102f2565b5060096101e782826102f2565b5050600060015550565b6102108282815160209283012081519190920120600491909155600555565b5050565b6000806040838503121561022757600080fd5b825160208401519092506001600160a01b038116811461024657600080fd5b809150509250929050565b634e487b7160e01b600052604160045260246000fd5b600181811c9082168061027b57607f821691505b60208210810361029b57634e487b7160e01b600052602260045260246000fd5b50919050565b601f8211156102ed576000816000526020600020601f850160051c810160208610156102ca5750805b601f850160051c820191505b818110156102e9578281556001016102d6565b5050505b505050565b81516001600160401b0381111561030b5761030b610251565b61031f816103198454610267565b846102a1565b602080601f831160018114610354576000841561033c5750858301515b600019600386901b1c1916600185901b1785556102e9565b600085815260208120601f198616915b8281101561038357888601518255948401946001909101908401610364565b50858210156103a15787850151600019600388901b60f8161c191681555b5050505050600190811b01905550565b615cfc806103c06000396000f3fe6080604052600436106103805760003560e01c80636c8b703f116101cf578063a22cb46511610101578063d0c4567e1161009a578063eddd0d9c1161006c578063eddd0d9c14610b7f578063f049949014610b9f578063f2fde38b14610bbf578063f3c86ff514610bdf57005b8063d0c4567e14610aff578063da4b0b3414610b1f578063e520f7dc14610b3f578063e985e9c514610b5f57005b8063b88d4fde116100d3578063b88d4fde14610a8d578063bc063e1a14610aad578063bd85958414610ac9578063c87b56dd14610adf57005b8063a22cb465146109ff578063ab84ee6f14610a1f578063b1f2ead614610a3f578063b4dc46d914610a5f57005b80637ea6dd7211610173578063921ca4b111610145578063921ca4b11461098a5780639453b45b146109aa57806395ba0e94146109ca57806395d89b41146109ea57005b80637ea6dd721461094b57806380fdc055146109605780638456cb59146109755780638da5cb5b146104c757005b8063745a41bc116101ac578063745a41bc146108db57806376c7a3c7146108fb57806378ad94731461091657806379ba50971461093657005b80636c8b703f146107f35780636d1dcb911461081357806370a08231146108bb57005b80632f745c59116102b3578063449a52f81161024c5780635c975abb1161021e5780635c975abb146107385780635e5756d5146107505780636352211e1461078657806369fbdb28146107a657005b8063449a52f8146106b15780634f6ccce7146106c457806352768219146106e4578063585956d61461070457005b80633644e515116102855780633644e515146106475780633f4ba83a1461065c57806342842e0e1461067157806342966c681461069157005b80632f745c59146105bc57806330adf81f146105dc57806331b3eb941461061057806332cb6b0c1461063057005b806318160ddd1161032557806324ec7590116102f757806324ec759014610505578063297617e21461051a5780632ad223151461053a5780632b46b3dd1461059c57005b806318160ddd146104925780631a02cc7b146104a75780631d143848146104c757806323b872dd146104e557005b8063081812fc1161035e578063081812fc14610404578063095ea7b31461043c57806313966db51461045c578063141a468c1461047257005b80629a9b7b1461038957806301ffc9a7146103b257806306fdde03146103e257005b3661038757005b005b34801561039557600080fd5b5061039f60135481565b6040519081526020015b60405180910390f35b3480156103be57600080fd5b506103d26103cd3660046150f5565b610cb3565b60405190151581526020016103a9565b3480156103ee57600080fd5b506103f7610cc4565b6040516103a99190615162565b34801561041057600080fd5b5061042461041f366004615175565b610d56565b6040516001600160a01b0390911681526020016103a9565b34801561044857600080fd5b506103876104573660046151a3565b610d7d565b34801561046857600080fd5b5061039f60145481565b34801561047e57600080fd5b5061039f61048d366004615175565b610e97565b34801561049e57600080fd5b50600f5461039f565b3480156104b357600080fd5b506103876104c23660046151cf565b610ed1565b3480156104d357600080fd5b506002546001600160a01b0316610424565b3480156104f157600080fd5b506103876105003660046151f1565b611152565b34801561051157600080fd5b5060015461039f565b34801561052657600080fd5b5061039f610535366004615175565b6111c9565b34801561054657600080fd5b5061057c610555366004615175565b60196020526000908152604090208054600182015460028301546003909301549192909184565b6040805194855260208501939093529183015260608201526080016103a9565b3480156105a857600080fd5b5061039f6105b7366004615175565b6112ce565b3480156105c857600080fd5b5061039f6105d73660046151a3565b6113b4565b3480156105e857600080fd5b5061039f7f49ecf333e5b8c95c40fdafc95c1ad136e8914a8fb55e9dc8bb01eaa83a2df9ad81565b34801561061c57600080fd5b5061038761062b366004615232565b61144a565b34801561063c57600080fd5b5061039f620f424081565b34801561065357600080fd5b5061039f6114ff565b34801561066857600080fd5b5061038761150e565b34801561067d57600080fd5b5061038761068c3660046151f1565b611542565b34801561069d57600080fd5b506103876106ac366004615175565b61155d565b61039f6106bf3660046151a3565b6115b5565b3480156106d057600080fd5b5061039f6106df366004615175565b61197c565b3480156106f057600080fd5b5061039f6106ff366004615175565b611a0f565b34801561071057600080fd5b5061039f7f29795620f29ed5790c945e3f419a1b3e2381aa07751ccffe5b81231639d74cd581565b34801561074457600080fd5b5060125460ff166103d2565b34801561075c57600080fd5b5061039f61076b366004615232565b6001600160a01b031660009081526007602052604090205490565b34801561079257600080fd5b506104246107a1366004615175565b611af4565b3480156107b257600080fd5b5061057c6107c13660046151cf565b601a60209081526000928352604080842090915290825290208054600182015460028301546003909301549192909184565b3480156107ff57600080fd5b506103f761080e366004615175565b611b29565b34801561081f57600080fd5b5061083361082e366004615175565b611bc3565b6040516103a99190815181526020808301519082015260408083015190820152606080830151908201526080808301519082015260a0808301519082015260c0808301519082015260e0808301519082015261010080830151908201526101208083015190820152610140808301519082015261016091820151918101919091526101800190565b3480156108c757600080fd5b5061039f6108d6366004615232565b611cc1565b3480156108e757600080fd5b506103876108f636600461531c565b611d47565b34801561090757600080fd5b5061039f6601902d7bb3800081565b34801561092257600080fd5b5061039f610931366004615175565b611e5b565b34801561094257600080fd5b50610387611f2b565b34801561095757600080fd5b506103f7611ff6565b34801561096c57600080fd5b506103f7612012565b34801561098157600080fd5b5061038761202e565b34801561099657600080fd5b50601554610424906001600160a01b031681565b3480156109b657600080fd5b506103876109c536600461537f565b612060565b3480156109d657600080fd5b506103876109e53660046151cf565b6124a7565b3480156109f657600080fd5b506103f76126b2565b348015610a0b57600080fd5b50610387610a1a366004615449565b6126c1565b348015610a2b57600080fd5b50610387610a3a366004615487565b6126d0565b348015610a4b57600080fd5b50610387610a5a366004615175565b612806565b348015610a6b57600080fd5b50610a7f610a7a366004615175565b612855565b6040516103a99291906154db565b348015610a9957600080fd5b50610387610aa8366004615487565b612981565b348015610ab957600080fd5b5061039f674563918244f4000081565b348015610ad557600080fd5b5061039f61271081565b348015610aeb57600080fd5b506103f7610afa366004615175565b6129ff565b348015610b0b57600080fd5b5061039f610b1a366004615175565b612aa8565b348015610b2b57600080fd5b50610387610b3a366004615175565b612ce5565b348015610b4b57600080fd5b50610387610b5a3660046151cf565b612d2f565b348015610b6b57600080fd5b506103d2610b7a366004615500565b612f31565b348015610b8b57600080fd5b50610387610b9a366004615175565b612f5f565b348015610bab57600080fd5b50610387610bba3660046151cf565b612fdf565b348015610bcb57600080fd5b50610387610bda366004615232565b6131ea565b348015610beb57600080fd5b50610c5a610bfa366004615175565b601860205280600052604060002060009150905080600001549080600101549080600201549080600301549080600401549080600501549080600601549080600701549080600801549080600901549080600a01549080600b015490508c565b604080519c8d5260208d019b909b52998b019890985260608a0196909652608089019490945260a088019290925260c087015260e0860152610100850152610120840152610140830152610160820152610180016103a9565b6000610cbe8261329a565b92915050565b606060088054610cd39061552e565b80601f0160208091040260200160405190810160405280929190818152602001828054610cff9061552e565b8015610d4c5780601f10610d2157610100808354040283529160200191610d4c565b820191906000526020600020905b815481529060010190602001808311610d2f57829003601f168201915b5050505050905090565b6000610d61826132bf565b506000908152600b60205260409020546001600160a01b031690565b6000610d8882611af4565b9050806001600160a01b0316836001600160a01b031603610dfa5760405162461bcd60e51b815260206004820152602160248201527f5652433732353a20617070726f76616c20746f2063757272656e74206f776e656044820152603960f91b60648201526084015b60405180910390fd5b336001600160a01b0382161480610e165750610e168133612f31565b610e885760405162461bcd60e51b815260206004820152603d60248201527f5652433732353a20617070726f76652063616c6c6572206973206e6f7420746f60448201527f6b656e206f776e6572206f7220617070726f76656420666f7220616c6c0000006064820152608401610df1565b610e9283836132e4565b505050565b6000610ea282613352565b610ebe5760405162461bcd60e51b8152600401610df190615562565b5060009081526006602052604090205490565b601560009054906101000a90046001600160a01b03166001600160a01b03166318b5c9546040518163ffffffff1660e01b8152600401602060405180830381865afa158015610f24573d6000803e3d6000fd5b505050506040513d601f19601f82011682018060405250810190610f489190615599565b6001600160a01b0316336001600160a01b031614610f79576040516329e101a960e01b815260040160405180910390fd5b610f8281613352565b610f9e5760405162461bcd60e51b8152600401610df1906155b6565b6000610fa982612aa8565b6000838152601a60209081526040808320848452909152812060030154919250610fd283611e5b565b6000858152601a602090815260408083208784529091528120600301805492935090610ffd836155fa565b9190505550808210801561102d57506000848152601a602090815260408083208684529091529020600301548111155b1561114b5760155460408051636cfe8a9f60e01b8152905183926001600160a01b031691636cfe8a9f9160048083019260209291908290030181865afa15801561107b573d6000803e3d6000fd5b505050506040513d601f19601f8201168201806040525081019061109f9190615599565b6001600160a01b031663ecec50766040518163ffffffff1660e01b8152600401602060405180830381865afa1580156110dc573d6000803e3d6000fd5b505050506040513d601f19601f820116820180604052508101906111009190615613565b61110a919061562c565b6000858152601860205260408120600701805490919061112b908490615643565b9091555083905061113b85612aa8565b111561114b5761114b858561336f565b5050505050565b61115c33826134af565b6111be5760405162461bcd60e51b815260206004820152602d60248201527f5652433732353a2063616c6c6572206973206e6f7420746f6b656e206f776e6560448201526c1c881bdc88185c1c1c9bdd9959609a1b6064820152608401610df1565b610e9283838361350e565b60008082116111ea5760405162461bcd60e51b8152600401610df190615656565b60155460408051636cfe8a9f60e01b815290516000926001600160a01b031691636cfe8a9f9160048083019260209291908290030181865afa158015611234573d6000803e3d6000fd5b505050506040513d601f19601f820116820180604052508101906112589190615599565b905082816001600160a01b0316631ecfc8dc6040518163ffffffff1660e01b8152600401602060405180830381865afa158015611299573d6000803e3d6000fd5b505050506040513d601f19601f820116820180604052508101906112bd9190615613565b6112c79190615643565b9392505050565b60008082116112ef5760405162461bcd60e51b8152600401610df190615656565b60155460408051636cfe8a9f60e01b815290516000926001600160a01b031691636cfe8a9f9160048083019260209291908290030181865afa158015611339573d6000803e3d6000fd5b505050506040513d601f19601f8201168201806040525081019061135d9190615599565b9050600261136c60018561568d565b61137691906156a0565b816001600160a01b0316632ef3a8ae6040518163ffffffff1660e01b8152600401602060405180830381865afa158015611299573d6000803e3d6000fd5b60006113bf83611cc1565b82106114215760405162461bcd60e51b815260206004820152602b60248201527f565243373235456e756d657261626c653a206f776e657220696e646578206f7560448201526a74206f6620626f756e647360a81b6064820152608401610df1565b506001600160a01b03919091166000908152600d60209081526040808320938352929052205490565b6002546001600160a01b031633146114745760405162461bcd60e51b8152600401610df1906156c2565b61147c61369c565b60405147906000906001600160a01b0384169083908381818185875af1925050503d80600081146114c9576040519150601f19603f3d011682016040523d82523d6000602084013e6114ce565b606091505b50509050806114f0576040516369a4751b60e01b815260040160405180910390fd5b50506114fc6001601155565b50565b60006115096136c6565b905090565b6002546001600160a01b031633146115385760405162461bcd60e51b8152600401610df1906156c2565b611540613741565b565b610e9283838360405180602001604052806000815250612981565b6002546001600160a01b031633146115875760405162461bcd60e51b8152600401610df1906156c2565b61159081613352565b6115ac5760405162461bcd60e51b8152600401610df1906155b6565b6114fc81613793565b60006115bf613835565b6115c761369c565b6002546001600160a01b031633146115fb5760145434146115fb57604051634310671360e01b815260040160405180910390fd5b601354620f424081111561162257604051638a164f6360e01b815260040160405180910390fd5b61162c8482613859565b826000036117a65760405180604001604052806040518060600160405280602b8152602001615c9c602b9139815260408051808201825260068152652bb7b935b2b960d11b60208281019190915292830152600084815260179092529020815181906116989082615741565b50602082015160018201906116ad9082615741565b5090505060405180610180016040528060648152602001600a8152602001600181526020016001815260200160018152602001601481526020016064815260200160008152602001600181526020016000815260200160008152602001600081525060186000838152602001908152602001600020600082015181600001556020820151816001015560408201518160020155606082015181600301556080820151816004015560a0820151816005015560c0820151816006015560e082015181600701556101008201518160080155610120820151816009015561014082015181600a015561016082015181600b0155905050611938565b8260010361191f5760405180604001604052806040518060600160405280602b8152602001615c31602b91398152604080518082018252600581526428bab2b2b760d91b60208281019190915292830152600084815260179092529020815181906118119082615741565b50602082015160018201906118269082615741565b5090505060405180610180016040528060c8815260200160148152602001600281526020016002815260200160028152602001601981526020016078815260200160008152602001600181526020016000815260200160008152602001600081525060186000838152602001908152602001600020600082015181600001556020820151816001015560408201518160020155606082015181600301556080820151816004015560a0820151816005015560c0820151816006015560e082015181600701556101008201518160080155610120820151816009015561014082015181600a015561016082015181600b0155905050611938565b604051635a4c8e5160e11b815260040160405180910390fd5b61194181613873565b60008281526016602052604090209061195a9082615741565b506013805490600061196b836155fa565b909155505060016011559050610cbe565b6000611987600f5490565b82106119ea5760405162461bcd60e51b815260206004820152602c60248201527f565243373235456e756d657261626c653a20676c6f62616c20696e646578206f60448201526b7574206f6620626f756e647360a01b6064820152608401610df1565b600f82815481106119fd576119fd615801565b90600052602060002001549050919050565b6000808211611a305760405162461bcd60e51b8152600401610df190615656565b60155460408051636cfe8a9f60e01b815290516000926001600160a01b031691636cfe8a9f9160048083019260209291908290030181865afa158015611a7a573d6000803e3d6000fd5b505050506040513d601f19601f82011682018060405250810190611a9e9190615599565b9050611aab60018461568d565b611ab690600261562c565b816001600160a01b03166310a2028a6040518163ffffffff1660e01b8152600401602060405180830381865afa158015611299573d6000803e3d6000fd5b6000818152600a60205260408120546001600160a01b031680610cbe5760405162461bcd60e51b8152600401610df190615562565b60166020526000908152604090208054611b429061552e565b80601f0160208091040260200160405190810160405280929190818152602001828054611b6e9061552e565b8015611bbb5780601f10611b9057610100808354040283529160200191611bbb565b820191906000526020600020905b815481529060010190602001808311611b9e57829003601f168201915b505050505081565b611c276040518061018001604052806000815260200160008152602001600081526020016000815260200160008152602001600081526020016000815260200160008152602001600081526020016000815260200160008152602001600081525090565b50600090815260186020908152604091829020825161018081018452815481526001820154928101929092526002810154928201929092526003820154606082015260048201546080820152600582015460a0820152600682015460c0820152600782015460e082015260088201546101008201526009820154610120820152600a820154610140820152600b9091015461016082015290565b60006001600160a01b038216611d2b5760405162461bcd60e51b815260206004820152602960248201527f5652433732353a2061646472657373207a65726f206973206e6f7420612076616044820152683634b21037bbb732b960b91b6064820152608401610df1565b506001600160a01b031660009081526020819052604090205490565b42821015611d975760405162461bcd60e51b815260206004820152601f60248201527f5652433732353a205065726d697420646561646c696e652065787069726564006044820152606401610df1565b600083815260066020526040812054611db4908690869086613b60565b90506000611dc28284613bdf565b50909150506001600160a01b03811615801590611de45750611de481866134af565b80611dfd5750611dfd611df686611af4565b8385613c2c565b611e495760405162461bcd60e51b815260206004820181905260248201527f5652433732353a20496e76616c6964207065726d6974207369676e61747572656044820152606401610df1565b611e5386866132e4565b505050505050565b6000808211611e7c5760405162461bcd60e51b8152600401610df190615656565b60155460408051636cfe8a9f60e01b815290516000926001600160a01b031691636cfe8a9f9160048083019260209291908290030181865afa158015611ec6573d6000803e3d6000fd5b505050506040513d601f19601f82011682018060405250810190611eea9190615599565b905082816001600160a01b031663908cf6ec6040518163ffffffff1660e01b8152600401602060405180830381865afa158015611299573d6000803e3d6000fd5b6003546001600160a01b03163314611f995760405162461bcd60e51b815260206004820152602b60248201527f5652433732353a206f6e6c79206e6577206f776e65722063616e20616363657060448201526a074206f776e6572736869760ac1b6064820152608401610df1565b60028054600380546001600160a01b03198084166001600160a01b038381169182179096559116909155604051929091169182907f8be0079c531659141344cd1fd0a4f28419497f9722a3daafe3b4186f6b6457e090600090a350565b6040518060600160405280602b8152602001615c9c602b913981565b6040518060600160405280602b8152602001615c31602b913981565b6002546001600160a01b031633146120585760405162461bcd60e51b8152600401610df1906156c2565b611540613c8e565b601560009054906101000a90046001600160a01b03166001600160a01b03166318b5c9546040518163ffffffff1660e01b8152600401602060405180830381865afa1580156120b3573d6000803e3d6000fd5b505050506040513d601f19601f820116820180604052508101906120d79190615599565b6001600160a01b0316336001600160a01b031614612108576040516329e101a960e01b815260040160405180910390fd5b61211182613352565b61212d5760405162461bcd60e51b8152600401610df1906155b6565b3361213783611af4565b6001600160a01b0316146121795760405162461bcd60e51b81526020600482015260096024820152682737ba1037bbb732b960b91b6044820152606401610df1565b600082815260186020908152604091829020825161018081018452815481526001820154928101929092526002810154928201929092526003820154606082015260048201546080820152600582015460a0820152600682015460c0820152600782015460e082015260088201546101008083018290526009840154610120840152600a840154610140840152600b909301546101608301529183015190911461225b5760405162461bcd60e51b8152602060048201526013602482015272496e76616c6964206c6576656c2076616c756560681b6044820152606401610df1565b60008381526018602090815260409182902084518155908401516001820155908301516002820155606083015160038201556080830151600482015560a0830151600582015560c0830151600682015560e0808401516007830181905561010085015160088401556101208501516009840155610140850151600a840155610160850151600b9093019290925582015110156123165760006122fc84612aa8565b90508161010001518111156123145761231484613ccb565b505b6015546040805163062d725560e21b815290516000926001600160a01b0316916318b5c9549160048083019260209291908290030181865afa158015612360573d6000803e3d6000fd5b505050506040513d601f19601f820116820180604052508101906123849190615599565b6060830151600086815260186020526040902060030154919250101561240657604051633e16b53160e21b815260048101869052602481018590526001600160a01b0382169063f85ad4c490604401600060405180830381600087803b1580156123ed57600080fd5b505af1158015612401573d6000803e3d6000fd5b505050505b60a0820151600085815260186020526040902060050154111561248557604051634ff3609b60e11b815260048101869052602481018590526001600160a01b03821690639fe6c13690604401600060405180830381600087803b15801561246c57600080fd5b505af1158015612480573d6000803e3d6000fd5b505050505b61248e84613873565b600085815260166020526040902090611e539082615741565b601560009054906101000a90046001600160a01b03166001600160a01b03166318b5c9546040518163ffffffff1660e01b8152600401602060405180830381865afa1580156124fa573d6000803e3d6000fd5b505050506040513d601f19601f8201168201806040525081019061251e9190615599565b6001600160a01b0316336001600160a01b03161461254f576040516329e101a960e01b815260040160405180910390fd5b61255881613352565b6125745760405162461bcd60e51b8152600401610df1906155b6565b600061257f82612aa8565b6000838152601a602090815260408083208484529091528120600101549192506125a8836111c9565b6000858152601a6020908152604080832087845290915281206001018054929350906125d3836155fa565b9190505550808210801561260357506000848152601a602090815260408083208684529091529020600101548111155b1561114b5760155460408051636cfe8a9f60e01b8152905183926001600160a01b031691636cfe8a9f9160048083019260209291908290030181865afa158015612651573d6000803e3d6000fd5b505050506040513d601f19601f820116820180604052508101906126759190615599565b6001600160a01b031663c8a933366040518163ffffffff1660e01b8152600401602060405180830381865afa1580156110dc573d6000803e3d6000fd5b606060098054610cd39061552e565b6126cc33838361414b565b5050565b428210156127205760405162461bcd60e51b815260206004820152601f60248201527f5652433732353a205065726d697420646561646c696e652065787069726564006044820152606401610df1565b6001600160a01b03841660009081526007602052604081205461274590859085614219565b905060006127538284613bdf565b50509050856001600160a01b0316816001600160a01b0316148061277d575061277d868385613c2c565b6127c95760405162461bcd60e51b815260206004820181905260248201527f5652433732353a20496e76616c6964207065726d6974207369676e61747572656044820152606401610df1565b6127d58686600161414b565b6001600160a01b03861660009081526007602052604081208054916127f9836155fa565b9190505550505050505050565b61280f81613352565b61282b5760405162461bcd60e51b8152600401610df1906155b6565b60008181526018602052604081209061284383614271565b90508015610e92576001919091015550565b6017602052600090815260409020805481906128709061552e565b80601f016020809104026020016040519081016040528092919081815260200182805461289c9061552e565b80156128e95780601f106128be576101008083540402835291602001916128e9565b820191906000526020600020905b8154815290600101906020018083116128cc57829003601f168201915b5050505050908060010180546128fe9061552e565b80601f016020809104026020016040519081016040528092919081815260200182805461292a9061552e565b80156129775780601f1061294c57610100808354040283529160200191612977565b820191906000526020600020905b81548152906001019060200180831161295a57829003601f168201915b5050505050905082565b61298b33836134af565b6129ed5760405162461bcd60e51b815260206004820152602d60248201527f4552433732313a2063616c6c6572206973206e6f7420746f6b656e206f776e6560448201526c1c881bdc88185c1c1c9bdd9959609a1b6064820152608401610df1565b6129f984848484614399565b50505050565b6060612a0a826132bf565b60008281526016602052604090208054612a239061552e565b80601f0160208091040260200160405190810160405280929190818152602001828054612a4f9061552e565b8015612a9c5780601f10612a7157610100808354040283529160200191612a9c565b820191906000526020600020905b815481529060010190602001808311612a7f57829003601f168201915b50505050509050919050565b600080601560009054906101000a90046001600160a01b03166001600160a01b0316636cfe8a9f6040518163ffffffff1660e01b8152600401602060405180830381865afa158015612afe573d6000803e3d6000fd5b505050506040513d601f19601f82011682018060405250810190612b229190615599565b90506000816001600160a01b031663b308b1036040518163ffffffff1660e01b8152600401602060405180830381865afa158015612b64573d6000803e3d6000fd5b505050506040513d601f19601f82011682018060405250810190612b889190615613565b905060008111612bf55760405162461bcd60e51b815260206004820152603260248201527f446966666572656e6365206265747765656e206c6576656c206d7573742062656044820152712067726561746572207468616e207a65726f60701b6064820152608401610df1565b6000848152601860209081526040808320815161018081018352815481526001820154938101939093526002810154918301919091526003810154606083015260048101546080830152600581015460a0830152600681015460c0830152600781015460e083018190526008808301546101008501526009830154610120850152600a830154610140850152600b909201546101608401529192918491612c9c919061562c565b612ca691906156a0565b612cb1906001615643565b90506000612cbe826143cc565b905060006002612ccf836001615643565b612cd991906156a0565b98975050505050505050565b612cee81613352565b612d0a5760405162461bcd60e51b8152600401610df1906155b6565b600081815260186020526040812090612d2283614446565b90508015610e9257905550565b601560009054906101000a90046001600160a01b03166001600160a01b03166318b5c9546040518163ffffffff1660e01b8152600401602060405180830381865afa158015612d82573d6000803e3d6000fd5b505050506040513d601f19601f82011682018060405250810190612da69190615599565b6001600160a01b0316336001600160a01b031614612dd7576040516329e101a960e01b815260040160405180910390fd5b612de081613352565b612dfc5760405162461bcd60e51b8152600401610df1906155b6565b6000612e0782612aa8565b6000838152601a60209081526040808320848452909152812054919250612e2d83611a0f565b6000858152601a602090815260408083208784529091528120805492935090612e55836155fa565b91905055508082108015612e8257506000848152601a602090815260408083208684529091529020548111155b1561114b5760155460408051636cfe8a9f60e01b8152905183926001600160a01b031691636cfe8a9f9160048083019260209291908290030181865afa158015612ed0573d6000803e3d6000fd5b505050506040513d601f19601f82011682018060405250810190612ef49190615599565b6001600160a01b031663166ce7456040518163ffffffff1660e01b8152600401602060405180830381865afa1580156110dc573d6000803e3d6000fd5b6001600160a01b039182166000908152600c6020908152604080832093909416825291909152205460ff1690565b6002546001600160a01b03163314612f895760405162461bcd60e51b8152600401610df1906156c2565b6601902d7bb38000811015612fb15760405163207226af60e01b815260040160405180910390fd5b674563918244f40000811115612fda5760405163872b286360e01b815260040160405180910390fd5b601455565b601560009054906101000a90046001600160a01b03166001600160a01b03166318b5c9546040518163ffffffff1660e01b8152600401602060405180830381865afa158015613032573d6000803e3d6000fd5b505050506040513d601f19601f820116820180604052508101906130569190615599565b6001600160a01b0316336001600160a01b031614613087576040516329e101a960e01b815260040160405180910390fd5b61309081613352565b6130ac5760405162461bcd60e51b8152600401610df1906155b6565b60006130b782612aa8565b6000838152601a602090815260408083208484529091528120600201549192506130e0836112ce565b6000858152601a60209081526040808320878452909152812060020180549293509061310b836155fa565b9190505550808210801561313b57506000848152601a602090815260408083208684529091529020600201548111155b1561114b5760155460408051636cfe8a9f60e01b8152905183926001600160a01b031691636cfe8a9f9160048083019260209291908290030181865afa158015613189573d6000803e3d6000fd5b505050506040513d601f19601f820116820180604052508101906131ad9190615599565b6001600160a01b03166337a11a636040518163ffffffff1660e01b8152600401602060405180830381865afa1580156110dc573d6000803e3d6000fd5b6002546001600160a01b031633146132145760405162461bcd60e51b8152600401610df1906156c2565b6001600160a01b0381166132785760405162461bcd60e51b815260206004820152602560248201527f5652433732353a206e6577206f776e657220697320746865207a65726f206164604482015264647265737360d81b6064820152608401610df1565b600380546001600160a01b0319166001600160a01b0392909216919091179055565b60006001600160e01b0319821663780e9d6360e01b1480610cbe5750610cbe8261456b565b6132c881613352565b6114fc5760405162461bcd60e51b8152600401610df190615562565b6000818152600b6020526040902080546001600160a01b0319166001600160a01b038416908117909155819061331982611af4565b6001600160a01b03167f8c5be1e5ebec7d5bd14f71427d1e84f3dd0314c0f7b2291e5b200ac8c7c3b92560405160405180910390a45050565b6000908152600a60205260409020546001600160a01b0316151590565b6015546040805163062d725560e21b815290516000926001600160a01b0316916318b5c9549160048083019260209291908290030181865afa1580156133b9573d6000803e3d6000fd5b505050506040513d601f19601f820116820180604052508101906133dd9190615599565b90506133e882613ccb565b604051633e16b53160e21b815260048101849052602481018390526001600160a01b0382169063f85ad4c490604401600060405180830381600087803b15801561343157600080fd5b505af1158015613445573d6000803e3d6000fd5b5050604051634ff3609b60e11b815260048101869052602481018590526001600160a01b0384169250639fe6c1369150604401600060405180830381600087803b15801561349257600080fd5b505af11580156134a6573d6000803e3d6000fd5b50505050505050565b6000806134bb83611af4565b9050806001600160a01b0316846001600160a01b031614806134e257506134e28185612f31565b806135065750836001600160a01b03166134fb84610d56565b6001600160a01b0316145b949350505050565b826001600160a01b031661352182611af4565b6001600160a01b0316146135475760405162461bcd60e51b8152600401610df190615817565b6001600160a01b0382166135a95760405162461bcd60e51b8152602060048201526024808201527f5652433732353a207472616e7366657220746f20746865207a65726f206164646044820152637265737360e01b6064820152608401610df1565b6135b683838360016145f1565b826001600160a01b03166135c982611af4565b6001600160a01b0316146135ef5760405162461bcd60e51b8152600401610df190615817565b6000818152600b6020908152604080832080546001600160a01b03199081169091556001600160a01b0387811685528484528285208054600019019055861680855282852080546001019055858552600a90935292208054909216179055613656816145fd565b80826001600160a01b0316846001600160a01b03167fddf252ad1be2c89b69c2b068fc378daa952ba7f163c4a11628f55a4df523b3ef60405160405180910390a4505050565b6002601154036136bf57604051633ee5aeb560e01b815260040160405180910390fd5b6002601155565b60006115097f8b73c3c69bb8fe3d512ecc4cf759cc79239f7b179b0ffacaa9a75d522b39400f6136f560045490565b6005546040805160208101859052908101839052606081018290524660808201523060a082015260009060c0016040516020818303038152906040528051906020012090509392505050565b61374961461f565b6012805460ff191690557f5db9ee0a495bf2e6ff9c91a7834c1ba4fdd244a5e8aa4e537bd38aeae4b073aa335b6040516001600160a01b03909116815260200160405180910390a1565b600061379e82611af4565b90506137ae8160008460016145f1565b6137b782611af4565b6000838152600b6020908152604080832080546001600160a01b03199081169091556001600160a01b0385168085528484528285208054600019019055878552600a909352818420805490911690555192935084927fddf252ad1be2c89b69c2b068fc378daa952ba7f163c4a11628f55a4df523b3ef908390a45050565b60125460ff16156115405760405163d93c066560e01b815260040160405180910390fd5b6126cc828260405180602001604052806000815250614642565b60606000601760008481526020019081526020016000206040518060400160405290816000820180546138a59061552e565b80601f01602080910402602001604051908101604052809291908181526020018280546138d19061552e565b801561391e5780601f106138f35761010080835404028352916020019161391e565b820191906000526020600020905b81548152906001019060200180831161390157829003601f168201915b505050505081526020016001820180546139379061552e565b80601f01602080910402602001604051908101604052809291908181526020018280546139639061552e565b80156139b05780601f10613985576101008083540402835291602001916139b0565b820191906000526020600020905b81548152906001019060200180831161399357829003601f168201915b505050919092525050506000848152601860209081526040808320815161018081018352815481526001820154938101939093526002810154918301919091526003810154606083015260048101546080830152600581015460a0830152600681015460c0830152600781015460e083015260088101546101008301526009810154610120830152600a810154610140830152600b0154610160820152919250613a5985614675565b835160208501518451613a6b90614675565b613a788660200151614675565b604051602001613a8c959493929190615878565b604051602081830303815290604052613aa88360400151614675565b613ab58460600151614675565b613ac28560800151614675565b613acf8660a00151614675565b613adc8760c00151614675565b613aea886101000151614675565b604051602001613aff9695949392919061598d565b60408051601f1981840301815290829052613b1d9291602001615ab9565b6040516020818303038152906040529050613b3781614708565b604051602001613b479190615ae8565b6040516020818303038152906040529350505050919050565b604080517f49ecf333e5b8c95c40fdafc95c1ad136e8914a8fb55e9dc8bb01eaa83a2df9ad60208201526001600160a01b03861691810191909152606081018490526080810183905260a08101829052600090613bd69060c0015b60405160208183030381529060405280519060200120614868565b95945050505050565b60008060008351604103613c195760208401516040850151606086015160001a613c0b88828585614895565b955095509550505050613c25565b50508151600091506002905b9250925092565b6000806000613c3b8585613bdf565b5090925090506000816003811115613c5557613c55615b2d565b148015613c735750856001600160a01b0316826001600160a01b0316145b80613c845750613c84868686614964565b9695505050505050565b613c96613835565b6012805460ff191660011790557f62e78cea01bee320cd4e420270b5ea74000d11b0c9f74754ebdbfc544b05a2586137763390565b60008181526018602090815260408083206015548251636cfe8a9f60e01b815292519194936001600160a01b0390911692636cfe8a9f92600480830193928290030181865afa158015613d22573d6000803e3d6000fd5b505050506040513d601f19601f82011682018060405250810190613d469190615599565b9050613d5183612aa8565b8260080181905550806001600160a01b0316632694f2a56040518163ffffffff1660e01b8152600401602060405180830381865afa158015613d97573d6000803e3d6000fd5b505050506040513d601f19601f82011682018060405250810190613dbb9190615613565b826002016000828254613dce9190615643565b92505081905550806001600160a01b031663f28508b66040518163ffffffff1660e01b8152600401602060405180830381865afa158015613e13573d6000803e3d6000fd5b505050506040513d601f19601f82011682018060405250810190613e379190615613565b826003016000828254613e4a9190615643565b92505081905550806001600160a01b031663aa2018b96040518163ffffffff1660e01b8152600401602060405180830381865afa158015613e8f573d6000803e3d6000fd5b505050506040513d601f19601f82011682018060405250810190613eb39190615613565b826004016000828254613ec69190615643565b92505081905550806001600160a01b03166304dbe8736040518163ffffffff1660e01b8152600401602060405180830381865afa158015613f0b573d6000803e3d6000fd5b505050506040513d601f19601f82011682018060405250810190613f2f9190615613565b826000016000828254613f429190615643565b92505081905550806001600160a01b031663a37acd076040518163ffffffff1660e01b8152600401602060405180830381865afa158015613f87573d6000803e3d6000fd5b505050506040513d601f19601f82011682018060405250810190613fab9190615613565b826001016000828254613fbe9190615643565b92505081905550806001600160a01b03166352539b796040518163ffffffff1660e01b8152600401602060405180830381865afa158015614003573d6000803e3d6000fd5b505050506040513d601f19601f820116820180604052508101906140279190615613565b82600601600082825461403a9190615643565b925050819055508160060154816001600160a01b031663f65ebdf86040518163ffffffff1660e01b8152600401602060405180830381865afa158015614084573d6000803e3d6000fd5b505050506040513d601f19601f820116820180604052508101906140a89190615613565b83600501546140b79190615643565b11156140cc5760068201546005830155505050565b806001600160a01b031663f65ebdf86040518163ffffffff1660e01b8152600401602060405180830381865afa15801561410a573d6000803e3d6000fd5b505050506040513d601f19601f8201168201806040525081019061412e9190615613565b8260050160008282546141419190615643565b9091555050505050565b816001600160a01b0316836001600160a01b0316036141ac5760405162461bcd60e51b815260206004820152601960248201527f5652433732353a20617070726f766520746f2063616c6c6572000000000000006044820152606401610df1565b6001600160a01b038381166000818152600c6020908152604080832094871680845294825291829020805460ff191686151590811790915591519182527f17307eab39ab6107e8899845ad3d59bd9653f200f220920489ca2b5937696c31910160405180910390a3505050565b604080517f29795620f29ed5790c945e3f419a1b3e2381aa07751ccffe5b81231639d74cd560208201526001600160a01b0385169181019190915260608101839052608081018290526000906135069060a001613bbb565b600080601560009054906101000a90046001600160a01b03166001600160a01b0316636cfe8a9f6040518163ffffffff1660e01b8152600401602060405180830381865afa1580156142c7573d6000803e3d6000fd5b505050506040513d601f19601f820116820180604052508101906142eb9190615599565b60008481526019602052604081206003015491925061430a824261568d565b9050826001600160a01b0316633d6e3e656040518163ffffffff1660e01b8152600401602060405180830381865afa15801561434a573d6000803e3d6000fd5b505050506040513d601f19601f8201168201806040525081019061436e9190615613565b81101561438057506000949350505050565b5050506000918252506019602052604090206001015490565b6143a484848461350e565b6143b084848484614a3f565b6129f95760405162461bcd60e51b8152600401610df190615b43565b6000816000036143de57506000919050565b600382116143ee57506001919050565b600060026143fd846001615643565b61440791906156a0565b90508291505b818110156144405790508060028161442581866156a0565b61442f9190615643565b61443991906156a0565b905061440d565b50919050565b600080601560009054906101000a90046001600160a01b03166001600160a01b0316636cfe8a9f6040518163ffffffff1660e01b8152600401602060405180830381865afa15801561449c573d6000803e3d6000fd5b505050506040513d601f19601f820116820180604052508101906144c09190615599565b6000848152601960205260408120600201549192506144df824261568d565b9050826001600160a01b0316632aa26b3c6040518163ffffffff1660e01b8152600401602060405180830381865afa15801561451f573d6000803e3d6000fd5b505050506040513d601f19601f820116820180604052508101906145439190615613565b81101561455557506000949350505050565b5050506000918252506019602052604090205490565b60006001600160e01b031982166380ac58cd60e01b148061459c57506001600160e01b03198216635b5e139f60e01b145b806145b757506001600160e01b03198216635604e22560e01b145b806145d257506001600160e01b03198216637ae9dc5d60e11b145b80610cbe57506301ffc9a760e01b6001600160e01b0319831614610cbe565b6129f984848484614b3d565b6000818152600660205260408120805491614617836155fa565b919050555050565b60125460ff1661154057604051638dfc202b60e01b815260040160405180910390fd5b61464c8383614c76565b6146596000848484614a3f565b610e925760405162461bcd60e51b8152600401610df190615b43565b6060600061468283614def565b600101905060008167ffffffffffffffff8111156146a2576146a261524f565b6040519080825280601f01601f1916602001820160405280156146cc576020820181803683370190505b5090508181016020015b600019016f181899199a1a9b1b9c1cb0b131b232b360811b600a86061a8153600a85049450846146d657509392505050565b6060815160000361472757505060408051602081019091526000815290565b6000604051806060016040528060408152602001615c5c60409139905060006003845160026147569190615643565b61476091906156a0565b61476b90600461562c565b67ffffffffffffffff8111156147835761478361524f565b6040519080825280601f01601f1916602001820160405280156147ad576020820181803683370190505b50905060018201602082018586518701602081018051600082525b82841015614823576003840193508351603f8160121c168701518653600186019550603f81600c1c168701518653600186019550603f8160061c168701518653600186019550603f81168701518653506001850194506147c8565b905250508551600390066001811461484257600281146148555761485d565b603d6001830353603d600283035361485d565b603d60018303535b509195945050505050565b6000610cbe6148756136c6565b8360405161190160f01b8152600281019290925260228201526042902090565b600080807f7fffffffffffffffffffffffffffffff5d576e7357a4501ddfe92f46681b20a08411156148d0575060009150600390508261495a565b604080516000808252602082018084528a905260ff891692820192909252606081018790526080810186905260019060a0016020604051602081039080840390855afa158015614924573d6000803e3d6000fd5b5050604051601f1901519150506001600160a01b0381166149505750600092506001915082905061495a565b9250600091508190505b9450945094915050565b6000806000856001600160a01b03168585604051602401614986929190615b95565b60408051601f198184030181529181526020820180516001600160e01b0316630b135d3f60e11b179052516149bb9190615bae565b600060405180830381855afa9150503d80600081146149f6576040519150601f19603f3d011682016040523d82523d6000602084013e6149fb565b606091505b5091509150818015614a0f57506020815110155b8015613c8457508051630b135d3f60e11b90614a349083016020908101908401615613565b149695505050505050565b60006001600160a01b0384163b15614b3557604051630a85bd0160e11b81526001600160a01b0385169063150b7a0290614a83903390899088908890600401615bca565b6020604051808303816000875af1925050508015614abe575060408051601f3d908101601f19168201909252614abb91810190615bfd565b60015b614b1b573d808015614aec576040519150601f19603f3d011682016040523d82523d6000602084013e614af1565b606091505b508051600003614b135760405162461bcd60e51b8152600401610df190615b43565b805181602001fd5b6001600160e01b031916630a85bd0160e11b149050613506565b506001613506565b614b4984848484614ec7565b6001811115614bb85760405162461bcd60e51b815260206004820152603560248201527f565243373235456e756d657261626c653a20636f6e7365637574697665207472604482015274185b9cd9995c9cc81b9bdd081cdd5c1c1bdc9d1959605a1b6064820152608401610df1565b816001600160a01b038516614c1457614c0f81600f80546000838152601060205260408120829055600182018355919091527f8d1108e10bcb7c27dddfc02ed9d693a074039d026cf4ea4240b40f7d581ac8020155565b614c37565b836001600160a01b0316856001600160a01b031614614c3757614c378582614f4f565b6001600160a01b038416614c5357614c4e81614fec565b61114b565b846001600160a01b0316846001600160a01b03161461114b5761114b848261509b565b6001600160a01b038216614ccc5760405162461bcd60e51b815260206004820181905260248201527f4552433732313a206d696e7420746f20746865207a65726f20616464726573736044820152606401610df1565b614cd581613352565b15614d225760405162461bcd60e51b815260206004820152601c60248201527f4552433732313a20746f6b656e20616c7265616479206d696e746564000000006044820152606401610df1565b614d306000838360016145f1565b614d3981613352565b15614d865760405162461bcd60e51b815260206004820152601c60248201527f4552433732313a20746f6b656e20616c7265616479206d696e746564000000006044820152606401610df1565b6001600160a01b03821660008181526020818152604080832080546001019055848352600a90915280822080546001600160a01b0319168417905551839291907fddf252ad1be2c89b69c2b068fc378daa952ba7f163c4a11628f55a4df523b3ef908290a45050565b60008072184f03e93ff9f4daa797ed6e38ed64bf6a1f0160401b8310614e2e5772184f03e93ff9f4daa797ed6e38ed64bf6a1f0160401b830492506040015b6d04ee2d6d415b85acef81000000008310614e5a576d04ee2d6d415b85acef8100000000830492506020015b662386f26fc100008310614e7857662386f26fc10000830492506010015b6305f5e1008310614e90576305f5e100830492506008015b6127108310614ea457612710830492506004015b60648310614eb6576064830492506002015b600a8310610cbe5760010192915050565b60018111156129f9576001600160a01b03841615614f0d576001600160a01b03841660009081526020819052604081208054839290614f0790849061568d565b90915550505b6001600160a01b038316156129f9576001600160a01b03831660009081526020819052604081208054839290614f44908490615643565b909155505050505050565b60006001614f5c84611cc1565b614f66919061568d565b6000838152600e6020526040902054909150808214614fb9576001600160a01b0384166000908152600d602090815260408083208584528252808320548484528184208190558352600e90915290208190555b506000918252600e602090815260408084208490556001600160a01b039094168352600d81528383209183525290812055565b600f54600090614ffe9060019061568d565b600083815260106020526040812054600f805493945090928490811061502657615026615801565b9060005260206000200154905080600f838154811061504757615047615801565b600091825260208083209091019290925582815260109091526040808220849055858252812055600f80548061507f5761507f615c1a565b6001900381819060005260206000200160009055905550505050565b60006150a683611cc1565b6001600160a01b039093166000908152600d602090815260408083208684528252808320859055938252600e9052919091209190915550565b6001600160e01b0319811681146114fc57600080fd5b60006020828403121561510757600080fd5b81356112c7816150df565b60005b8381101561512d578181015183820152602001615115565b50506000910152565b6000815180845261514e816020860160208601615112565b601f01601f19169290920160200192915050565b6020815260006112c76020830184615136565b60006020828403121561518757600080fd5b5035919050565b6001600160a01b03811681146114fc57600080fd5b600080604083850312156151b657600080fd5b82356151c18161518e565b946020939093013593505050565b600080604083850312156151e257600080fd5b50508035926020909101359150565b60008060006060848603121561520657600080fd5b83356152118161518e565b925060208401356152218161518e565b929592945050506040919091013590565b60006020828403121561524457600080fd5b81356112c78161518e565b634e487b7160e01b600052604160045260246000fd5b604051610180810167ffffffffffffffff811182821017156152895761528961524f565b60405290565b600082601f8301126152a057600080fd5b813567ffffffffffffffff808211156152bb576152bb61524f565b604051601f8301601f19908116603f011681019082821181831017156152e3576152e361524f565b816040528381528660208588010111156152fc57600080fd5b836020870160208301376000602085830101528094505050505092915050565b6000806000806080858703121561533257600080fd5b843561533d8161518e565b93506020850135925060408501359150606085013567ffffffffffffffff81111561536757600080fd5b6153738782880161528f565b91505092959194509250565b60008060008385036101c081121561539657600080fd5b843593506020850135925061018080603f19830112156153b557600080fd5b6153bd615265565b915060408601358252606086013560208301526080860135604083015260a0860135606083015260c0860135608083015260e086013560a08301526101008087013560c08401526101208088013560e0850152610140808901358386015261016092508289013582860152838901358186015250506101a0870135818401525050809150509250925092565b6000806040838503121561545c57600080fd5b82356154678161518e565b91506020830135801515811461547c57600080fd5b809150509250929050565b6000806000806080858703121561549d57600080fd5b84356154a88161518e565b935060208501356154b88161518e565b925060408501359150606085013567ffffffffffffffff81111561536757600080fd5b6040815260006154ee6040830185615136565b8281036020840152613bd68185615136565b6000806040838503121561551357600080fd5b823561551e8161518e565b9150602083013561547c8161518e565b600181811c9082168061554257607f821691505b60208210810361444057634e487b7160e01b600052602260045260246000fd5b60208082526018908201527f5652433732353a20696e76616c696420746f6b656e2049440000000000000000604082015260600190565b6000602082840312156155ab57600080fd5b81516112c78161518e565b602080825260149082015273151bdad95b88191bd95cc81b9bdd08195e1a5cdd60621b604082015260600190565b634e487b7160e01b600052601160045260246000fd5b60006001820161560c5761560c6155e4565b5060010190565b60006020828403121561562557600080fd5b5051919050565b8082028115828204841417610cbe57610cbe6155e4565b80820180821115610cbe57610cbe6155e4565b6020808252601f908201527f4c6576656c206d7573742062652067726561746572207468616e207a65726f00604082015260600190565b81810381811115610cbe57610cbe6155e4565b6000826156bd57634e487b7160e01b600052601260045260246000fd5b500490565b6020808252601f908201527f5652433732353a2063616c6c6572206973206e6f7420746865206f776e657200604082015260600190565b601f821115610e92576000816000526020600020601f850160051c810160208610156157225750805b601f850160051c820191505b81811015611e535782815560010161572e565b815167ffffffffffffffff81111561575b5761575b61524f565b61576f81615769845461552e565b846156f9565b602080601f8311600181146157a4576000841561578c5750858301515b600019600386901b1c1916600185901b178555611e53565b600085815260208120601f198616915b828110156157d3578886015182559484019460019091019084016157b4565b50858210156157f15787850151600019600388901b60f8161c191681555b5050505050600190811b01905550565b634e487b7160e01b600052603260045260246000fd5b60208082526025908201527f5652433732353a207472616e736665722066726f6d20696e636f72726563742060408201526437bbb732b960d91b606082015260800190565b6000815161586e818560208601615112565b9290920192915050565b607b60f81b81526d226e616d65223a2022426565202360901b600182015285516000906158ac81600f850160208b01615112565b61088b60f21b600f918401918201527f226465736372697074696f6e223a202242757a7a6b696c6c204e4654222c00006011820152691134b6b0b3b2911d101160b11b602f8201528651615907816039840160208b01615112565b601160f91b6039929091019182015268113a3cb832911d101160b91b603a820152612cd96159466159876159708261596a61595382604389018e61585c565b601160f91b815260010190565b6a1132b732b933bc911d101160a91b8152600b0190565b8a61585c565b6a113432b0b63a34111d101160a91b8152600b0190565b8661585c565b6a1130ba3a30b1b5911d101160a91b815286516000906159b481600b850160208c01615112565b601160f91b600b9184019182018190526b113232b332b739b2911d101160a11b600c83015288516159ec816018850160208d01615112565b601892019182018190526a113337b930b3b2911d101160a91b60198301528751615a1d816024850160208c01615112565b6024920191820152615aac615a9f615987615a8961594661596a615a6982615a6360258a0174113130b9b2a83937b23ab1ba34bb34ba3c911d101160591b815260150190565b8e61585c565b731136b0bc283937b23ab1ba34bb34ba3c911d101160611b815260140190565b69113632bb32b6111d101160b11b8152600a0190565b607d60f81b815260010190565b9998505050505050505050565b60008351615acb818460208801615112565b835190830190615adf818360208801615112565b01949350505050565b7f646174613a6170706c69636174696f6e2f6a736f6e3b6261736536342c000000815260008251615b2081601d850160208701615112565b91909101601d0192915050565b634e487b7160e01b600052602160045260246000fd5b60208082526032908201527f4552433732313a207472616e7366657220746f206e6f6e20455243373231526560408201527131b2b4bb32b91034b6b83632b6b2b73a32b960711b606082015260800190565b8281526040602082015260006135066040830184615136565b60008251615bc0818460208701615112565b9190910192915050565b6001600160a01b0385811682528416602082015260408101839052608060608201819052600090613c8490830184615136565b600060208284031215615c0f57600080fd5b81516112c7816150df565b634e487b7160e01b600052603160045260246000fdfe68747470733a2f2f70686f746f732e6170702e676f6f2e676c2f6464716b6a4b663652656b5153615945364142434445464748494a4b4c4d4e4f505152535455565758595a6162636465666768696a6b6c6d6e6f707172737475767778797a303132333435363738392b2f68747470733a2f2f70686f746f732e6170702e676f6f2e676c2f365157767a5777354c33446e696a467336a2646970667358221220bd4e3edb07d39f2d95399c5001a61bc910d66499c8c137077a4d9d4a5421dc1564736f6c63430008190033","linkReferences":{}},"methodIdentifiers":{"BASE_DENOMINATOR()":"bd859584","DOMAIN_SEPARATOR()":"3644e515","MAX_FEE()":"bc063e1a","MAX_SUPPLY()":"32cb6b0c","MIN_FEE()":"76c7a3c7","PERMIT_FOR_ALL_TYPEHASH()":"585956d6","PERMIT_TYPEHASH()":"30adf81f","acceptOwnership()":"79ba5097","approve(address,uint256)":"095ea7b3","balanceOf(address)":"70a08231","beeQuestTracking(uint256,uint256)":"69fbdb28","burn(uint256)":"42966c68","buzzkillAddressProvider()":"921ca4b1","currentTokenId()":"009a9b7b","getApproved(uint256)":"081812fc","getBeeLevel(uint256)":"d0c4567e","getBeeTraits(uint256)":"6d1dcb91","getForagingNumQuestsForLevel(uint256)":"52768219","getRaidNumQuestsForLevel(uint256)":"297617e2","getRaidSuccessNumQuestsForLevel(uint256)":"2b46b3dd","getUpgradeNumQuestsForLevel(uint256)":"78ad9473","isApprovedForAll(address,address)":"e985e9c5","issuer()":"1d143848","minFee()":"24ec7590","mintFee()":"13966db5","mintTo(address,uint256)":"449a52f8","modifyBeeTraits(uint256,uint256,(uint256,uint256,uint256,uint256,uint256,uint256,uint256,uint256,uint256,uint256,uint256,uint256))":"9453b45b","name()":"06fdde03","nonceByAddress(address)":"5e5756d5","nonces(uint256)":"141a468c","owner()":"8da5cb5b","ownerOf(uint256)":"6352211e","pause()":"8456cb59","paused()":"5c975abb","permit(address,uint256,uint256,bytes)":"745a41bc","permitForAll(address,address,uint256,bytes)":"ab84ee6f","queenBeeImage()":"80fdc055","refreshBeeEnergy(uint256)":"da4b0b34","refreshBeeHealth(uint256)":"b1f2ead6","safeTransferFrom(address,address,uint256)":"42842e0e","safeTransferFrom(address,address,uint256,bytes)":"b88d4fde","setApprovalForAll(address,bool)":"a22cb465","setMintFee(uint256)":"eddd0d9c","supportsInterface(bytes4)":"01ffc9a7","symbol()":"95d89b41","tokenByIndex(uint256)":"4f6ccce7","tokenIdToCharacteristics(uint256)":"b4dc46d9","tokenIdToStatus(uint256)":"2ad22315","tokenIdToTraits(uint256)":"f3c86ff5","tokenOfOwnerByIndex(address,uint256)":"2f745c59","tokenURI(uint256)":"c87b56dd","tokenURIs(uint256)":"6c8b703f","totalSupply()":"18160ddd","transferFrom(address,address,uint256)":"23b872dd","transferOwnership(address)":"f2fde38b","unpause()":"3f4ba83a","updateForagingQuestCount(uint256,uint256)":"e520f7dc","updateRaidQuestCount(uint256,uint256)":"95ba0e94","updateRaidSuccessQuestCount(uint256,uint256)":"f0499490","updateUpgradeQuestCount(uint256,uint256)":"1a02cc7b","withdrawPayments(address)":"31b3eb94","workerBeeImage()":"7ea6dd72"},"id":0}