{"abi":[{"type":"constructor","inputs":[{"name":"_buzzkillAddressProvider","type":"address","internalType":"address"}],"stateMutability":"nonpayable"},{"type":"function","name":"burnHoney","inputs":[{"name":"recipient","type":"address","internalType":"address"},{"name":"amount","type":"uint256","internalType":"uint256"}],"outputs":[],"stateMutability":"nonpayable"},{"type":"function","name":"distributeHoney","inputs":[{"name":"recipient","type":"address","internalType":"address"},{"name":"amount","type":"uint256","internalType":"uint256"}],"outputs":[],"stateMutability":"nonpayable"},{"type":"function","name":"owner","inputs":[],"outputs":[{"name":"","type":"address","internalType":"address"}],"stateMutability":"view"},{"type":"function","name":"renounceOwnership","inputs":[],"outputs":[],"stateMutability":"nonpayable"},{"type":"function","name":"totalHoneyDistributed","inputs":[],"outputs":[{"name":"","type":"uint256","internalType":"uint256"}],"stateMutability":"view"},{"type":"function","name":"transferOwnership","inputs":[{"name":"newOwner","type":"address","internalType":"address"}],"outputs":[],"stateMutability":"nonpayable"},{"type":"event","name":"OwnershipTransferred","inputs":[{"name":"previousOwner","type":"address","indexed":true,"internalType":"address"},{"name":"newOwner","type":"address","indexed":true,"internalType":"address"}],"anonymous":false},{"type":"error","name":"HiveOnly","inputs":[]},{"type":"error","name":"OwnableInvalidOwner","inputs":[{"name":"owner","type":"address","internalType":"address"}]},{"type":"error","name":"OwnableUnauthorizedAccount","inputs":[{"name":"account","type":"address","internalType":"address"}]}],"bytecode":{"object":"0x608060405234801561001057600080fd5b5060405161065138038061065183398101604081905261002f916100d4565b338061005557604051631e4fbdf760e01b81526000600482015260240160405180910390fd5b61005e81610084565b50600280546001600160a01b0319166001600160a01b0392909216919091179055610104565b600080546001600160a01b038381166001600160a01b0319831681178455604051919092169283917f8be0079c531659141344cd1fd0a4f28419497f9722a3daafe3b4186f6b6457e09190a35050565b6000602082840312156100e657600080fd5b81516001600160a01b03811681146100fd57600080fd5b9392505050565b61053e806101136000396000f3fe608060405234801561001057600080fd5b50600436106100625760003560e01c8063462e3a8414610067578063715018a61461007c57806378c27362146100845780638da5cb5b146100a0578063c3ce1d06146100bb578063f2fde38b146100ce575b600080fd5b61007a61007536600461049b565b6100e1565b005b61007a610263565b61008d60015481565b6040519081526020015b60405180910390f35b6000546040516001600160a01b039091168152602001610097565b61007a6100c936600461049b565b610277565b61007a6100dc3660046104c7565b6103c6565b600260009054906101000a90046001600160a01b03166001600160a01b03166318b5c9546040518163ffffffff1660e01b8152600401602060405180830381865afa158015610134573d6000803e3d6000fd5b505050506040513d601f19601f8201168201806040525081019061015891906104eb565b6001600160a01b0316336001600160a01b031614610189576040516329e101a960e01b815260040160405180910390fd5b6002546040805163b3d8d07960e01b815290516000926001600160a01b03169163b3d8d0799160048083019260209291908290030181865afa1580156101d3573d6000803e3d6000fd5b505050506040513d601f19601f820116820180604052508101906101f791906104eb565b604051632770a7eb60e21b81526001600160a01b0385811660048301526024820185905291925090821690639dc29fac906044015b600060405180830381600087803b15801561024657600080fd5b505af115801561025a573d6000803e3d6000fd5b50505050505050565b61026b610409565b6102756000610436565b565b600260009054906101000a90046001600160a01b03166001600160a01b03166318b5c9546040518163ffffffff1660e01b8152600401602060405180830381865afa1580156102ca573d6000803e3d6000fd5b505050506040513d601f19601f820116820180604052508101906102ee91906104eb565b6001600160a01b0316336001600160a01b03161461031f576040516329e101a960e01b815260040160405180910390fd5b6002546040805163b3d8d07960e01b815290516000926001600160a01b03169163b3d8d0799160048083019260209291908290030181865afa158015610369573d6000803e3d6000fd5b505050506040513d601f19601f8201168201806040525081019061038d91906104eb565b6040516308934a5f60e31b81526001600160a01b038581166004830152602482018590529192509082169063449a52f89060440161022c565b6103ce610409565b6001600160a01b0381166103fd57604051631e4fbdf760e01b8152600060048201526024015b60405180910390fd5b61040681610436565b50565b6000546001600160a01b031633146102755760405163118cdaa760e01b81523360048201526024016103f4565b600080546001600160a01b038381166001600160a01b0319831681178455604051919092169283917f8be0079c531659141344cd1fd0a4f28419497f9722a3daafe3b4186f6b6457e09190a35050565b6001600160a01b038116811461040657600080fd5b600080604083850312156104ae57600080fd5b82356104b981610486565b946020939093013593505050565b6000602082840312156104d957600080fd5b81356104e481610486565b9392505050565b6000602082840312156104fd57600080fd5b81516104e48161048656fea2646970667358221220e63e71b255632a164108667adc9fa991d6846052a232507ffc1555999cc4988f64736f6c63430008190033","linkReferences":{}},"methodIdentifiers":{"burnHoney(address,uint256)":"462e3a84","distributeHoney(address,uint256)":"c3ce1d06","owner()":"8da5cb5b","renounceOwnership()":"715018a6","totalHoneyDistributed()":"78c27362","transferOwnership(address)":"f2fde38b"},"id":7}