{"abi":[{"type":"constructor","inputs":[{"name":"_buzzkillAddressProvider","type":"address","internalType":"address"}],"stateMutability":"nonpayable"},{"type":"function","name":"burnHoney","inputs":[{"name":"recipient","type":"address","internalType":"address"},{"name":"amount","type":"uint256","internalType":"uint256"}],"outputs":[],"stateMutability":"nonpayable"},{"type":"function","name":"distributeHoney","inputs":[{"name":"recipient","type":"address","internalType":"address"},{"name":"amount","type":"uint256","internalType":"uint256"}],"outputs":[],"stateMutability":"nonpayable"},{"type":"function","name":"owner","inputs":[],"outputs":[{"name":"","type":"address","internalType":"address"}],"stateMutability":"view"},{"type":"function","name":"renounceOwnership","inputs":[],"outputs":[],"stateMutability":"nonpayable"},{"type":"function","name":"totalHoneyDistributed","inputs":[],"outputs":[{"name":"","type":"uint256","internalType":"uint256"}],"stateMutability":"view"},{"type":"function","name":"transferOwnership","inputs":[{"name":"newOwner","type":"address","internalType":"address"}],"outputs":[],"stateMutability":"nonpayable"},{"type":"event","name":"OwnershipTransferred","inputs":[{"name":"previousOwner","type":"address","indexed":true,"internalType":"address"},{"name":"newOwner","type":"address","indexed":true,"internalType":"address"}],"anonymous":false},{"type":"error","name":"HiveOnly","inputs":[]},{"type":"error","name":"OwnableInvalidOwner","inputs":[{"name":"owner","type":"address","internalType":"address"}]},{"type":"error","name":"OwnableUnauthorizedAccount","inputs":[{"name":"account","type":"address","internalType":"address"}]}],"bytecode":{"object":"0x608060405234801561001057600080fd5b5060405161070038038061070083398101604081905261002f916100d4565b338061005557604051631e4fbdf760e01b81526000600482015260240160405180910390fd5b61005e81610084565b50600280546001600160a01b0319166001600160a01b0392909216919091179055610104565b600080546001600160a01b038381166001600160a01b0319831681178455604051919092169283917f8be0079c531659141344cd1fd0a4f28419497f9722a3daafe3b4186f6b6457e09190a35050565b6000602082840312156100e657600080fd5b81516001600160a01b03811681146100fd57600080fd5b9392505050565b6105ed806101136000396000f3fe608060405234801561001057600080fd5b50600436106100625760003560e01c8063462e3a8414610067578063715018a61461007c57806378c27362146100845780638da5cb5b146100a0578063c3ce1d06146100bb578063f2fde38b146100ce575b600080fd5b61007a61007536600461054a565b6100e1565b005b61007a6102bb565b61008d60015481565b6040519081526020015b60405180910390f35b6000546040516001600160a01b039091168152602001610097565b61007a6100c936600461054a565b6102cf565b61007a6100dc366004610576565b610475565b600254604080516304f4c1ad60e41b8152905133926001600160a01b031691634f4c1ad09160048083019260209291908290030181865afa15801561012a573d6000803e3d6000fd5b505050506040513d601f19601f8201168201806040525081019061014e919061059a565b6001600160a01b0316816001600160a01b03166302d05d3f6040518163ffffffff1660e01b8152600401602060405180830381865afa158015610195573d6000803e3d6000fd5b505050506040513d601f19601f820116820180604052508101906101b9919061059a565b6001600160a01b0316146101e0576040516329e101a960e01b815260040160405180910390fd5b6002546040805163b3d8d07960e01b815290516000926001600160a01b03169163b3d8d0799160048083019260209291908290030181865afa15801561022a573d6000803e3d6000fd5b505050506040513d601f19601f8201168201806040525081019061024e919061059a565b604051632770a7eb60e21b81526001600160a01b0386811660048301526024820186905291925090821690639dc29fac906044015b600060405180830381600087803b15801561029d57600080fd5b505af11580156102b1573d6000803e3d6000fd5b5050505050505050565b6102c36104b8565b6102cd60006104e5565b565b600254604080516304f4c1ad60e41b8152905133926001600160a01b031691634f4c1ad09160048083019260209291908290030181865afa158015610318573d6000803e3d6000fd5b505050506040513d601f19601f8201168201806040525081019061033c919061059a565b6001600160a01b0316816001600160a01b03166302d05d3f6040518163ffffffff1660e01b8152600401602060405180830381865afa158015610383573d6000803e3d6000fd5b505050506040513d601f19601f820116820180604052508101906103a7919061059a565b6001600160a01b0316146103ce576040516329e101a960e01b815260040160405180910390fd5b6002546040805163b3d8d07960e01b815290516000926001600160a01b03169163b3d8d0799160048083019260209291908290030181865afa158015610418573d6000803e3d6000fd5b505050506040513d601f19601f8201168201806040525081019061043c919061059a565b6040516308934a5f60e31b81526001600160a01b038681166004830152602482018690529192509082169063449a52f890604401610283565b61047d6104b8565b6001600160a01b0381166104ac57604051631e4fbdf760e01b8152600060048201526024015b60405180910390fd5b6104b5816104e5565b50565b6000546001600160a01b031633146102cd5760405163118cdaa760e01b81523360048201526024016104a3565b600080546001600160a01b038381166001600160a01b0319831681178455604051919092169283917f8be0079c531659141344cd1fd0a4f28419497f9722a3daafe3b4186f6b6457e09190a35050565b6001600160a01b03811681146104b557600080fd5b6000806040838503121561055d57600080fd5b823561056881610535565b946020939093013593505050565b60006020828403121561058857600080fd5b813561059381610535565b9392505050565b6000602082840312156105ac57600080fd5b81516105938161053556fea26469706673582212205c898834a2957ffcdd0c8a929d5995141d502f054db8cbc042d143dd154bad9f64736f6c63430008190033","linkReferences":{}},"methodIdentifiers":{"burnHoney(address,uint256)":"462e3a84","distributeHoney(address,uint256)":"c3ce1d06","owner()":"8da5cb5b","renounceOwnership()":"715018a6","totalHoneyDistributed()":"78c27362","transferOwnership(address)":"f2fde38b"},"id":8}