{"abi":[{"type":"constructor","inputs":[{"name":"_habitatId","type":"uint256","internalType":"uint256"},{"name":"_buzzkillAddressProvider","type":"address","internalType":"address"}],"stateMutability":"nonpayable"},{"type":"function","name":"BASE_DENOMINATOR","inputs":[],"outputs":[{"name":"","type":"uint256","internalType":"uint256"}],"stateMutability":"view"},{"type":"function","name":"ONE_EPOCH","inputs":[],"outputs":[{"name":"","type":"uint256","internalType":"uint256"}],"stateMutability":"view"},{"type":"function","name":"availableHoneyInHive","inputs":[],"outputs":[{"name":"","type":"uint256","internalType":"uint256"}],"stateMutability":"view"},{"type":"function","name":"beeStatus","inputs":[{"name":"","type":"uint256","internalType":"uint256"}],"outputs":[{"name":"owner","type":"address","internalType":"address"},{"name":"beeId","type":"uint256","internalType":"uint256"},{"name":"beeProductivity","type":"uint256","internalType":"uint256"},{"name":"beeDefense","type":"uint256","internalType":"uint256"},{"name":"lastClaimedBlock","type":"uint256","internalType":"uint256"}],"stateMutability":"view"},{"type":"function","name":"buzzkillAddressProvider","inputs":[],"outputs":[{"name":"","type":"address","internalType":"contract IBuzzkillAddressProvider"}],"stateMutability":"view"},{"type":"function","name":"collectHoney","inputs":[{"name":"_tokenId","type":"uint256","internalType":"uint256"}],"outputs":[],"stateMutability":"nonpayable"},{"type":"function","name":"creator","inputs":[],"outputs":[{"name":"","type":"address","internalType":"address"}],"stateMutability":"view"},{"type":"function","name":"endureRaid","inputs":[{"name":"_tokenId","type":"uint256","internalType":"uint256"}],"outputs":[{"name":"","type":"uint256","internalType":"uint256"}],"stateMutability":"nonpayable"},{"type":"function","name":"forage","inputs":[{"name":"_tokenId","type":"uint256","internalType":"uint256"},{"name":"_habitatId","type":"uint256","internalType":"uint256"}],"outputs":[],"stateMutability":"nonpayable"},{"type":"function","name":"getAvailableHoneyInHive","inputs":[],"outputs":[{"name":"","type":"uint256","internalType":"uint256"}],"stateMutability":"view"},{"type":"function","name":"getHivePoolMultiplier","inputs":[],"outputs":[{"name":"","type":"uint256","internalType":"uint256"}],"stateMutability":"view"},{"type":"function","name":"getHiveResources","inputs":[],"outputs":[{"name":"","type":"uint256","internalType":"uint256"},{"name":"","type":"uint256","internalType":"uint256"},{"name":"","type":"uint256","internalType":"uint256"}],"stateMutability":"view"},{"type":"function","name":"getUserClaimableHoney","inputs":[{"name":"_tokenId","type":"uint256","internalType":"uint256"}],"outputs":[{"name":"","type":"uint256","internalType":"uint256"}],"stateMutability":"view"},{"type":"function","name":"habitatId","inputs":[],"outputs":[{"name":"","type":"uint256","internalType":"uint256"}],"stateMutability":"view"},{"type":"function","name":"hiveDefense","inputs":[],"outputs":[{"name":"","type":"uint256","internalType":"uint256"}],"stateMutability":"view"},{"type":"function","name":"hiveProductivity","inputs":[],"outputs":[{"name":"","type":"uint256","internalType":"uint256"}],"stateMutability":"view"},{"type":"function","name":"isBeeInAction","inputs":[{"name":"","type":"uint256","internalType":"uint256"}],"outputs":[{"name":"","type":"bool","internalType":"bool"}],"stateMutability":"view"},{"type":"function","name":"lastAvailableHoneyUpdateBlock","inputs":[],"outputs":[{"name":"","type":"uint256","internalType":"uint256"}],"stateMutability":"view"},{"type":"function","name":"nectar","inputs":[],"outputs":[{"name":"","type":"uint256","internalType":"uint256"}],"stateMutability":"view"},{"type":"function","name":"numQueens","inputs":[],"outputs":[{"name":"","type":"uint256","internalType":"uint256"}],"stateMutability":"view"},{"type":"function","name":"numWorkers","inputs":[],"outputs":[{"name":"","type":"uint256","internalType":"uint256"}],"stateMutability":"view"},{"type":"function","name":"onERC721Received","inputs":[{"name":"","type":"address","internalType":"address"},{"name":"","type":"address","internalType":"address"},{"name":"","type":"uint256","internalType":"uint256"},{"name":"","type":"bytes","internalType":"bytes"}],"outputs":[{"name":"","type":"bytes4","internalType":"bytes4"}],"stateMutability":"pure"},{"type":"function","name":"pollen","inputs":[],"outputs":[{"name":"","type":"uint256","internalType":"uint256"}],"stateMutability":"view"},{"type":"function","name":"sap","inputs":[],"outputs":[{"name":"","type":"uint256","internalType":"uint256"}],"stateMutability":"view"},{"type":"function","name":"stakeBee","inputs":[{"name":"_tokenId","type":"uint256","internalType":"uint256"}],"outputs":[],"stateMutability":"nonpayable"},{"type":"function","name":"startRaid","inputs":[{"name":"_tokenId","type":"uint256","internalType":"uint256"},{"name":"_raidedHive","type":"address","internalType":"address"}],"outputs":[],"stateMutability":"nonpayable"},{"type":"function","name":"unstakeBee","inputs":[{"name":"_tokenId","type":"uint256","internalType":"uint256"}],"outputs":[],"stateMutability":"nonpayable"},{"type":"function","name":"updateHiveDefense","inputs":[{"name":"_tokenId","type":"uint256","internalType":"uint256"}],"outputs":[],"stateMutability":"nonpayable"},{"type":"event","name":"CollectHoney","inputs":[{"name":"tokenId","type":"uint256","indexed":false,"internalType":"uint256"},{"name":"honey","type":"uint256","indexed":false,"internalType":"uint256"}],"anonymous":false},{"type":"event","name":"ForageFinished","inputs":[{"name":"tokenId","type":"uint256","indexed":false,"internalType":"uint256"},{"name":"nectar","type":"uint256","indexed":false,"internalType":"uint256"},{"name":"pollen","type":"uint256","indexed":false,"internalType":"uint256"},{"name":"sap","type":"uint256","indexed":false,"internalType":"uint256"},{"name":"productivityEarned","type":"uint256","indexed":false,"internalType":"uint256"},{"name":"experienceEarned","type":"uint256","indexed":false,"internalType":"uint256"}],"anonymous":false},{"type":"event","name":"NFTStaked","inputs":[{"name":"tokenId","type":"uint256","indexed":false,"internalType":"uint256"}],"anonymous":false},{"type":"event","name":"NFTUnstaked","inputs":[{"name":"tokenId","type":"uint256","indexed":false,"internalType":"uint256"}],"anonymous":false},{"type":"event","name":"RaidFinished","inputs":[{"name":"tokenId","type":"uint256","indexed":false,"internalType":"uint256"},{"name":"honey","type":"uint256","indexed":false,"internalType":"uint256"},{"name":"productivityEarned","type":"uint256","indexed":false,"internalType":"uint256"},{"name":"experienceEarned","type":"uint256","indexed":false,"internalType":"uint256"}],"anonymous":false},{"type":"error","name":"BeeAlreadyInAction","inputs":[]},{"type":"error","name":"BeeAlreadyStaked","inputs":[]},{"type":"error","name":"BeeMustBeOutsideHive","inputs":[]},{"type":"error","name":"BeeNotInHive","inputs":[]},{"type":"error","name":"HiveOnly","inputs":[]},{"type":"error","name":"InsufficientEnergy","inputs":[]},{"type":"error","name":"InsufficientHealth","inputs":[]},{"type":"error","name":"InsufficientHoney","inputs":[]},{"type":"error","name":"InsufficientSap","inputs":[]},{"type":"error","name":"InvalidNFTType","inputs":[]},{"type":"error","name":"MaxQueenReached","inputs":[]},{"type":"error","name":"MaxWorkerReached","inputs":[]},{"type":"error","name":"NoHoneyToCollect","inputs":[]},{"type":"error","name":"NoQueenBee","inputs":[]},{"type":"error","name":"NotBeeOwner","inputs":[]},{"type":"error","name":"NotEnoughNectarToCollect","inputs":[]}],"bytecode":{"object":"0x6080604052348015600f57600080fd5b50604051613b0e380380613b0e833981016040819052602c916061565b60008054336001600160a01b031991821617909155600192909255600d80549092166001600160a01b0391909116179055609c565b60008060408385031215607357600080fd5b825160208401519092506001600160a01b0381168114609157600080fd5b809150509250929050565b613a63806100ab6000396000f3fe608060405234801561001057600080fd5b50600436106101c45760003560e01c80638f605eec116100f9578063b0f7c7af11610097578063de5bae0f11610071578063de5bae0f1461040c578063eeb36f7914610415578063f1bc9b521461041d578063f24996141461042557600080fd5b8063b0f7c7af146103e7578063bd859584146103fa578063c9592e991461040357600080fd5b806395920aad116100d357806395920aad14610353578063962b9d81146103cc5780639b73f891146103d55780639d73fcc6146103de57600080fd5b80638f605eec14610309578063903774ad1461032d578063921ca4b11461034057600080fd5b806341f7fee6116101665780636055042b116101405780636055042b146102c7578063662377c1146102da578063706d6ef4146102e357806387763426146102f657600080fd5b806341f7fee61461027857806357eb3b301461028b5780635aaabe581461029457600080fd5b806308d4ffab116101a257806308d4ffab14610219578063150b7a021461022e57806332304b90146102665780633b42adee1461026f57600080fd5b806302c7086c146101c957806302d05d3f146101e557806307fbd84b14610210575b600080fd5b6101d260085481565b6040519081526020015b60405180910390f35b6000546101f8906001600160a01b031681565b6040516001600160a01b0390911681526020016101dc565b6101d260045481565b61022c610227366004613585565b610438565b005b61024d61023c3660046135b5565b630a85bd0160e11b95945050505050565b6040516001600160e01b031990911681526020016101dc565b6101d2600a5481565b6101d261038481565b6101d2610286366004613654565b610e94565b6101d260035481565b6102b76102a2366004613654565b600b6020526000908152604090205460ff1681565b60405190151581526020016101dc565b6101d26102d5366004613654565b610fff565b6101d260065481565b61022c6102f136600461366d565b611386565b61022c610304366004613654565b611c79565b600454600554600654604080519384526020840192909252908201526060016101dc565b61022c61033b366004613654565b611e52565b600d546101f8906001600160a01b031681565b61039a610361366004613654565b600c60205260009081526040902080546001820154600283015460038401546004909401546001600160a01b0390931693919290919085565b604080516001600160a01b0390961686526020860194909452928401919091526060830152608082015260a0016101dc565b6101d260025481565b6101d260015481565b6101d260075481565b61022c6103f5366004613654565b6122f4565b6101d261271081565b6101d260095481565b6101d260055481565b6101d2612919565b6101d2612ae0565b61022c610433366004613654565b612b17565b6000828152600b6020526040902054829060ff161561046a576040516380345f6960e01b815260040160405180910390fd5b6000818152600b60209081526040808320805460ff19166001179055858352600c909152902054336001600160a01b03909116146104bb5760405163ba18ada560e01b815260040160405180910390fd5b6104c361303a565b600d54604080516320d399e760e21b815290516000926001600160a01b03169163834e679c9160048083019260209291908290030181865afa15801561050d573d6000803e3d6000fd5b505050506040513d601f19601f82011682018060405250810190610531919061368f565b60405163f3c86ff560e01b8152600481018690529091506000906001600160a01b0383169063f3c86ff59060240161012060405180830381865afa15801561057d573d6000803e3d6000fd5b505050506040513d601f19601f820116820180604052508101906105a19190613724565b90506000600d60009054906101000a90046001600160a01b03166001600160a01b0316636cfe8a9f6040518163ffffffff1660e01b8152600401602060405180830381865afa1580156105f8573d6000803e3d6000fd5b505050506040513d601f19601f8201168201806040525081019061061c919061368f565b9050806001600160a01b031663c688e25d6040518163ffffffff1660e01b8152600401602060405180830381865afa15801561065c573d6000803e3d6000fd5b505050506040513d601f19601f82011682018060405250810190610680919061379f565b82610100015110156106a557604051630396460960e61b815260040160405180910390fd5b806001600160a01b031663c688e25d6040518163ffffffff1660e01b8152600401602060405180830381865afa1580156106e3573d6000803e3d6000fd5b505050506040513d601f19601f82011682018060405250810190610707919061379f565b826101000181815161071991906137ce565b905250600d546040805163b3d8d07960e01b815290516000926001600160a01b03169163b3d8d0799160048083019260209291908290030181865afa158015610766573d6000803e3d6000fd5b505050506040513d601f19601f8201168201806040525081019061078a919061368f565b905082602001516000036107b1576040516323131deb60e01b815260040160405180910390fd5b6000826001600160a01b031663adfa16476040518163ffffffff1660e01b8152600401602060405180830381865afa1580156107f1573d6000803e3d6000fd5b505050506040513d601f19601f82011682018060405250810190610815919061379f565b6040516370a0823160e01b815233600482015290915081906001600160a01b038416906370a0823190602401602060405180830381865afa15801561085e573d6000803e3d6000fd5b505050506040513d601f19601f82011682018060405250810190610882919061379f565b10156108a15760405163094c287760e41b815260040160405180910390fd5b600d546040805163130329f160e31b815290516000926001600160a01b0316916398194f889160048083019260209291908290030181865afa1580156108eb573d6000803e3d6000fd5b505050506040513d601f19601f8201168201806040525081019061090f919061368f565b60405163118b8ea160e21b8152336004820152602481018490529091506001600160a01b0382169063462e3a8490604401600060405180830381600087803b15801561095a57600080fd5b505af115801561096e573d6000803e3d6000fd5b5050604051636055042b60e01b8152600481018c90528a9250600091506001600160a01b03831690636055042b906024016020604051808303816000875af11580156109be573d6000803e3d6000fd5b505050506040513d601f19601f820116820180604052508101906109e2919061379f565b90506000866001600160a01b03166316b24c0b6040518163ffffffff1660e01b8152600401602060405180830381865afa158015610a24573d6000803e3d6000fd5b505050506040513d601f19601f82011682018060405250810190610a48919061379f565b90508115610ba8578088602001511015610a685760006020890152610a7e565b8088602001818151610a7a91906137ce565b9052505b6000612710610a8f846101f46137e7565b610a999190613814565b90508060096000828254610aad9190613828565b92505081905550876001600160a01b03166337a11a636040518163ffffffff1660e01b8152600401602060405180830381865afa158015610af2573d6000803e3d6000fd5b505050506040513d601f19601f82011682018060405250810190610b16919061379f565b8960a001818151610b279190613828565b9052506001600160a01b03851663c3ce1d0633610b4484876137ce565b6040516001600160e01b031960e085901b1681526001600160a01b0390921660048301526024820152604401600060405180830381600087803b158015610b8a57600080fd5b505af1158015610b9e573d6000803e3d6000fd5b5050505050610c61565b610bb38160026137e7565b88602001511015610bca5760006020890152610bea565b610bd58160026137e7565b88602001818151610be691906137ce565b9052505b866001600160a01b031663c8a933366040518163ffffffff1660e01b8152600401602060405180830381865afa158015610c28573d6000803e3d6000fd5b505050506040513d601f19601f82011682018060405250810190610c4c919061379f565b8860a001818151610c5d9190613828565b9052505b866001600160a01b031663dc33615c6040518163ffffffff1660e01b8152600401602060405180830381865afa158015610c9f573d6000803e3d6000fd5b505050506040513d601f19601f82011682018060405250810190610cc3919061379f565b60008d8152600c602052604081206002018054909190610ce4908490613828565b92505081905550866001600160a01b031663dc33615c6040518163ffffffff1660e01b8152600401602060405180830381865afa158015610d29573d6000803e3d6000fd5b505050506040513d601f19601f82011682018060405250810190610d4d919061379f565b60076000828254610d5e9190613828565b90915550506040516350c142e760e11b81526001600160a01b038a169063a18285ce90610d91908f908c9060040161383b565b600060405180830381600087803b158015610dab57600080fd5b505af1158015610dbf573d6000803e3d6000fd5b505050507fd00d9864c7d10fc441060667d5865560630e257e63b39f5e4c1174fe0d63de978c83896001600160a01b031663dc33615c6040518163ffffffff1660e01b8152600401602060405180830381865afa158015610e24573d6000803e3d6000fd5b505050506040513d601f19601f82011682018060405250810190610e48919061379f565b60a08c015160408051948552602085019390935291830152606082015260800160405180910390a150505060009687525050600b60205250506040909220805460ff1916905550505050565b600080610e9f612919565b6000848152600c6020526040902060040154909150801580610ec15750600754155b15610ed0575060009392505050565b600d5460408051636cfe8a9f60e01b815290516000926001600160a01b031691636cfe8a9f9160048083019260209291908290030181865afa158015610f1a573d6000803e3d6000fd5b505050506040513d601f19601f82011682018060405250810190610f3e919061368f565b90504382118015610fb85750806001600160a01b03166387063ead6040518163ffffffff1660e01b8152600401602060405180830381865afa158015610f88573d6000803e3d6000fd5b505050506040513d601f19601f82011682018060405250810190610fac919061379f565b610fb683436137ce565b105b15610fc857506000949350505050565b6000858152600c6020526040812060020154600754909190610fea83876137e7565b610ff49190613814565b979650505050505050565b60008054604080516302d05d3f60e01b8152905133926001600160a01b03169183916302d05d3f916004808201926020929091908290030181865afa15801561104c573d6000803e3d6000fd5b505050506040513d601f19601f82011682018060405250810190611070919061368f565b6001600160a01b031614611097576040516329e101a960e01b815260040160405180910390fd5b6000838152600c60205260409020546001600160a01b0316156110cd5760405163f305a0c160e01b815260040160405180910390fd5b6110d561303a565b600d54604080516320d399e760e21b815290516000926001600160a01b03169163834e679c9160048083019260209291908290030181865afa15801561111f573d6000803e3d6000fd5b505050506040513d601f19601f82011682018060405250810190611143919061368f565b60405163f3c86ff560e01b8152600481018690529091506000906001600160a01b0383169063f3c86ff59060240161012060405180830381865afa15801561118f573d6000803e3d6000fd5b505050506040513d601f19601f820116820180604052508101906111b39190613724565b905060006111bf613216565b905060006111cb613264565b905060008284604001516111df91906137e7565b90506000826008546111f191906137e7565b9050600081831115611379576000611207612919565b905060006112136132e0565b90506000600d60009054906101000a90046001600160a01b03166001600160a01b0316636cfe8a9f6040518163ffffffff1660e01b8152600401602060405180830381865afa15801561126a573d6000803e3d6000fd5b505050506040513d601f19601f8201168201806040525081019061128e919061368f565b905061129c612710806137e7565b60808a01516112ab90856137e7565b6112b69060646137e7565b6112c09190613814565b61271083836001600160a01b031663b6d075756040518163ffffffff1660e01b8152600401602060405180830381865afa158015611302573d6000803e3d6000fd5b505050506040513d601f19601f82011682018060405250810190611326919061379f565b61133091906137e7565b61133c906127106137e7565b6113469190613814565b6113509190613828565b93508284111561135e578293505b836009600082825461137091906137ce565b90915550505050505b9998505050505050505050565b6000828152600b6020526040902054829060ff16156113b8576040516380345f6960e01b815260040160405180910390fd5b6000818152600b60209081526040808320805460ff19166001179055858352600c909152902054336001600160a01b03909116146114095760405163ba18ada560e01b815260040160405180910390fd5b61141161303a565b600d54604080516320d399e760e21b815290516000926001600160a01b03169163834e679c9160048083019260209291908290030181865afa15801561145b573d6000803e3d6000fd5b505050506040513d601f19601f8201168201806040525081019061147f919061368f565b90506000600d60009054906101000a90046001600160a01b03166001600160a01b031663cb6dcbb66040518163ffffffff1660e01b8152600401602060405180830381865afa1580156114d6573d6000803e3d6000fd5b505050506040513d601f19601f820116820180604052508101906114fa919061368f565b6040516339e735fb60e21b8152600481018690529091506000906001600160a01b0383169063e79cd7ec90602401602060405180830381865afa158015611545573d6000803e3d6000fd5b505050506040513d601f19601f82011682018060405250810190611569919061379f565b604051633692c2cd60e21b8152600481018890529091506001600160a01b0384169063da4b0b3490602401600060405180830381600087803b1580156115ae57600080fd5b505af11580156115c2573d6000803e3d6000fd5b505060405163f3c86ff560e01b815260048101899052600092506001600160a01b038616915063f3c86ff59060240161012060405180830381865afa15801561160f573d6000803e3d6000fd5b505050506040513d601f19601f820116820180604052508101906116339190613724565b90506000600d60009054906101000a90046001600160a01b03166001600160a01b0316636cfe8a9f6040518163ffffffff1660e01b8152600401602060405180830381865afa15801561168a573d6000803e3d6000fd5b505050506040513d601f19601f820116820180604052508101906116ae919061368f565b905082826000015110156116d5576040516340bdb3cd60e11b815260040160405180910390fd5b604051631c1b5bbd60e21b81526004810189905260248101889052600090819081906001600160a01b0388169063706d6ef4906044016060604051808303816000875af115801561172a573d6000803e3d6000fd5b505050506040513d601f19601f8201168201806040525081019061174e91906138aa565b9250925092506000876001600160a01b031663dcda128f8c6040518263ffffffff1660e01b815260040161178491815260200190565b602060405180830381865afa1580156117a1573d6000803e3d6000fd5b505050506040513d601f19601f820116820180604052508101906117c5919061379f565b90506000856001600160a01b0316637f50b6fd6040518163ffffffff1660e01b8152600401602060405180830381865afa158015611807573d6000803e3d6000fd5b505050506040513d601f19601f8201168201806040525081019061182b919061379f565b9050600161271061183c83886137e7565b6118469190613814565b10156118895760016004600082825461185f9190613828565b9091555061187090506001866137ce565b8760c0018181516118819190613828565b9052506118ed565b61271061189682876137e7565b6118a09190613814565b600460008282546118b19190613828565b9091555061271090506118c482876137e7565b6118ce9190613814565b6118d890866137ce565b8760c0018181516118e99190613828565b9052505b60016127106118fc83876137e7565b6119069190613814565b10156119495760016005600082825461191f9190613828565b9091555061193090506001856137ce565b8760e0018181516119419190613828565b9052506119ad565b61271061195682866137e7565b6119609190613814565b600560008282546119719190613828565b90915550612710905061198482866137e7565b61198e9190613814565b61199890856137ce565b8760e0018181516119a99190613828565b9052505b60016127106119bc83866137e7565b6119c69190613814565b1015611a0a576001600660008282546119df9190613828565b909155506119f090506001846137ce565b8761010001818151611a029190613828565b905250611a6f565b612710611a1782856137e7565b611a219190613814565b60066000828254611a329190613828565b909155506127109050611a4582856137e7565b611a4f9190613814565b611a5990846137ce565b8761010001818151611a6b9190613828565b9052505b8160076000828254611a819190613828565b9091555050865188908890611a979083906137ce565b91508181525050856001600160a01b031663166ce7456040518163ffffffff1660e01b8152600401602060405180830381865afa158015611adc573d6000803e3d6000fd5b505050506040513d601f19601f82011682018060405250810190611b00919061379f565b8760a001818151611b119190613828565b90525060008d8152600c602052604081206002018054849290611b35908490613828565b92505081905550896001600160a01b031663a18285ce8e896040518363ffffffff1660e01b8152600401611b6a92919061383b565b600060405180830381600087803b158015611b8457600080fd5b505af1158015611b98573d6000803e3d6000fd5b505050507f01b63758d70114c012a53ec5a0738b9dbf8a38f05dae83523858dba22d0122b58d868686868b6001600160a01b031663166ce7456040518163ffffffff1660e01b8152600401602060405180830381865afa158015611c00573d6000803e3d6000fd5b505050506040513d601f19601f82011682018060405250810190611c24919061379f565b604080519687526020870195909552938501929092526060840152608083015260a082015260c00160405180910390a150505060009788525050600b60205250506040909320805460ff191690555050505050565b600d54604080516320d399e760e21b815290516000926001600160a01b03169163834e679c9160048083019260209291908290030181865afa158015611cc3573d6000803e3d6000fd5b505050506040513d601f19601f82011682018060405250810190611ce7919061368f565b6040516331a9108f60e11b81526004810184905290915030906001600160a01b03831690636352211e90602401602060405180830381865afa158015611d31573d6000803e3d6000fd5b505050506040513d601f19601f82011682018060405250810190611d55919061368f565b6001600160a01b031614611d7c576040516371fa4c1160e01b815260040160405180910390fd5b60405163f3c86ff560e01b8152600481018390526000906001600160a01b0383169063f3c86ff59060240161012060405180830381865afa158015611dc5573d6000803e3d6000fd5b505050506040513d601f19601f82011682018060405250810190611de99190613724565b9050600c60008481526020019081526020016000206003015460086000828254611e1391906137ce565b90915550506060810180516000858152600c602052604081206003019190915590516008805491929091611e48908490613828565b9091555050505050565b600d5460408051636cfe8a9f60e01b815290516000926001600160a01b031691636cfe8a9f9160048083019260209291908290030181865afa158015611e9c573d6000803e3d6000fd5b505050506040513d601f19601f82011682018060405250810190611ec0919061368f565b9050806001600160a01b0316638ccf96d76040518163ffffffff1660e01b8152600401602060405180830381865afa158015611f00573d6000803e3d6000fd5b505050506040513d601f19601f82011682018060405250810190611f24919061379f565b60025410611f48576040516001623dbea360e11b0319815260040160405180910390fd5b806001600160a01b031663945b61236040518163ffffffff1660e01b8152600401602060405180830381865afa158015611f86573d6000803e3d6000fd5b505050506040513d601f19601f82011682018060405250810190611faa919061379f565b60035410611fcb576040516393c8ce4360e01b815260040160405180910390fd5b600d54604080516320d399e760e21b815290516000926001600160a01b03169163834e679c9160048083019260209291908290030181865afa158015612015573d6000803e3d6000fd5b505050506040513d601f19601f82011682018060405250810190612039919061368f565b60405163b4dc46d960e01b8152600481018590529091506000906001600160a01b0383169063b4dc46d990602401600060405180830381865afa158015612084573d6000803e3d6000fd5b505050506040513d6000823e601f3d908101601f191682016040526120ac919081019061395d565b60405163f3c86ff560e01b815260048101879052909250600091506001600160a01b0384169063f3c86ff59060240161012060405180830381865afa1580156120f9573d6000803e3d6000fd5b505050506040513d601f19601f8201168201806040525081019061211d9190613724565b905061212761303a565b6121308261344f565b1561214f5760028054906000612145836139c1565b9190505550612186565b612158826134ab565b1561216d5760038054906000612145836139c1565b60405163adc1f5ed60e01b815260040160405180910390fd5b6000858152600c60205260409020546001600160a01b0316156121bc57604051636c04db0760e01b815260040160405180910390fd5b6040805160a081018252338152602080820188815260008385018181526060878101805191870191825243608088019081528d8552600c909652968320955186546001600160a01b0319166001600160a01b039091161786559251600186015551600285015590516003840155905160049092019190915590516008805491929091612249908490613828565b9091555050604051632142170760e11b8152336004820152306024820152604481018690526001600160a01b038416906342842e0e90606401600060405180830381600087803b15801561229c57600080fd5b505af11580156122b0573d6000803e3d6000fd5b505050507f11658f9285ec73fac1515f3a09966dcad7880f985e458acc3c41ac5cb98fc4e8856040516122e591815260200190565b60405180910390a15050505050565b6000818152600c60205260409020546001600160a01b0316331461232b5760405163ba18ada560e01b815260040160405180910390fd5b600d54604080516320d399e760e21b815290516000926001600160a01b03169163834e679c9160048083019260209291908290030181865afa158015612375573d6000803e3d6000fd5b505050506040513d601f19601f82011682018060405250810190612399919061368f565b60405163b4dc46d960e01b8152600481018490529091506000906001600160a01b0383169063b4dc46d990602401600060405180830381865afa1580156123e4573d6000803e3d6000fd5b505050506040513d6000823e601f3d908101601f1916820160405261240c919081019061395d565b91505061241761303a565b600061242284610e94565b9050801561274b5760405163f3c86ff560e01b8152600481018590526000906001600160a01b0385169063f3c86ff59060240161012060405180830381865afa158015612473573d6000803e3d6000fd5b505050506040513d601f19601f820116820180604052508101906124979190613724565b905060008160c0015190506000600d60009054906101000a90046001600160a01b03166001600160a01b0316636cfe8a9f6040518163ffffffff1660e01b8152600401602060405180830381865afa1580156124f7573d6000803e3d6000fd5b505050506040513d601f19601f8201168201806040525081019061251b919061368f565b9050806001600160a01b031663265670e76040518163ffffffff1660e01b8152600401602060405180830381865afa15801561255b573d6000803e3d6000fd5b505050506040513d601f19601f8201168201806040525081019061257f919061379f565b82111561274757600d546040805163130329f160e31b815290516000926001600160a01b0316916398194f889160048083019260209291908290030181865afa1580156125d0573d6000803e3d6000fd5b505050506040513d601f19601f820116820180604052508101906125f4919061368f565b9050846009600082825461260891906137ce565b92505081905550816001600160a01b031663265670e76040518163ffffffff1660e01b8152600401602060405180830381865afa15801561264d573d6000803e3d6000fd5b505050506040513d601f19601f82011682018060405250810190612671919061379f565b8460c00181815161268291906137ce565b9052506040516350c142e760e11b81526001600160a01b0388169063a18285ce906126b3908b90889060040161383b565b600060405180830381600087803b1580156126cd57600080fd5b505af11580156126e1573d6000803e3d6000fd5b50506040516361e70e8360e11b8152336004820152602481018890526001600160a01b038416925063c3ce1d069150604401600060405180830381600087803b15801561272d57600080fd5b505af1158015612741573d6000803e3d6000fd5b50505050505b5050505b6127548261344f565b156127735760028054906000612769836139da565b9190505550612797565b61277c826134ab565b156127975760038054906000612791836139da565b91905055505b6000848152600c602052604081206002015460078054919290916127bc9084906137ce565b90915550506000848152600c602052604081206003015460088054919290916127e69084906137ce565b90915550506007541580156127fd57506000600954115b1561280c5743600a5560006009555b6040805160a0810182526000808252602080830182815283850183815260608501848152608086018581528b8652600c90945293869020945185546001600160a01b0319166001600160a01b039182161786559151600186015551600285015591516003840155516004928301559151632142170760e11b8152309181019190915233602482015260448101869052908416906342842e0e90606401600060405180830381600087803b1580156128c257600080fd5b505af11580156128d6573d6000803e3d6000fd5b505050507f16700825aa6607ffefaeb83e81057f12d39f973a5e078e2b5244155224c56b8a8460405161290b91815260200190565b60405180910390a150505050565b6000600a54431161292b575060095490565b600d5460408051636cfe8a9f60e01b815290516000926001600160a01b031691636cfe8a9f9160048083019260209291908290030181865afa158015612975573d6000803e3d6000fd5b505050506040513d601f19601f82011682018060405250810190612999919061368f565b905060006129a5612ae0565b90506000826001600160a01b031663b9e59a076040518163ffffffff1660e01b8152600401602060405180830381865afa1580156129e7573d6000803e3d6000fd5b505050506040513d601f19601f82011682018060405250810190612a0b919061379f565b90506000610384600a5443612a2091906137ce565b612a2a9190613814565b905080600003612a405760095494505050505090565b6000612710856001600160a01b031663477e8c416040518163ffffffff1660e01b8152600401602060405180830381865afa158015612a83573d6000803e3d6000fd5b505050506040513d601f19601f82011682018060405250810190612aa7919061379f565b612ab186866137e7565b612abb91906137e7565b612ac59190613814565b90506000612ad383836137e7565b600954610ff49190613828565b600080612aeb613500565b9050612710612afa82826137e7565b612b049190613814565b600754612b119190613828565b91505090565b6000818152600b6020526040902054819060ff1615612b49576040516380345f6960e01b815260040160405180910390fd5b6000818152600b60209081526040808320805460ff19166001179055848352600c909152902054336001600160a01b0390911614612b9a5760405163ba18ada560e01b815260040160405180910390fd5b600254600003612bbd576040516333d6d53f60e21b815260040160405180910390fd5b600d546040805163130329f160e31b815290516000926001600160a01b0316916398194f889160048083019260209291908290030181865afa158015612c07573d6000803e3d6000fd5b505050506040513d601f19601f82011682018060405250810190612c2b919061368f565b90506000600d60009054906101000a90046001600160a01b03166001600160a01b031663834e679c6040518163ffffffff1660e01b8152600401602060405180830381865afa158015612c82573d6000803e3d6000fd5b505050506040513d601f19601f82011682018060405250810190612ca6919061368f565b9050612cb061303a565b6000612cbb85610e94565b905080600003612cde57604051635204d81560e11b815260040160405180910390fd5b60405163f3c86ff560e01b8152600481018690526000906001600160a01b0384169063f3c86ff59060240161012060405180830381865afa158015612d27573d6000803e3d6000fd5b505050506040513d601f19601f82011682018060405250810190612d4b9190613724565b905060008160c0015190506000600d60009054906101000a90046001600160a01b03166001600160a01b0316636cfe8a9f6040518163ffffffff1660e01b8152600401602060405180830381865afa158015612dab573d6000803e3d6000fd5b505050506040513d601f19601f82011682018060405250810190612dcf919061368f565b9050806001600160a01b031663265670e76040518163ffffffff1660e01b8152600401602060405180830381865afa158015612e0f573d6000803e3d6000fd5b505050506040513d601f19601f82011682018060405250810190612e33919061379f565b821015612e56576040516001625d3bd160e11b0319815260040160405180910390fd5b6000888152600c60205260408120600281018054436004909301929092558290556007805491928392612e8a9084906137ce565b925050819055508460096000828254612ea391906137ce565b92505081905550816001600160a01b031663265670e76040518163ffffffff1660e01b8152600401602060405180830381865afa158015612ee8573d6000803e3d6000fd5b505050506040513d601f19601f82011682018060405250810190612f0c919061379f565b8460c001818151612f1d91906137ce565b9052506040516350c142e760e11b81526001600160a01b0387169063a18285ce90612f4e908c90889060040161383b565b600060405180830381600087803b158015612f6857600080fd5b505af1158015612f7c573d6000803e3d6000fd5b50506040516361e70e8360e11b8152336004820152602481018890526001600160a01b038a16925063c3ce1d069150604401600060405180830381600087803b158015612fc857600080fd5b505af1158015612fdc573d6000803e3d6000fd5b5050604080518c8152602081018990527f6f75ecacb5a6a71b2edb0d2b1664b4c2166ebd637c168379ce7a556739fcb50b935001905060405180910390a150505060009485525050600b602052505060409020805460ff1916905550565b600a54431161304557565b6007546000036130555743600a55565b600d5460408051636cfe8a9f60e01b815290516000926001600160a01b031691636cfe8a9f9160048083019260209291908290030181865afa15801561309f573d6000803e3d6000fd5b505050506040513d601f19601f820116820180604052508101906130c3919061368f565b905060006130cf612ae0565b90506000826001600160a01b031663b9e59a076040518163ffffffff1660e01b8152600401602060405180830381865afa158015613111573d6000803e3d6000fd5b505050506040513d601f19601f82011682018060405250810190613135919061379f565b90506000610384600a544361314a91906137ce565b6131549190613814565b9050806000036131645750505050565b6000612710856001600160a01b031663477e8c416040518163ffffffff1660e01b8152600401602060405180830381865afa1580156131a7573d6000803e3d6000fd5b505050506040513d601f19601f820116820180604052508101906131cb919061379f565b6131d586866137e7565b6131df91906137e7565b6131e99190613814565b90506131f582826137e7565b600960008282546132069190613828565b909155505043600a555050505050565b60006109c4424433604051602001613230939291906139f1565b6040516020818303038152906040528051906020012060001c6132539190613a19565b61325f90612710613828565b905090565b6000806003546002546132779190613828565b9050601d81116132c8576109c4424433604051602001613299939291906139f1565b6040516020818303038152906040528051906020012060001c6132bc9190613a19565b612b1190612710613828565b611388424433604051602001613299939291906139f1565b600080600d60009054906101000a90046001600160a01b03166001600160a01b0316636cfe8a9f6040518163ffffffff1660e01b8152600401602060405180830381865afa158015613336573d6000803e3d6000fd5b505050506040513d601f19601f8201168201806040525081019061335a919061368f565b9050806001600160a01b031663945b61236040518163ffffffff1660e01b8152600401602060405180830381865afa15801561339a573d6000803e3d6000fd5b505050506040513d601f19601f820116820180604052508101906133be919061379f565b816001600160a01b0316638ccf96d76040518163ffffffff1660e01b8152600401602060405180830381865afa1580156133fc573d6000803e3d6000fd5b505050506040513d601f19601f82011682018060405250810190613420919061379f565b61342a9190613828565b60035460025461343a9190613828565b0361344757600291505090565b600191505090565b60408051808201909152600581526428bab2b2b760d91b6020918201528151908201206000907ff5f8b21b0fa04f095084b55cc0d7bec4c709a5487f7a1da6ff7c117a2c3f69a5016134a357506001919050565b506000919050565b6040805180820190915260068152652bb7b935b2b960d11b6020918201528151908201206000907f165d4acabed7e70189f8367d5581798fe7782887dab4b20298287a6d308210a4016134a357506001919050565b600061271060065461138861351591906137e7565b61351f9190613814565b612710600554610bb861353291906137e7565b61353c9190613814565b6127106004546107d061354f91906137e7565b6135599190613814565b6135639190613828565b61325f9190613828565b6001600160a01b038116811461358257600080fd5b50565b6000806040838503121561359857600080fd5b8235915060208301356135aa8161356d565b809150509250929050565b6000806000806000608086880312156135cd57600080fd5b85356135d88161356d565b945060208601356135e88161356d565b935060408601359250606086013567ffffffffffffffff8082111561360c57600080fd5b818801915088601f83011261362057600080fd5b81358181111561362f57600080fd5b89602082850101111561364157600080fd5b9699959850939650602001949392505050565b60006020828403121561366657600080fd5b5035919050565b6000806040838503121561368057600080fd5b50508035926020909101359150565b6000602082840312156136a157600080fd5b81516136ac8161356d565b9392505050565b634e487b7160e01b600052604160045260246000fd5b604051610120810167ffffffffffffffff811182821017156136ed576136ed6136b3565b60405290565b604051601f8201601f1916810167ffffffffffffffff8111828210171561371c5761371c6136b3565b604052919050565b6000610120828403121561373757600080fd5b61373f6136c9565b825181526020830151602082015260408301516040820152606083015160608201526080830151608082015260a083015160a082015260c083015160c082015260e083015160e08201526101008084015181830152508091505092915050565b6000602082840312156137b157600080fd5b5051919050565b634e487b7160e01b600052601160045260246000fd5b818103818111156137e1576137e16137b8565b92915050565b80820281158282048414176137e1576137e16137b8565b634e487b7160e01b600052601260045260246000fd5b600082613823576138236137fe565b500490565b808201808211156137e1576137e16137b8565b60006101408201905083825282516020830152602083015160408301526040830151606083015260608301516080830152608083015160a083015260a083015160c083015260c083015160e083015260e083015161010081818501528085015161012085015250509392505050565b6000806000606084860312156138bf57600080fd5b8351925060208401519150604084015190509250925092565b600082601f8301126138e957600080fd5b815167ffffffffffffffff811115613903576139036136b3565b6020613917601f8301601f191682016136f3565b828152858284870101111561392b57600080fd5b60005b8381101561394957858101830151828201840152820161392e565b506000928101909101919091529392505050565b6000806040838503121561397057600080fd5b825167ffffffffffffffff8082111561398857600080fd5b613994868387016138d8565b935060208501519150808211156139aa57600080fd5b506139b7858286016138d8565b9150509250929050565b6000600182016139d3576139d36137b8565b5060010190565b6000816139e9576139e96137b8565b506000190190565b928352602083019190915260601b6bffffffffffffffffffffffff1916604082015260540190565b600082613a2857613a286137fe565b50069056fea2646970667358221220ae362d8eb209bec1984caa202be1de92220cf95bd0c5b931af255e15380978b964736f6c63430008190033","linkReferences":{}},"methodIdentifiers":{"BASE_DENOMINATOR()":"bd859584","ONE_EPOCH()":"3b42adee","availableHoneyInHive()":"c9592e99","beeStatus(uint256)":"95920aad","buzzkillAddressProvider()":"921ca4b1","collectHoney(uint256)":"f2499614","creator()":"02d05d3f","endureRaid(uint256)":"6055042b","forage(uint256,uint256)":"706d6ef4","getAvailableHoneyInHive()":"eeb36f79","getHivePoolMultiplier()":"f1bc9b52","getHiveResources()":"8f605eec","getUserClaimableHoney(uint256)":"41f7fee6","habitatId()":"9b73f891","hiveDefense()":"02c7086c","hiveProductivity()":"9d73fcc6","isBeeInAction(uint256)":"5aaabe58","lastAvailableHoneyUpdateBlock()":"32304b90","nectar()":"07fbd84b","numQueens()":"962b9d81","numWorkers()":"57eb3b30","onERC721Received(address,address,uint256,bytes)":"150b7a02","pollen()":"de5bae0f","sap()":"662377c1","stakeBee(uint256)":"903774ad","startRaid(uint256,address)":"08d4ffab","unstakeBee(uint256)":"b0f7c7af","updateHiveDefense(uint256)":"87763426"},"id":1}