{"abi":[{"type":"function","name":"buzzkillNFTAddress","inputs":[],"outputs":[{"name":"","type":"address","internalType":"address"}],"stateMutability":"view"},{"type":"function","name":"gameConfigAddress","inputs":[],"outputs":[{"name":"","type":"address","internalType":"address"}],"stateMutability":"view"},{"type":"function","name":"hiveManagerAddress","inputs":[],"outputs":[{"name":"","type":"address","internalType":"address"}],"stateMutability":"view"},{"type":"function","name":"honeyAddress","inputs":[],"outputs":[{"name":"","type":"address","internalType":"address"}],"stateMutability":"view"},{"type":"function","name":"honeyDistributionAddress","inputs":[],"outputs":[{"name":"","type":"address","internalType":"address"}],"stateMutability":"view"},{"type":"function","name":"initialize","inputs":[],"outputs":[],"stateMutability":"nonpayable"},{"type":"function","name":"owner","inputs":[],"outputs":[{"name":"","type":"address","internalType":"address"}],"stateMutability":"view"},{"type":"function","name":"renounceOwnership","inputs":[],"outputs":[],"stateMutability":"nonpayable"},{"type":"function","name":"setBuzzkillNFTAddress","inputs":[{"name":"_buzzkillNFTAddress","type":"address","internalType":"address"}],"outputs":[],"stateMutability":"nonpayable"},{"type":"function","name":"setGameConfigAddress","inputs":[{"name":"_gameConfigAddress","type":"address","internalType":"address"}],"outputs":[],"stateMutability":"nonpayable"},{"type":"function","name":"setHiveManagerAddress","inputs":[{"name":"_hiveManagerAddress","type":"address","internalType":"address"}],"outputs":[],"stateMutability":"nonpayable"},{"type":"function","name":"setHoneyAddress","inputs":[{"name":"_honeyAddress","type":"address","internalType":"address"}],"outputs":[],"stateMutability":"nonpayable"},{"type":"function","name":"setHoneyDistributionAddress","inputs":[{"name":"_honeyDistributionAddress","type":"address","internalType":"address"}],"outputs":[],"stateMutability":"nonpayable"},{"type":"function","name":"setWorldMapAddress","inputs":[{"name":"_worldMapAddress","type":"address","internalType":"address"}],"outputs":[],"stateMutability":"nonpayable"},{"type":"function","name":"transferOwnership","inputs":[{"name":"newOwner","type":"address","internalType":"address"}],"outputs":[],"stateMutability":"nonpayable"},{"type":"function","name":"worldMapAddress","inputs":[],"outputs":[{"name":"","type":"address","internalType":"address"}],"stateMutability":"view"},{"type":"event","name":"Initialized","inputs":[{"name":"version","type":"uint64","indexed":false,"internalType":"uint64"}],"anonymous":false},{"type":"event","name":"OwnershipTransferred","inputs":[{"name":"previousOwner","type":"address","indexed":true,"internalType":"address"},{"name":"newOwner","type":"address","indexed":true,"internalType":"address"}],"anonymous":false},{"type":"error","name":"InvalidInitialization","inputs":[]},{"type":"error","name":"NotInitializing","inputs":[]},{"type":"error","name":"OwnableInvalidOwner","inputs":[{"name":"owner","type":"address","internalType":"address"}]},{"type":"error","name":"OwnableUnauthorizedAccount","inputs":[{"name":"account","type":"address","internalType":"address"}]}],"bytecode":{"object":"0x6080604052348015600f57600080fd5b506106508061001f6000396000f3fe608060405234801561001057600080fd5b50600436106101005760003560e01c806398194f8811610097578063db9ed21311610066578063db9ed2131461020e578063f2fde38b14610221578063f4a395f014610234578063f54a5e1b1461024757600080fd5b806398194f88146101c2578063b3d8d079146101d5578063bfb3f94a146101e8578063cb6dcbb6146101fb57600080fd5b80638129fc1c116100d35780638129fc1c14610164578063834e679c1461016c5780638da5cb5b1461017f578063928f11a2146101af57600080fd5b806318b5c95414610105578063306f4003146101345780636cfe8a9f14610149578063715018a61461015c575b600080fd5b600254610118906001600160a01b031681565b6040516001600160a01b03909116815260200160405180910390f35b6101476101423660046105ea565b61025a565b005b600554610118906001600160a01b031681565b610147610284565b610147610298565b600054610118906001600160a01b031681565b7f9016d09d72d40fdae2fd8ceac6b6234c7706214fd39c1cd1e609a0528c199300546001600160a01b0316610118565b6101476101bd3660046105ea565b6103a7565b600454610118906001600160a01b031681565b600154610118906001600160a01b031681565b6101476101f63660046105ea565b6103d1565b600354610118906001600160a01b031681565b61014761021c3660046105ea565b6103fb565b61014761022f3660046105ea565b610425565b6101476102423660046105ea565b610468565b6101476102553660046105ea565b610492565b6102626104bc565b600380546001600160a01b0319166001600160a01b0392909216919091179055565b61028c6104bc565b6102966000610517565b565b7ff0c57e16840df040f15088dc2f81fe391c3923bec73e23a9662efc9c229c6a008054600160401b810460ff16159067ffffffffffffffff166000811580156102de5750825b905060008267ffffffffffffffff1660011480156102fb5750303b155b905081158015610309575080155b156103275760405163f92ee8a960e01b815260040160405180910390fd5b845467ffffffffffffffff19166001178555831561035157845460ff60401b1916600160401b1785555b61035a33610588565b83156103a057845460ff60401b19168555604051600181527fc7f505b2f371ae2175ee4913f4499e1f2633a7b5936321eed1cdaeb6115181d29060200160405180910390a15b5050505050565b6103af6104bc565b600580546001600160a01b0319166001600160a01b0392909216919091179055565b6103d96104bc565b600080546001600160a01b0319166001600160a01b0392909216919091179055565b6104036104bc565b600180546001600160a01b0319166001600160a01b0392909216919091179055565b61042d6104bc565b6001600160a01b03811661045c57604051631e4fbdf760e01b8152600060048201526024015b60405180910390fd5b61046581610517565b50565b6104706104bc565b600280546001600160a01b0319166001600160a01b0392909216919091179055565b61049a6104bc565b600480546001600160a01b0319166001600160a01b0392909216919091179055565b336104ee7f9016d09d72d40fdae2fd8ceac6b6234c7706214fd39c1cd1e609a0528c199300546001600160a01b031690565b6001600160a01b0316146102965760405163118cdaa760e01b8152336004820152602401610453565b7f9016d09d72d40fdae2fd8ceac6b6234c7706214fd39c1cd1e609a0528c19930080546001600160a01b031981166001600160a01b03848116918217845560405192169182907f8be0079c531659141344cd1fd0a4f28419497f9722a3daafe3b4186f6b6457e090600090a3505050565b610590610599565b610465816105e2565b7ff0c57e16840df040f15088dc2f81fe391c3923bec73e23a9662efc9c229c6a0054600160401b900460ff1661029657604051631afcd79f60e31b815260040160405180910390fd5b61042d610599565b6000602082840312156105fc57600080fd5b81356001600160a01b038116811461061357600080fd5b939250505056fea264697066735822122057a223a42a07e4f94945865d1972ea769582b51b02cda69bad390a3db0ff4eb664736f6c63430008190033","linkReferences":{}},"methodIdentifiers":{"buzzkillNFTAddress()":"834e679c","gameConfigAddress()":"6cfe8a9f","hiveManagerAddress()":"18b5c954","honeyAddress()":"b3d8d079","honeyDistributionAddress()":"98194f88","initialize()":"8129fc1c","owner()":"8da5cb5b","renounceOwnership()":"715018a6","setBuzzkillNFTAddress(address)":"bfb3f94a","setGameConfigAddress(address)":"928f11a2","setHiveManagerAddress(address)":"f4a395f0","setHoneyAddress(address)":"db9ed213","setHoneyDistributionAddress(address)":"f54a5e1b","setWorldMapAddress(address)":"306f4003","transferOwnership(address)":"f2fde38b","worldMapAddress()":"cb6dcbb6"},"id":4}