{"abi":[{"type":"function","name":"buzzkillNFTAddress","inputs":[],"outputs":[{"name":"","type":"address","internalType":"address"}],"stateMutability":"view"},{"type":"function","name":"gameConfigAddress","inputs":[],"outputs":[{"name":"","type":"address","internalType":"address"}],"stateMutability":"view"},{"type":"function","name":"hiveFactoryAddress","inputs":[],"outputs":[{"name":"","type":"address","internalType":"address"}],"stateMutability":"view"},{"type":"function","name":"honeyAddress","inputs":[],"outputs":[{"name":"","type":"address","internalType":"address"}],"stateMutability":"view"},{"type":"function","name":"honeyDistributionAddress","inputs":[],"outputs":[{"name":"","type":"address","internalType":"address"}],"stateMutability":"view"},{"type":"function","name":"initialize","inputs":[],"outputs":[],"stateMutability":"nonpayable"},{"type":"function","name":"owner","inputs":[],"outputs":[{"name":"","type":"address","internalType":"address"}],"stateMutability":"view"},{"type":"function","name":"renounceOwnership","inputs":[],"outputs":[],"stateMutability":"nonpayable"},{"type":"function","name":"setBuzzkillNFTAddress","inputs":[{"name":"_buzzkillNFTAddress","type":"address","internalType":"address"}],"outputs":[],"stateMutability":"nonpayable"},{"type":"function","name":"setGameConfigAddress","inputs":[{"name":"_gameConfigAddress","type":"address","internalType":"address"}],"outputs":[],"stateMutability":"nonpayable"},{"type":"function","name":"setHiveFactoryAddress","inputs":[{"name":"_hiveFactoryAddress","type":"address","internalType":"address"}],"outputs":[],"stateMutability":"nonpayable"},{"type":"function","name":"setHoneyAddress","inputs":[{"name":"_honeyAddress","type":"address","internalType":"address"}],"outputs":[],"stateMutability":"nonpayable"},{"type":"function","name":"setHoneyDistributionAddress","inputs":[{"name":"_honeyDistributionAddress","type":"address","internalType":"address"}],"outputs":[],"stateMutability":"nonpayable"},{"type":"function","name":"setWorldMapAddress","inputs":[{"name":"_worldMapAddress","type":"address","internalType":"address"}],"outputs":[],"stateMutability":"nonpayable"},{"type":"function","name":"transferOwnership","inputs":[{"name":"newOwner","type":"address","internalType":"address"}],"outputs":[],"stateMutability":"nonpayable"},{"type":"function","name":"worldMapAddress","inputs":[],"outputs":[{"name":"","type":"address","internalType":"address"}],"stateMutability":"view"},{"type":"event","name":"Initialized","inputs":[{"name":"version","type":"uint64","indexed":false,"internalType":"uint64"}],"anonymous":false},{"type":"event","name":"OwnershipTransferred","inputs":[{"name":"previousOwner","type":"address","indexed":true,"internalType":"address"},{"name":"newOwner","type":"address","indexed":true,"internalType":"address"}],"anonymous":false},{"type":"error","name":"InvalidInitialization","inputs":[]},{"type":"error","name":"NotInitializing","inputs":[]},{"type":"error","name":"OwnableInvalidOwner","inputs":[{"name":"owner","type":"address","internalType":"address"}]},{"type":"error","name":"OwnableUnauthorizedAccount","inputs":[{"name":"account","type":"address","internalType":"address"}]}],"bytecode":{"object":"0x6080604052348015600f57600080fd5b506106508061001f6000396000f3fe608060405234801561001057600080fd5b50600436106101005760003560e01c8063928f11a211610097578063cb6dcbb611610066578063cb6dcbb61461020e578063db9ed21314610221578063f2fde38b14610234578063f54a5e1b1461024757600080fd5b8063928f11a2146101c257806398194f88146101d5578063b3d8d079146101e8578063bfb3f94a146101fb57600080fd5b80638129fc1c116100d35780638129fc1c14610164578063834e679c1461016c57806388d1abde1461017f5780638da5cb5b1461019257600080fd5b8063306f4003146101055780634f4c1ad01461011a5780636cfe8a9f14610149578063715018a61461015c575b600080fd5b6101186101133660046105ea565b61025a565b005b60025461012d906001600160a01b031681565b6040516001600160a01b03909116815260200160405180910390f35b60055461012d906001600160a01b031681565b610118610284565b610118610298565b60005461012d906001600160a01b031681565b61011861018d3660046105ea565b6103a7565b7f9016d09d72d40fdae2fd8ceac6b6234c7706214fd39c1cd1e609a0528c199300546001600160a01b031661012d565b6101186101d03660046105ea565b6103d1565b60045461012d906001600160a01b031681565b60015461012d906001600160a01b031681565b6101186102093660046105ea565b6103fb565b60035461012d906001600160a01b031681565b61011861022f3660046105ea565b610425565b6101186102423660046105ea565b61044f565b6101186102553660046105ea565b610492565b6102626104bc565b600380546001600160a01b0319166001600160a01b0392909216919091179055565b61028c6104bc565b6102966000610517565b565b7ff0c57e16840df040f15088dc2f81fe391c3923bec73e23a9662efc9c229c6a008054600160401b810460ff16159067ffffffffffffffff166000811580156102de5750825b905060008267ffffffffffffffff1660011480156102fb5750303b155b905081158015610309575080155b156103275760405163f92ee8a960e01b815260040160405180910390fd5b845467ffffffffffffffff19166001178555831561035157845460ff60401b1916600160401b1785555b61035a33610588565b83156103a057845460ff60401b19168555604051600181527fc7f505b2f371ae2175ee4913f4499e1f2633a7b5936321eed1cdaeb6115181d29060200160405180910390a15b5050505050565b6103af6104bc565b600280546001600160a01b0319166001600160a01b0392909216919091179055565b6103d96104bc565b600580546001600160a01b0319166001600160a01b0392909216919091179055565b6104036104bc565b600080546001600160a01b0319166001600160a01b0392909216919091179055565b61042d6104bc565b600180546001600160a01b0319166001600160a01b0392909216919091179055565b6104576104bc565b6001600160a01b03811661048657604051631e4fbdf760e01b8152600060048201526024015b60405180910390fd5b61048f81610517565b50565b61049a6104bc565b600480546001600160a01b0319166001600160a01b0392909216919091179055565b336104ee7f9016d09d72d40fdae2fd8ceac6b6234c7706214fd39c1cd1e609a0528c199300546001600160a01b031690565b6001600160a01b0316146102965760405163118cdaa760e01b815233600482015260240161047d565b7f9016d09d72d40fdae2fd8ceac6b6234c7706214fd39c1cd1e609a0528c19930080546001600160a01b031981166001600160a01b03848116918217845560405192169182907f8be0079c531659141344cd1fd0a4f28419497f9722a3daafe3b4186f6b6457e090600090a3505050565b610590610599565b61048f816105e2565b7ff0c57e16840df040f15088dc2f81fe391c3923bec73e23a9662efc9c229c6a0054600160401b900460ff1661029657604051631afcd79f60e31b815260040160405180910390fd5b610457610599565b6000602082840312156105fc57600080fd5b81356001600160a01b038116811461061357600080fd5b939250505056fea2646970667358221220716f3b4c4699e45ee4b31c71f90e293823b1b3b622c9643e7f99a6b92d40fc8b64736f6c63430008190033","linkReferences":{}},"methodIdentifiers":{"buzzkillNFTAddress()":"834e679c","gameConfigAddress()":"6cfe8a9f","hiveFactoryAddress()":"4f4c1ad0","honeyAddress()":"b3d8d079","honeyDistributionAddress()":"98194f88","initialize()":"8129fc1c","owner()":"8da5cb5b","renounceOwnership()":"715018a6","setBuzzkillNFTAddress(address)":"bfb3f94a","setGameConfigAddress(address)":"928f11a2","setHiveFactoryAddress(address)":"88d1abde","setHoneyAddress(address)":"db9ed213","setHoneyDistributionAddress(address)":"f54a5e1b","setWorldMapAddress(address)":"306f4003","transferOwnership(address)":"f2fde38b","worldMapAddress()":"cb6dcbb6"},"id":6}